
AcconeerA111_G071RB.elf:     file format elf32-littlearm

Sections:
Idx Name          Size      VMA       LMA       File off  Algn
  0 .isr_vector   000000bc  08000000  08000000  00010000  2**0
                  CONTENTS, ALLOC, LOAD, READONLY, DATA
  1 .text         00009c08  080000bc  080000bc  000100bc  2**2
                  CONTENTS, ALLOC, LOAD, READONLY, CODE
  2 .rodata       000045e0  08009cc4  08009cc4  00019cc4  2**2
                  CONTENTS, ALLOC, LOAD, READONLY, DATA
  3 .ARM.extab    00000000  0800e2a4  0800e2a4  0002017c  2**0
                  CONTENTS
  4 .ARM          00000008  0800e2a4  0800e2a4  0001e2a4  2**2
                  CONTENTS, ALLOC, LOAD, READONLY, DATA
  5 .preinit_array 00000000  0800e2ac  0800e2ac  0002017c  2**0
                  CONTENTS, ALLOC, LOAD, DATA
  6 .init_array   00000004  0800e2ac  0800e2ac  0001e2ac  2**2
                  CONTENTS, ALLOC, LOAD, DATA
  7 .fini_array   00000004  0800e2b0  0800e2b0  0001e2b0  2**2
                  CONTENTS, ALLOC, LOAD, DATA
  8 .data         0000017c  20000000  0800e2b4  00020000  2**2
                  CONTENTS, ALLOC, LOAD, DATA
  9 .bss          000001e4  2000017c  0800e430  0002017c  2**2
                  ALLOC
 10 ._user_heap_stack 00000c00  20000360  0800e430  00020360  2**0
                  ALLOC
 11 .ARM.attributes 00000028  00000000  00000000  0002017c  2**0
                  CONTENTS, READONLY
 12 .debug_info   00043b49  00000000  00000000  000201a4  2**0
                  CONTENTS, READONLY, DEBUGGING
 13 .debug_abbrev 000098a8  00000000  00000000  00063ced  2**0
                  CONTENTS, READONLY, DEBUGGING
 14 .debug_loc    00013bec  00000000  00000000  0006d595  2**0
                  CONTENTS, READONLY, DEBUGGING
 15 .debug_aranges 00001ab8  00000000  00000000  00081188  2**3
                  CONTENTS, READONLY, DEBUGGING
 16 .debug_ranges 000026e8  00000000  00000000  00082c40  2**3
                  CONTENTS, READONLY, DEBUGGING
 17 .debug_macro  00019d4e  00000000  00000000  00085328  2**0
                  CONTENTS, READONLY, DEBUGGING
 18 .debug_line   00015a65  00000000  00000000  0009f076  2**0
                  CONTENTS, READONLY, DEBUGGING
 19 .debug_str    000a2819  00000000  00000000  000b4adb  2**0
                  CONTENTS, READONLY, DEBUGGING
 20 .comment      000000fa  00000000  00000000  001572f4  2**0
                  CONTENTS, READONLY
 21 .debug_frame  00005650  00000000  00000000  001573f0  2**2
                  CONTENTS, READONLY, DEBUGGING

Disassembly of section .text:

080000bc <__do_global_dtors_aux>:
 80000bc:	b510      	push	{r4, lr}
 80000be:	4c06      	ldr	r4, [pc, #24]	; (80000d8 <__do_global_dtors_aux+0x1c>)
 80000c0:	7823      	ldrb	r3, [r4, #0]
 80000c2:	2b00      	cmp	r3, #0
 80000c4:	d107      	bne.n	80000d6 <__do_global_dtors_aux+0x1a>
 80000c6:	4b05      	ldr	r3, [pc, #20]	; (80000dc <__do_global_dtors_aux+0x20>)
 80000c8:	2b00      	cmp	r3, #0
 80000ca:	d002      	beq.n	80000d2 <__do_global_dtors_aux+0x16>
 80000cc:	4804      	ldr	r0, [pc, #16]	; (80000e0 <__do_global_dtors_aux+0x24>)
 80000ce:	e000      	b.n	80000d2 <__do_global_dtors_aux+0x16>
 80000d0:	bf00      	nop
 80000d2:	2301      	movs	r3, #1
 80000d4:	7023      	strb	r3, [r4, #0]
 80000d6:	bd10      	pop	{r4, pc}
 80000d8:	2000017c 	.word	0x2000017c
 80000dc:	00000000 	.word	0x00000000
 80000e0:	08009cac 	.word	0x08009cac

080000e4 <frame_dummy>:
 80000e4:	4b04      	ldr	r3, [pc, #16]	; (80000f8 <frame_dummy+0x14>)
 80000e6:	b510      	push	{r4, lr}
 80000e8:	2b00      	cmp	r3, #0
 80000ea:	d003      	beq.n	80000f4 <frame_dummy+0x10>
 80000ec:	4903      	ldr	r1, [pc, #12]	; (80000fc <frame_dummy+0x18>)
 80000ee:	4804      	ldr	r0, [pc, #16]	; (8000100 <frame_dummy+0x1c>)
 80000f0:	e000      	b.n	80000f4 <frame_dummy+0x10>
 80000f2:	bf00      	nop
 80000f4:	bd10      	pop	{r4, pc}
 80000f6:	46c0      	nop			; (mov r8, r8)
 80000f8:	00000000 	.word	0x00000000
 80000fc:	20000180 	.word	0x20000180
 8000100:	08009cac 	.word	0x08009cac

08000104 <__gnu_thumb1_case_uqi>:
 8000104:	b402      	push	{r1}
 8000106:	4671      	mov	r1, lr
 8000108:	0849      	lsrs	r1, r1, #1
 800010a:	0049      	lsls	r1, r1, #1
 800010c:	5c09      	ldrb	r1, [r1, r0]
 800010e:	0049      	lsls	r1, r1, #1
 8000110:	448e      	add	lr, r1
 8000112:	bc02      	pop	{r1}
 8000114:	4770      	bx	lr
 8000116:	46c0      	nop			; (mov r8, r8)

08000118 <__gnu_thumb1_case_shi>:
 8000118:	b403      	push	{r0, r1}
 800011a:	4671      	mov	r1, lr
 800011c:	0849      	lsrs	r1, r1, #1
 800011e:	0040      	lsls	r0, r0, #1
 8000120:	0049      	lsls	r1, r1, #1
 8000122:	5e09      	ldrsh	r1, [r1, r0]
 8000124:	0049      	lsls	r1, r1, #1
 8000126:	448e      	add	lr, r1
 8000128:	bc03      	pop	{r0, r1}
 800012a:	4770      	bx	lr

0800012c <__udivsi3>:
 800012c:	2200      	movs	r2, #0
 800012e:	0843      	lsrs	r3, r0, #1
 8000130:	428b      	cmp	r3, r1
 8000132:	d374      	bcc.n	800021e <__udivsi3+0xf2>
 8000134:	0903      	lsrs	r3, r0, #4
 8000136:	428b      	cmp	r3, r1
 8000138:	d35f      	bcc.n	80001fa <__udivsi3+0xce>
 800013a:	0a03      	lsrs	r3, r0, #8
 800013c:	428b      	cmp	r3, r1
 800013e:	d344      	bcc.n	80001ca <__udivsi3+0x9e>
 8000140:	0b03      	lsrs	r3, r0, #12
 8000142:	428b      	cmp	r3, r1
 8000144:	d328      	bcc.n	8000198 <__udivsi3+0x6c>
 8000146:	0c03      	lsrs	r3, r0, #16
 8000148:	428b      	cmp	r3, r1
 800014a:	d30d      	bcc.n	8000168 <__udivsi3+0x3c>
 800014c:	22ff      	movs	r2, #255	; 0xff
 800014e:	0209      	lsls	r1, r1, #8
 8000150:	ba12      	rev	r2, r2
 8000152:	0c03      	lsrs	r3, r0, #16
 8000154:	428b      	cmp	r3, r1
 8000156:	d302      	bcc.n	800015e <__udivsi3+0x32>
 8000158:	1212      	asrs	r2, r2, #8
 800015a:	0209      	lsls	r1, r1, #8
 800015c:	d065      	beq.n	800022a <__udivsi3+0xfe>
 800015e:	0b03      	lsrs	r3, r0, #12
 8000160:	428b      	cmp	r3, r1
 8000162:	d319      	bcc.n	8000198 <__udivsi3+0x6c>
 8000164:	e000      	b.n	8000168 <__udivsi3+0x3c>
 8000166:	0a09      	lsrs	r1, r1, #8
 8000168:	0bc3      	lsrs	r3, r0, #15
 800016a:	428b      	cmp	r3, r1
 800016c:	d301      	bcc.n	8000172 <__udivsi3+0x46>
 800016e:	03cb      	lsls	r3, r1, #15
 8000170:	1ac0      	subs	r0, r0, r3
 8000172:	4152      	adcs	r2, r2
 8000174:	0b83      	lsrs	r3, r0, #14
 8000176:	428b      	cmp	r3, r1
 8000178:	d301      	bcc.n	800017e <__udivsi3+0x52>
 800017a:	038b      	lsls	r3, r1, #14
 800017c:	1ac0      	subs	r0, r0, r3
 800017e:	4152      	adcs	r2, r2
 8000180:	0b43      	lsrs	r3, r0, #13
 8000182:	428b      	cmp	r3, r1
 8000184:	d301      	bcc.n	800018a <__udivsi3+0x5e>
 8000186:	034b      	lsls	r3, r1, #13
 8000188:	1ac0      	subs	r0, r0, r3
 800018a:	4152      	adcs	r2, r2
 800018c:	0b03      	lsrs	r3, r0, #12
 800018e:	428b      	cmp	r3, r1
 8000190:	d301      	bcc.n	8000196 <__udivsi3+0x6a>
 8000192:	030b      	lsls	r3, r1, #12
 8000194:	1ac0      	subs	r0, r0, r3
 8000196:	4152      	adcs	r2, r2
 8000198:	0ac3      	lsrs	r3, r0, #11
 800019a:	428b      	cmp	r3, r1
 800019c:	d301      	bcc.n	80001a2 <__udivsi3+0x76>
 800019e:	02cb      	lsls	r3, r1, #11
 80001a0:	1ac0      	subs	r0, r0, r3
 80001a2:	4152      	adcs	r2, r2
 80001a4:	0a83      	lsrs	r3, r0, #10
 80001a6:	428b      	cmp	r3, r1
 80001a8:	d301      	bcc.n	80001ae <__udivsi3+0x82>
 80001aa:	028b      	lsls	r3, r1, #10
 80001ac:	1ac0      	subs	r0, r0, r3
 80001ae:	4152      	adcs	r2, r2
 80001b0:	0a43      	lsrs	r3, r0, #9
 80001b2:	428b      	cmp	r3, r1
 80001b4:	d301      	bcc.n	80001ba <__udivsi3+0x8e>
 80001b6:	024b      	lsls	r3, r1, #9
 80001b8:	1ac0      	subs	r0, r0, r3
 80001ba:	4152      	adcs	r2, r2
 80001bc:	0a03      	lsrs	r3, r0, #8
 80001be:	428b      	cmp	r3, r1
 80001c0:	d301      	bcc.n	80001c6 <__udivsi3+0x9a>
 80001c2:	020b      	lsls	r3, r1, #8
 80001c4:	1ac0      	subs	r0, r0, r3
 80001c6:	4152      	adcs	r2, r2
 80001c8:	d2cd      	bcs.n	8000166 <__udivsi3+0x3a>
 80001ca:	09c3      	lsrs	r3, r0, #7
 80001cc:	428b      	cmp	r3, r1
 80001ce:	d301      	bcc.n	80001d4 <__udivsi3+0xa8>
 80001d0:	01cb      	lsls	r3, r1, #7
 80001d2:	1ac0      	subs	r0, r0, r3
 80001d4:	4152      	adcs	r2, r2
 80001d6:	0983      	lsrs	r3, r0, #6
 80001d8:	428b      	cmp	r3, r1
 80001da:	d301      	bcc.n	80001e0 <__udivsi3+0xb4>
 80001dc:	018b      	lsls	r3, r1, #6
 80001de:	1ac0      	subs	r0, r0, r3
 80001e0:	4152      	adcs	r2, r2
 80001e2:	0943      	lsrs	r3, r0, #5
 80001e4:	428b      	cmp	r3, r1
 80001e6:	d301      	bcc.n	80001ec <__udivsi3+0xc0>
 80001e8:	014b      	lsls	r3, r1, #5
 80001ea:	1ac0      	subs	r0, r0, r3
 80001ec:	4152      	adcs	r2, r2
 80001ee:	0903      	lsrs	r3, r0, #4
 80001f0:	428b      	cmp	r3, r1
 80001f2:	d301      	bcc.n	80001f8 <__udivsi3+0xcc>
 80001f4:	010b      	lsls	r3, r1, #4
 80001f6:	1ac0      	subs	r0, r0, r3
 80001f8:	4152      	adcs	r2, r2
 80001fa:	08c3      	lsrs	r3, r0, #3
 80001fc:	428b      	cmp	r3, r1
 80001fe:	d301      	bcc.n	8000204 <__udivsi3+0xd8>
 8000200:	00cb      	lsls	r3, r1, #3
 8000202:	1ac0      	subs	r0, r0, r3
 8000204:	4152      	adcs	r2, r2
 8000206:	0883      	lsrs	r3, r0, #2
 8000208:	428b      	cmp	r3, r1
 800020a:	d301      	bcc.n	8000210 <__udivsi3+0xe4>
 800020c:	008b      	lsls	r3, r1, #2
 800020e:	1ac0      	subs	r0, r0, r3
 8000210:	4152      	adcs	r2, r2
 8000212:	0843      	lsrs	r3, r0, #1
 8000214:	428b      	cmp	r3, r1
 8000216:	d301      	bcc.n	800021c <__udivsi3+0xf0>
 8000218:	004b      	lsls	r3, r1, #1
 800021a:	1ac0      	subs	r0, r0, r3
 800021c:	4152      	adcs	r2, r2
 800021e:	1a41      	subs	r1, r0, r1
 8000220:	d200      	bcs.n	8000224 <__udivsi3+0xf8>
 8000222:	4601      	mov	r1, r0
 8000224:	4152      	adcs	r2, r2
 8000226:	4610      	mov	r0, r2
 8000228:	4770      	bx	lr
 800022a:	e7ff      	b.n	800022c <__udivsi3+0x100>
 800022c:	b501      	push	{r0, lr}
 800022e:	2000      	movs	r0, #0
 8000230:	f000 f8f0 	bl	8000414 <__aeabi_idiv0>
 8000234:	bd02      	pop	{r1, pc}
 8000236:	46c0      	nop			; (mov r8, r8)

08000238 <__aeabi_uidivmod>:
 8000238:	2900      	cmp	r1, #0
 800023a:	d0f7      	beq.n	800022c <__udivsi3+0x100>
 800023c:	e776      	b.n	800012c <__udivsi3>
 800023e:	4770      	bx	lr

08000240 <__divsi3>:
 8000240:	4603      	mov	r3, r0
 8000242:	430b      	orrs	r3, r1
 8000244:	d47f      	bmi.n	8000346 <__divsi3+0x106>
 8000246:	2200      	movs	r2, #0
 8000248:	0843      	lsrs	r3, r0, #1
 800024a:	428b      	cmp	r3, r1
 800024c:	d374      	bcc.n	8000338 <__divsi3+0xf8>
 800024e:	0903      	lsrs	r3, r0, #4
 8000250:	428b      	cmp	r3, r1
 8000252:	d35f      	bcc.n	8000314 <__divsi3+0xd4>
 8000254:	0a03      	lsrs	r3, r0, #8
 8000256:	428b      	cmp	r3, r1
 8000258:	d344      	bcc.n	80002e4 <__divsi3+0xa4>
 800025a:	0b03      	lsrs	r3, r0, #12
 800025c:	428b      	cmp	r3, r1
 800025e:	d328      	bcc.n	80002b2 <__divsi3+0x72>
 8000260:	0c03      	lsrs	r3, r0, #16
 8000262:	428b      	cmp	r3, r1
 8000264:	d30d      	bcc.n	8000282 <__divsi3+0x42>
 8000266:	22ff      	movs	r2, #255	; 0xff
 8000268:	0209      	lsls	r1, r1, #8
 800026a:	ba12      	rev	r2, r2
 800026c:	0c03      	lsrs	r3, r0, #16
 800026e:	428b      	cmp	r3, r1
 8000270:	d302      	bcc.n	8000278 <__divsi3+0x38>
 8000272:	1212      	asrs	r2, r2, #8
 8000274:	0209      	lsls	r1, r1, #8
 8000276:	d065      	beq.n	8000344 <__divsi3+0x104>
 8000278:	0b03      	lsrs	r3, r0, #12
 800027a:	428b      	cmp	r3, r1
 800027c:	d319      	bcc.n	80002b2 <__divsi3+0x72>
 800027e:	e000      	b.n	8000282 <__divsi3+0x42>
 8000280:	0a09      	lsrs	r1, r1, #8
 8000282:	0bc3      	lsrs	r3, r0, #15
 8000284:	428b      	cmp	r3, r1
 8000286:	d301      	bcc.n	800028c <__divsi3+0x4c>
 8000288:	03cb      	lsls	r3, r1, #15
 800028a:	1ac0      	subs	r0, r0, r3
 800028c:	4152      	adcs	r2, r2
 800028e:	0b83      	lsrs	r3, r0, #14
 8000290:	428b      	cmp	r3, r1
 8000292:	d301      	bcc.n	8000298 <__divsi3+0x58>
 8000294:	038b      	lsls	r3, r1, #14
 8000296:	1ac0      	subs	r0, r0, r3
 8000298:	4152      	adcs	r2, r2
 800029a:	0b43      	lsrs	r3, r0, #13
 800029c:	428b      	cmp	r3, r1
 800029e:	d301      	bcc.n	80002a4 <__divsi3+0x64>
 80002a0:	034b      	lsls	r3, r1, #13
 80002a2:	1ac0      	subs	r0, r0, r3
 80002a4:	4152      	adcs	r2, r2
 80002a6:	0b03      	lsrs	r3, r0, #12
 80002a8:	428b      	cmp	r3, r1
 80002aa:	d301      	bcc.n	80002b0 <__divsi3+0x70>
 80002ac:	030b      	lsls	r3, r1, #12
 80002ae:	1ac0      	subs	r0, r0, r3
 80002b0:	4152      	adcs	r2, r2
 80002b2:	0ac3      	lsrs	r3, r0, #11
 80002b4:	428b      	cmp	r3, r1
 80002b6:	d301      	bcc.n	80002bc <__divsi3+0x7c>
 80002b8:	02cb      	lsls	r3, r1, #11
 80002ba:	1ac0      	subs	r0, r0, r3
 80002bc:	4152      	adcs	r2, r2
 80002be:	0a83      	lsrs	r3, r0, #10
 80002c0:	428b      	cmp	r3, r1
 80002c2:	d301      	bcc.n	80002c8 <__divsi3+0x88>
 80002c4:	028b      	lsls	r3, r1, #10
 80002c6:	1ac0      	subs	r0, r0, r3
 80002c8:	4152      	adcs	r2, r2
 80002ca:	0a43      	lsrs	r3, r0, #9
 80002cc:	428b      	cmp	r3, r1
 80002ce:	d301      	bcc.n	80002d4 <__divsi3+0x94>
 80002d0:	024b      	lsls	r3, r1, #9
 80002d2:	1ac0      	subs	r0, r0, r3
 80002d4:	4152      	adcs	r2, r2
 80002d6:	0a03      	lsrs	r3, r0, #8
 80002d8:	428b      	cmp	r3, r1
 80002da:	d301      	bcc.n	80002e0 <__divsi3+0xa0>
 80002dc:	020b      	lsls	r3, r1, #8
 80002de:	1ac0      	subs	r0, r0, r3
 80002e0:	4152      	adcs	r2, r2
 80002e2:	d2cd      	bcs.n	8000280 <__divsi3+0x40>
 80002e4:	09c3      	lsrs	r3, r0, #7
 80002e6:	428b      	cmp	r3, r1
 80002e8:	d301      	bcc.n	80002ee <__divsi3+0xae>
 80002ea:	01cb      	lsls	r3, r1, #7
 80002ec:	1ac0      	subs	r0, r0, r3
 80002ee:	4152      	adcs	r2, r2
 80002f0:	0983      	lsrs	r3, r0, #6
 80002f2:	428b      	cmp	r3, r1
 80002f4:	d301      	bcc.n	80002fa <__divsi3+0xba>
 80002f6:	018b      	lsls	r3, r1, #6
 80002f8:	1ac0      	subs	r0, r0, r3
 80002fa:	4152      	adcs	r2, r2
 80002fc:	0943      	lsrs	r3, r0, #5
 80002fe:	428b      	cmp	r3, r1
 8000300:	d301      	bcc.n	8000306 <__divsi3+0xc6>
 8000302:	014b      	lsls	r3, r1, #5
 8000304:	1ac0      	subs	r0, r0, r3
 8000306:	4152      	adcs	r2, r2
 8000308:	0903      	lsrs	r3, r0, #4
 800030a:	428b      	cmp	r3, r1
 800030c:	d301      	bcc.n	8000312 <__divsi3+0xd2>
 800030e:	010b      	lsls	r3, r1, #4
 8000310:	1ac0      	subs	r0, r0, r3
 8000312:	4152      	adcs	r2, r2
 8000314:	08c3      	lsrs	r3, r0, #3
 8000316:	428b      	cmp	r3, r1
 8000318:	d301      	bcc.n	800031e <__divsi3+0xde>
 800031a:	00cb      	lsls	r3, r1, #3
 800031c:	1ac0      	subs	r0, r0, r3
 800031e:	4152      	adcs	r2, r2
 8000320:	0883      	lsrs	r3, r0, #2
 8000322:	428b      	cmp	r3, r1
 8000324:	d301      	bcc.n	800032a <__divsi3+0xea>
 8000326:	008b      	lsls	r3, r1, #2
 8000328:	1ac0      	subs	r0, r0, r3
 800032a:	4152      	adcs	r2, r2
 800032c:	0843      	lsrs	r3, r0, #1
 800032e:	428b      	cmp	r3, r1
 8000330:	d301      	bcc.n	8000336 <__divsi3+0xf6>
 8000332:	004b      	lsls	r3, r1, #1
 8000334:	1ac0      	subs	r0, r0, r3
 8000336:	4152      	adcs	r2, r2
 8000338:	1a41      	subs	r1, r0, r1
 800033a:	d200      	bcs.n	800033e <__divsi3+0xfe>
 800033c:	4601      	mov	r1, r0
 800033e:	4152      	adcs	r2, r2
 8000340:	4610      	mov	r0, r2
 8000342:	4770      	bx	lr
 8000344:	e05d      	b.n	8000402 <__divsi3+0x1c2>
 8000346:	0fca      	lsrs	r2, r1, #31
 8000348:	d000      	beq.n	800034c <__divsi3+0x10c>
 800034a:	4249      	negs	r1, r1
 800034c:	1003      	asrs	r3, r0, #32
 800034e:	d300      	bcc.n	8000352 <__divsi3+0x112>
 8000350:	4240      	negs	r0, r0
 8000352:	4053      	eors	r3, r2
 8000354:	2200      	movs	r2, #0
 8000356:	469c      	mov	ip, r3
 8000358:	0903      	lsrs	r3, r0, #4
 800035a:	428b      	cmp	r3, r1
 800035c:	d32d      	bcc.n	80003ba <__divsi3+0x17a>
 800035e:	0a03      	lsrs	r3, r0, #8
 8000360:	428b      	cmp	r3, r1
 8000362:	d312      	bcc.n	800038a <__divsi3+0x14a>
 8000364:	22fc      	movs	r2, #252	; 0xfc
 8000366:	0189      	lsls	r1, r1, #6
 8000368:	ba12      	rev	r2, r2
 800036a:	0a03      	lsrs	r3, r0, #8
 800036c:	428b      	cmp	r3, r1
 800036e:	d30c      	bcc.n	800038a <__divsi3+0x14a>
 8000370:	0189      	lsls	r1, r1, #6
 8000372:	1192      	asrs	r2, r2, #6
 8000374:	428b      	cmp	r3, r1
 8000376:	d308      	bcc.n	800038a <__divsi3+0x14a>
 8000378:	0189      	lsls	r1, r1, #6
 800037a:	1192      	asrs	r2, r2, #6
 800037c:	428b      	cmp	r3, r1
 800037e:	d304      	bcc.n	800038a <__divsi3+0x14a>
 8000380:	0189      	lsls	r1, r1, #6
 8000382:	d03a      	beq.n	80003fa <__divsi3+0x1ba>
 8000384:	1192      	asrs	r2, r2, #6
 8000386:	e000      	b.n	800038a <__divsi3+0x14a>
 8000388:	0989      	lsrs	r1, r1, #6
 800038a:	09c3      	lsrs	r3, r0, #7
 800038c:	428b      	cmp	r3, r1
 800038e:	d301      	bcc.n	8000394 <__divsi3+0x154>
 8000390:	01cb      	lsls	r3, r1, #7
 8000392:	1ac0      	subs	r0, r0, r3
 8000394:	4152      	adcs	r2, r2
 8000396:	0983      	lsrs	r3, r0, #6
 8000398:	428b      	cmp	r3, r1
 800039a:	d301      	bcc.n	80003a0 <__divsi3+0x160>
 800039c:	018b      	lsls	r3, r1, #6
 800039e:	1ac0      	subs	r0, r0, r3
 80003a0:	4152      	adcs	r2, r2
 80003a2:	0943      	lsrs	r3, r0, #5
 80003a4:	428b      	cmp	r3, r1
 80003a6:	d301      	bcc.n	80003ac <__divsi3+0x16c>
 80003a8:	014b      	lsls	r3, r1, #5
 80003aa:	1ac0      	subs	r0, r0, r3
 80003ac:	4152      	adcs	r2, r2
 80003ae:	0903      	lsrs	r3, r0, #4
 80003b0:	428b      	cmp	r3, r1
 80003b2:	d301      	bcc.n	80003b8 <__divsi3+0x178>
 80003b4:	010b      	lsls	r3, r1, #4
 80003b6:	1ac0      	subs	r0, r0, r3
 80003b8:	4152      	adcs	r2, r2
 80003ba:	08c3      	lsrs	r3, r0, #3
 80003bc:	428b      	cmp	r3, r1
 80003be:	d301      	bcc.n	80003c4 <__divsi3+0x184>
 80003c0:	00cb      	lsls	r3, r1, #3
 80003c2:	1ac0      	subs	r0, r0, r3
 80003c4:	4152      	adcs	r2, r2
 80003c6:	0883      	lsrs	r3, r0, #2
 80003c8:	428b      	cmp	r3, r1
 80003ca:	d301      	bcc.n	80003d0 <__divsi3+0x190>
 80003cc:	008b      	lsls	r3, r1, #2
 80003ce:	1ac0      	subs	r0, r0, r3
 80003d0:	4152      	adcs	r2, r2
 80003d2:	d2d9      	bcs.n	8000388 <__divsi3+0x148>
 80003d4:	0843      	lsrs	r3, r0, #1
 80003d6:	428b      	cmp	r3, r1
 80003d8:	d301      	bcc.n	80003de <__divsi3+0x19e>
 80003da:	004b      	lsls	r3, r1, #1
 80003dc:	1ac0      	subs	r0, r0, r3
 80003de:	4152      	adcs	r2, r2
 80003e0:	1a41      	subs	r1, r0, r1
 80003e2:	d200      	bcs.n	80003e6 <__divsi3+0x1a6>
 80003e4:	4601      	mov	r1, r0
 80003e6:	4663      	mov	r3, ip
 80003e8:	4152      	adcs	r2, r2
 80003ea:	105b      	asrs	r3, r3, #1
 80003ec:	4610      	mov	r0, r2
 80003ee:	d301      	bcc.n	80003f4 <__divsi3+0x1b4>
 80003f0:	4240      	negs	r0, r0
 80003f2:	2b00      	cmp	r3, #0
 80003f4:	d500      	bpl.n	80003f8 <__divsi3+0x1b8>
 80003f6:	4249      	negs	r1, r1
 80003f8:	4770      	bx	lr
 80003fa:	4663      	mov	r3, ip
 80003fc:	105b      	asrs	r3, r3, #1
 80003fe:	d300      	bcc.n	8000402 <__divsi3+0x1c2>
 8000400:	4240      	negs	r0, r0
 8000402:	b501      	push	{r0, lr}
 8000404:	2000      	movs	r0, #0
 8000406:	f000 f805 	bl	8000414 <__aeabi_idiv0>
 800040a:	bd02      	pop	{r1, pc}

0800040c <__aeabi_idivmod>:
 800040c:	2900      	cmp	r1, #0
 800040e:	d0f8      	beq.n	8000402 <__divsi3+0x1c2>
 8000410:	e716      	b.n	8000240 <__divsi3>
 8000412:	4770      	bx	lr

08000414 <__aeabi_idiv0>:
 8000414:	4770      	bx	lr
 8000416:	46c0      	nop			; (mov r8, r8)

08000418 <__aeabi_cfrcmple>:
 8000418:	4684      	mov	ip, r0
 800041a:	1c08      	adds	r0, r1, #0
 800041c:	4661      	mov	r1, ip
 800041e:	e7ff      	b.n	8000420 <__aeabi_cfcmpeq>

08000420 <__aeabi_cfcmpeq>:
 8000420:	b51f      	push	{r0, r1, r2, r3, r4, lr}
 8000422:	f000 fc79 	bl	8000d18 <__lesf2>
 8000426:	2800      	cmp	r0, #0
 8000428:	d401      	bmi.n	800042e <__aeabi_cfcmpeq+0xe>
 800042a:	2100      	movs	r1, #0
 800042c:	42c8      	cmn	r0, r1
 800042e:	bd1f      	pop	{r0, r1, r2, r3, r4, pc}

08000430 <__aeabi_fcmpeq>:
 8000430:	b510      	push	{r4, lr}
 8000432:	f000 fbfb 	bl	8000c2c <__eqsf2>
 8000436:	4240      	negs	r0, r0
 8000438:	3001      	adds	r0, #1
 800043a:	bd10      	pop	{r4, pc}

0800043c <__aeabi_fcmplt>:
 800043c:	b510      	push	{r4, lr}
 800043e:	f000 fc6b 	bl	8000d18 <__lesf2>
 8000442:	2800      	cmp	r0, #0
 8000444:	db01      	blt.n	800044a <__aeabi_fcmplt+0xe>
 8000446:	2000      	movs	r0, #0
 8000448:	bd10      	pop	{r4, pc}
 800044a:	2001      	movs	r0, #1
 800044c:	bd10      	pop	{r4, pc}
 800044e:	46c0      	nop			; (mov r8, r8)

08000450 <__aeabi_fcmple>:
 8000450:	b510      	push	{r4, lr}
 8000452:	f000 fc61 	bl	8000d18 <__lesf2>
 8000456:	2800      	cmp	r0, #0
 8000458:	dd01      	ble.n	800045e <__aeabi_fcmple+0xe>
 800045a:	2000      	movs	r0, #0
 800045c:	bd10      	pop	{r4, pc}
 800045e:	2001      	movs	r0, #1
 8000460:	bd10      	pop	{r4, pc}
 8000462:	46c0      	nop			; (mov r8, r8)

08000464 <__aeabi_fcmpgt>:
 8000464:	b510      	push	{r4, lr}
 8000466:	f000 fc09 	bl	8000c7c <__gesf2>
 800046a:	2800      	cmp	r0, #0
 800046c:	dc01      	bgt.n	8000472 <__aeabi_fcmpgt+0xe>
 800046e:	2000      	movs	r0, #0
 8000470:	bd10      	pop	{r4, pc}
 8000472:	2001      	movs	r0, #1
 8000474:	bd10      	pop	{r4, pc}
 8000476:	46c0      	nop			; (mov r8, r8)

08000478 <__aeabi_fcmpge>:
 8000478:	b510      	push	{r4, lr}
 800047a:	f000 fbff 	bl	8000c7c <__gesf2>
 800047e:	2800      	cmp	r0, #0
 8000480:	da01      	bge.n	8000486 <__aeabi_fcmpge+0xe>
 8000482:	2000      	movs	r0, #0
 8000484:	bd10      	pop	{r4, pc}
 8000486:	2001      	movs	r0, #1
 8000488:	bd10      	pop	{r4, pc}
 800048a:	46c0      	nop			; (mov r8, r8)

0800048c <__aeabi_uldivmod>:
 800048c:	2b00      	cmp	r3, #0
 800048e:	d111      	bne.n	80004b4 <__aeabi_uldivmod+0x28>
 8000490:	2a00      	cmp	r2, #0
 8000492:	d10f      	bne.n	80004b4 <__aeabi_uldivmod+0x28>
 8000494:	2900      	cmp	r1, #0
 8000496:	d100      	bne.n	800049a <__aeabi_uldivmod+0xe>
 8000498:	2800      	cmp	r0, #0
 800049a:	d002      	beq.n	80004a2 <__aeabi_uldivmod+0x16>
 800049c:	2100      	movs	r1, #0
 800049e:	43c9      	mvns	r1, r1
 80004a0:	1c08      	adds	r0, r1, #0
 80004a2:	b407      	push	{r0, r1, r2}
 80004a4:	4802      	ldr	r0, [pc, #8]	; (80004b0 <__aeabi_uldivmod+0x24>)
 80004a6:	a102      	add	r1, pc, #8	; (adr r1, 80004b0 <__aeabi_uldivmod+0x24>)
 80004a8:	1840      	adds	r0, r0, r1
 80004aa:	9002      	str	r0, [sp, #8]
 80004ac:	bd03      	pop	{r0, r1, pc}
 80004ae:	46c0      	nop			; (mov r8, r8)
 80004b0:	ffffff65 	.word	0xffffff65
 80004b4:	b403      	push	{r0, r1}
 80004b6:	4668      	mov	r0, sp
 80004b8:	b501      	push	{r0, lr}
 80004ba:	9802      	ldr	r0, [sp, #8]
 80004bc:	f000 f848 	bl	8000550 <__udivmoddi4>
 80004c0:	9b01      	ldr	r3, [sp, #4]
 80004c2:	469e      	mov	lr, r3
 80004c4:	b002      	add	sp, #8
 80004c6:	bc0c      	pop	{r2, r3}
 80004c8:	4770      	bx	lr
 80004ca:	46c0      	nop			; (mov r8, r8)

080004cc <__aeabi_lmul>:
 80004cc:	b5f0      	push	{r4, r5, r6, r7, lr}
 80004ce:	46ce      	mov	lr, r9
 80004d0:	4647      	mov	r7, r8
 80004d2:	0415      	lsls	r5, r2, #16
 80004d4:	0c2d      	lsrs	r5, r5, #16
 80004d6:	002e      	movs	r6, r5
 80004d8:	b580      	push	{r7, lr}
 80004da:	0407      	lsls	r7, r0, #16
 80004dc:	0c14      	lsrs	r4, r2, #16
 80004de:	0c3f      	lsrs	r7, r7, #16
 80004e0:	4699      	mov	r9, r3
 80004e2:	0c03      	lsrs	r3, r0, #16
 80004e4:	437e      	muls	r6, r7
 80004e6:	435d      	muls	r5, r3
 80004e8:	4367      	muls	r7, r4
 80004ea:	4363      	muls	r3, r4
 80004ec:	197f      	adds	r7, r7, r5
 80004ee:	0c34      	lsrs	r4, r6, #16
 80004f0:	19e4      	adds	r4, r4, r7
 80004f2:	469c      	mov	ip, r3
 80004f4:	42a5      	cmp	r5, r4
 80004f6:	d903      	bls.n	8000500 <__aeabi_lmul+0x34>
 80004f8:	2380      	movs	r3, #128	; 0x80
 80004fa:	025b      	lsls	r3, r3, #9
 80004fc:	4698      	mov	r8, r3
 80004fe:	44c4      	add	ip, r8
 8000500:	464b      	mov	r3, r9
 8000502:	4343      	muls	r3, r0
 8000504:	4351      	muls	r1, r2
 8000506:	0c25      	lsrs	r5, r4, #16
 8000508:	0436      	lsls	r6, r6, #16
 800050a:	4465      	add	r5, ip
 800050c:	0c36      	lsrs	r6, r6, #16
 800050e:	0424      	lsls	r4, r4, #16
 8000510:	19a4      	adds	r4, r4, r6
 8000512:	195b      	adds	r3, r3, r5
 8000514:	1859      	adds	r1, r3, r1
 8000516:	0020      	movs	r0, r4
 8000518:	bc0c      	pop	{r2, r3}
 800051a:	4690      	mov	r8, r2
 800051c:	4699      	mov	r9, r3
 800051e:	bdf0      	pop	{r4, r5, r6, r7, pc}

08000520 <__aeabi_f2uiz>:
 8000520:	219e      	movs	r1, #158	; 0x9e
 8000522:	b510      	push	{r4, lr}
 8000524:	05c9      	lsls	r1, r1, #23
 8000526:	1c04      	adds	r4, r0, #0
 8000528:	f7ff ffa6 	bl	8000478 <__aeabi_fcmpge>
 800052c:	2800      	cmp	r0, #0
 800052e:	d103      	bne.n	8000538 <__aeabi_f2uiz+0x18>
 8000530:	1c20      	adds	r0, r4, #0
 8000532:	f000 ff37 	bl	80013a4 <__aeabi_f2iz>
 8000536:	bd10      	pop	{r4, pc}
 8000538:	219e      	movs	r1, #158	; 0x9e
 800053a:	1c20      	adds	r0, r4, #0
 800053c:	05c9      	lsls	r1, r1, #23
 800053e:	f000 fd6d 	bl	800101c <__aeabi_fsub>
 8000542:	f000 ff2f 	bl	80013a4 <__aeabi_f2iz>
 8000546:	2380      	movs	r3, #128	; 0x80
 8000548:	061b      	lsls	r3, r3, #24
 800054a:	469c      	mov	ip, r3
 800054c:	4460      	add	r0, ip
 800054e:	e7f2      	b.n	8000536 <__aeabi_f2uiz+0x16>

08000550 <__udivmoddi4>:
 8000550:	b5f0      	push	{r4, r5, r6, r7, lr}
 8000552:	464f      	mov	r7, r9
 8000554:	4646      	mov	r6, r8
 8000556:	46d6      	mov	lr, sl
 8000558:	b5c0      	push	{r6, r7, lr}
 800055a:	0004      	movs	r4, r0
 800055c:	b082      	sub	sp, #8
 800055e:	000d      	movs	r5, r1
 8000560:	4691      	mov	r9, r2
 8000562:	4698      	mov	r8, r3
 8000564:	428b      	cmp	r3, r1
 8000566:	d82f      	bhi.n	80005c8 <__udivmoddi4+0x78>
 8000568:	d02c      	beq.n	80005c4 <__udivmoddi4+0x74>
 800056a:	4641      	mov	r1, r8
 800056c:	4648      	mov	r0, r9
 800056e:	f001 f8b7 	bl	80016e0 <__clzdi2>
 8000572:	0029      	movs	r1, r5
 8000574:	0006      	movs	r6, r0
 8000576:	0020      	movs	r0, r4
 8000578:	f001 f8b2 	bl	80016e0 <__clzdi2>
 800057c:	1a33      	subs	r3, r6, r0
 800057e:	469c      	mov	ip, r3
 8000580:	3b20      	subs	r3, #32
 8000582:	469a      	mov	sl, r3
 8000584:	d500      	bpl.n	8000588 <__udivmoddi4+0x38>
 8000586:	e076      	b.n	8000676 <__udivmoddi4+0x126>
 8000588:	464b      	mov	r3, r9
 800058a:	4652      	mov	r2, sl
 800058c:	4093      	lsls	r3, r2
 800058e:	001f      	movs	r7, r3
 8000590:	464b      	mov	r3, r9
 8000592:	4662      	mov	r2, ip
 8000594:	4093      	lsls	r3, r2
 8000596:	001e      	movs	r6, r3
 8000598:	42af      	cmp	r7, r5
 800059a:	d828      	bhi.n	80005ee <__udivmoddi4+0x9e>
 800059c:	d025      	beq.n	80005ea <__udivmoddi4+0x9a>
 800059e:	4653      	mov	r3, sl
 80005a0:	1ba4      	subs	r4, r4, r6
 80005a2:	41bd      	sbcs	r5, r7
 80005a4:	2b00      	cmp	r3, #0
 80005a6:	da00      	bge.n	80005aa <__udivmoddi4+0x5a>
 80005a8:	e07b      	b.n	80006a2 <__udivmoddi4+0x152>
 80005aa:	2200      	movs	r2, #0
 80005ac:	2300      	movs	r3, #0
 80005ae:	9200      	str	r2, [sp, #0]
 80005b0:	9301      	str	r3, [sp, #4]
 80005b2:	2301      	movs	r3, #1
 80005b4:	4652      	mov	r2, sl
 80005b6:	4093      	lsls	r3, r2
 80005b8:	9301      	str	r3, [sp, #4]
 80005ba:	2301      	movs	r3, #1
 80005bc:	4662      	mov	r2, ip
 80005be:	4093      	lsls	r3, r2
 80005c0:	9300      	str	r3, [sp, #0]
 80005c2:	e018      	b.n	80005f6 <__udivmoddi4+0xa6>
 80005c4:	4282      	cmp	r2, r0
 80005c6:	d9d0      	bls.n	800056a <__udivmoddi4+0x1a>
 80005c8:	2200      	movs	r2, #0
 80005ca:	2300      	movs	r3, #0
 80005cc:	9200      	str	r2, [sp, #0]
 80005ce:	9301      	str	r3, [sp, #4]
 80005d0:	9b0a      	ldr	r3, [sp, #40]	; 0x28
 80005d2:	2b00      	cmp	r3, #0
 80005d4:	d001      	beq.n	80005da <__udivmoddi4+0x8a>
 80005d6:	601c      	str	r4, [r3, #0]
 80005d8:	605d      	str	r5, [r3, #4]
 80005da:	9800      	ldr	r0, [sp, #0]
 80005dc:	9901      	ldr	r1, [sp, #4]
 80005de:	b002      	add	sp, #8
 80005e0:	bc1c      	pop	{r2, r3, r4}
 80005e2:	4690      	mov	r8, r2
 80005e4:	4699      	mov	r9, r3
 80005e6:	46a2      	mov	sl, r4
 80005e8:	bdf0      	pop	{r4, r5, r6, r7, pc}
 80005ea:	42a3      	cmp	r3, r4
 80005ec:	d9d7      	bls.n	800059e <__udivmoddi4+0x4e>
 80005ee:	2200      	movs	r2, #0
 80005f0:	2300      	movs	r3, #0
 80005f2:	9200      	str	r2, [sp, #0]
 80005f4:	9301      	str	r3, [sp, #4]
 80005f6:	4663      	mov	r3, ip
 80005f8:	2b00      	cmp	r3, #0
 80005fa:	d0e9      	beq.n	80005d0 <__udivmoddi4+0x80>
 80005fc:	07fb      	lsls	r3, r7, #31
 80005fe:	4698      	mov	r8, r3
 8000600:	4641      	mov	r1, r8
 8000602:	0872      	lsrs	r2, r6, #1
 8000604:	430a      	orrs	r2, r1
 8000606:	087b      	lsrs	r3, r7, #1
 8000608:	4666      	mov	r6, ip
 800060a:	e00e      	b.n	800062a <__udivmoddi4+0xda>
 800060c:	42ab      	cmp	r3, r5
 800060e:	d101      	bne.n	8000614 <__udivmoddi4+0xc4>
 8000610:	42a2      	cmp	r2, r4
 8000612:	d80c      	bhi.n	800062e <__udivmoddi4+0xde>
 8000614:	1aa4      	subs	r4, r4, r2
 8000616:	419d      	sbcs	r5, r3
 8000618:	2001      	movs	r0, #1
 800061a:	1924      	adds	r4, r4, r4
 800061c:	416d      	adcs	r5, r5
 800061e:	2100      	movs	r1, #0
 8000620:	3e01      	subs	r6, #1
 8000622:	1824      	adds	r4, r4, r0
 8000624:	414d      	adcs	r5, r1
 8000626:	2e00      	cmp	r6, #0
 8000628:	d006      	beq.n	8000638 <__udivmoddi4+0xe8>
 800062a:	42ab      	cmp	r3, r5
 800062c:	d9ee      	bls.n	800060c <__udivmoddi4+0xbc>
 800062e:	3e01      	subs	r6, #1
 8000630:	1924      	adds	r4, r4, r4
 8000632:	416d      	adcs	r5, r5
 8000634:	2e00      	cmp	r6, #0
 8000636:	d1f8      	bne.n	800062a <__udivmoddi4+0xda>
 8000638:	9800      	ldr	r0, [sp, #0]
 800063a:	9901      	ldr	r1, [sp, #4]
 800063c:	4653      	mov	r3, sl
 800063e:	1900      	adds	r0, r0, r4
 8000640:	4169      	adcs	r1, r5
 8000642:	2b00      	cmp	r3, #0
 8000644:	db23      	blt.n	800068e <__udivmoddi4+0x13e>
 8000646:	002b      	movs	r3, r5
 8000648:	4652      	mov	r2, sl
 800064a:	40d3      	lsrs	r3, r2
 800064c:	002a      	movs	r2, r5
 800064e:	4664      	mov	r4, ip
 8000650:	40e2      	lsrs	r2, r4
 8000652:	001c      	movs	r4, r3
 8000654:	4653      	mov	r3, sl
 8000656:	0015      	movs	r5, r2
 8000658:	2b00      	cmp	r3, #0
 800065a:	db2d      	blt.n	80006b8 <__udivmoddi4+0x168>
 800065c:	0026      	movs	r6, r4
 800065e:	4657      	mov	r7, sl
 8000660:	40be      	lsls	r6, r7
 8000662:	0033      	movs	r3, r6
 8000664:	0026      	movs	r6, r4
 8000666:	4667      	mov	r7, ip
 8000668:	40be      	lsls	r6, r7
 800066a:	0032      	movs	r2, r6
 800066c:	1a80      	subs	r0, r0, r2
 800066e:	4199      	sbcs	r1, r3
 8000670:	9000      	str	r0, [sp, #0]
 8000672:	9101      	str	r1, [sp, #4]
 8000674:	e7ac      	b.n	80005d0 <__udivmoddi4+0x80>
 8000676:	4662      	mov	r2, ip
 8000678:	2320      	movs	r3, #32
 800067a:	1a9b      	subs	r3, r3, r2
 800067c:	464a      	mov	r2, r9
 800067e:	40da      	lsrs	r2, r3
 8000680:	4661      	mov	r1, ip
 8000682:	0013      	movs	r3, r2
 8000684:	4642      	mov	r2, r8
 8000686:	408a      	lsls	r2, r1
 8000688:	0017      	movs	r7, r2
 800068a:	431f      	orrs	r7, r3
 800068c:	e780      	b.n	8000590 <__udivmoddi4+0x40>
 800068e:	4662      	mov	r2, ip
 8000690:	2320      	movs	r3, #32
 8000692:	1a9b      	subs	r3, r3, r2
 8000694:	002a      	movs	r2, r5
 8000696:	4666      	mov	r6, ip
 8000698:	409a      	lsls	r2, r3
 800069a:	0023      	movs	r3, r4
 800069c:	40f3      	lsrs	r3, r6
 800069e:	4313      	orrs	r3, r2
 80006a0:	e7d4      	b.n	800064c <__udivmoddi4+0xfc>
 80006a2:	4662      	mov	r2, ip
 80006a4:	2320      	movs	r3, #32
 80006a6:	2100      	movs	r1, #0
 80006a8:	1a9b      	subs	r3, r3, r2
 80006aa:	2200      	movs	r2, #0
 80006ac:	9100      	str	r1, [sp, #0]
 80006ae:	9201      	str	r2, [sp, #4]
 80006b0:	2201      	movs	r2, #1
 80006b2:	40da      	lsrs	r2, r3
 80006b4:	9201      	str	r2, [sp, #4]
 80006b6:	e780      	b.n	80005ba <__udivmoddi4+0x6a>
 80006b8:	2320      	movs	r3, #32
 80006ba:	4662      	mov	r2, ip
 80006bc:	0026      	movs	r6, r4
 80006be:	1a9b      	subs	r3, r3, r2
 80006c0:	40de      	lsrs	r6, r3
 80006c2:	002f      	movs	r7, r5
 80006c4:	46b0      	mov	r8, r6
 80006c6:	4666      	mov	r6, ip
 80006c8:	40b7      	lsls	r7, r6
 80006ca:	4646      	mov	r6, r8
 80006cc:	003b      	movs	r3, r7
 80006ce:	4333      	orrs	r3, r6
 80006d0:	e7c8      	b.n	8000664 <__udivmoddi4+0x114>
 80006d2:	46c0      	nop			; (mov r8, r8)

080006d4 <__aeabi_fadd>:
 80006d4:	b5f8      	push	{r3, r4, r5, r6, r7, lr}
 80006d6:	4647      	mov	r7, r8
 80006d8:	46ce      	mov	lr, r9
 80006da:	0243      	lsls	r3, r0, #9
 80006dc:	0a5b      	lsrs	r3, r3, #9
 80006de:	0044      	lsls	r4, r0, #1
 80006e0:	0fc2      	lsrs	r2, r0, #31
 80006e2:	469c      	mov	ip, r3
 80006e4:	0048      	lsls	r0, r1, #1
 80006e6:	00dd      	lsls	r5, r3, #3
 80006e8:	024b      	lsls	r3, r1, #9
 80006ea:	0e24      	lsrs	r4, r4, #24
 80006ec:	0a5b      	lsrs	r3, r3, #9
 80006ee:	0e00      	lsrs	r0, r0, #24
 80006f0:	b580      	push	{r7, lr}
 80006f2:	4698      	mov	r8, r3
 80006f4:	0026      	movs	r6, r4
 80006f6:	4691      	mov	r9, r2
 80006f8:	0fc9      	lsrs	r1, r1, #31
 80006fa:	00db      	lsls	r3, r3, #3
 80006fc:	1a27      	subs	r7, r4, r0
 80006fe:	428a      	cmp	r2, r1
 8000700:	d029      	beq.n	8000756 <__aeabi_fadd+0x82>
 8000702:	2f00      	cmp	r7, #0
 8000704:	dd15      	ble.n	8000732 <__aeabi_fadd+0x5e>
 8000706:	2800      	cmp	r0, #0
 8000708:	d14a      	bne.n	80007a0 <__aeabi_fadd+0xcc>
 800070a:	2b00      	cmp	r3, #0
 800070c:	d000      	beq.n	8000710 <__aeabi_fadd+0x3c>
 800070e:	e095      	b.n	800083c <__aeabi_fadd+0x168>
 8000710:	08ed      	lsrs	r5, r5, #3
 8000712:	2cff      	cmp	r4, #255	; 0xff
 8000714:	d100      	bne.n	8000718 <__aeabi_fadd+0x44>
 8000716:	e088      	b.n	800082a <__aeabi_fadd+0x156>
 8000718:	026b      	lsls	r3, r5, #9
 800071a:	0a5b      	lsrs	r3, r3, #9
 800071c:	b2e6      	uxtb	r6, r4
 800071e:	025b      	lsls	r3, r3, #9
 8000720:	05f6      	lsls	r6, r6, #23
 8000722:	0a58      	lsrs	r0, r3, #9
 8000724:	4330      	orrs	r0, r6
 8000726:	07d2      	lsls	r2, r2, #31
 8000728:	4310      	orrs	r0, r2
 800072a:	bc0c      	pop	{r2, r3}
 800072c:	4690      	mov	r8, r2
 800072e:	4699      	mov	r9, r3
 8000730:	bdf8      	pop	{r3, r4, r5, r6, r7, pc}
 8000732:	2f00      	cmp	r7, #0
 8000734:	d000      	beq.n	8000738 <__aeabi_fadd+0x64>
 8000736:	e087      	b.n	8000848 <__aeabi_fadd+0x174>
 8000738:	1c60      	adds	r0, r4, #1
 800073a:	b2c0      	uxtb	r0, r0
 800073c:	2801      	cmp	r0, #1
 800073e:	dc00      	bgt.n	8000742 <__aeabi_fadd+0x6e>
 8000740:	e0b6      	b.n	80008b0 <__aeabi_fadd+0x1dc>
 8000742:	1aee      	subs	r6, r5, r3
 8000744:	0172      	lsls	r2, r6, #5
 8000746:	d500      	bpl.n	800074a <__aeabi_fadd+0x76>
 8000748:	e0c5      	b.n	80008d6 <__aeabi_fadd+0x202>
 800074a:	2e00      	cmp	r6, #0
 800074c:	d13d      	bne.n	80007ca <__aeabi_fadd+0xf6>
 800074e:	2200      	movs	r2, #0
 8000750:	2600      	movs	r6, #0
 8000752:	2300      	movs	r3, #0
 8000754:	e7e3      	b.n	800071e <__aeabi_fadd+0x4a>
 8000756:	2f00      	cmp	r7, #0
 8000758:	dc00      	bgt.n	800075c <__aeabi_fadd+0x88>
 800075a:	e096      	b.n	800088a <__aeabi_fadd+0x1b6>
 800075c:	2800      	cmp	r0, #0
 800075e:	d05d      	beq.n	800081c <__aeabi_fadd+0x148>
 8000760:	2cff      	cmp	r4, #255	; 0xff
 8000762:	d060      	beq.n	8000826 <__aeabi_fadd+0x152>
 8000764:	2280      	movs	r2, #128	; 0x80
 8000766:	04d2      	lsls	r2, r2, #19
 8000768:	4313      	orrs	r3, r2
 800076a:	2f1b      	cmp	r7, #27
 800076c:	dd00      	ble.n	8000770 <__aeabi_fadd+0x9c>
 800076e:	e0ec      	b.n	800094a <__aeabi_fadd+0x276>
 8000770:	2220      	movs	r2, #32
 8000772:	1bd2      	subs	r2, r2, r7
 8000774:	0018      	movs	r0, r3
 8000776:	4093      	lsls	r3, r2
 8000778:	40f8      	lsrs	r0, r7
 800077a:	1e5a      	subs	r2, r3, #1
 800077c:	4193      	sbcs	r3, r2
 800077e:	4303      	orrs	r3, r0
 8000780:	18ed      	adds	r5, r5, r3
 8000782:	016b      	lsls	r3, r5, #5
 8000784:	d57b      	bpl.n	800087e <__aeabi_fadd+0x1aa>
 8000786:	3401      	adds	r4, #1
 8000788:	2cff      	cmp	r4, #255	; 0xff
 800078a:	d100      	bne.n	800078e <__aeabi_fadd+0xba>
 800078c:	e0b7      	b.n	80008fe <__aeabi_fadd+0x22a>
 800078e:	2201      	movs	r2, #1
 8000790:	2607      	movs	r6, #7
 8000792:	402a      	ands	r2, r5
 8000794:	086b      	lsrs	r3, r5, #1
 8000796:	4d9a      	ldr	r5, [pc, #616]	; (8000a00 <__aeabi_fadd+0x32c>)
 8000798:	401d      	ands	r5, r3
 800079a:	4315      	orrs	r5, r2
 800079c:	402e      	ands	r6, r5
 800079e:	e029      	b.n	80007f4 <__aeabi_fadd+0x120>
 80007a0:	2cff      	cmp	r4, #255	; 0xff
 80007a2:	d0b5      	beq.n	8000710 <__aeabi_fadd+0x3c>
 80007a4:	2280      	movs	r2, #128	; 0x80
 80007a6:	04d2      	lsls	r2, r2, #19
 80007a8:	4313      	orrs	r3, r2
 80007aa:	2f1b      	cmp	r7, #27
 80007ac:	dd00      	ble.n	80007b0 <__aeabi_fadd+0xdc>
 80007ae:	e0b2      	b.n	8000916 <__aeabi_fadd+0x242>
 80007b0:	2220      	movs	r2, #32
 80007b2:	1bd2      	subs	r2, r2, r7
 80007b4:	0019      	movs	r1, r3
 80007b6:	4093      	lsls	r3, r2
 80007b8:	40f9      	lsrs	r1, r7
 80007ba:	1e5a      	subs	r2, r3, #1
 80007bc:	4193      	sbcs	r3, r2
 80007be:	430b      	orrs	r3, r1
 80007c0:	1aed      	subs	r5, r5, r3
 80007c2:	016b      	lsls	r3, r5, #5
 80007c4:	d55b      	bpl.n	800087e <__aeabi_fadd+0x1aa>
 80007c6:	01ad      	lsls	r5, r5, #6
 80007c8:	09ae      	lsrs	r6, r5, #6
 80007ca:	0030      	movs	r0, r6
 80007cc:	f000 ff6a 	bl	80016a4 <__clzsi2>
 80007d0:	3805      	subs	r0, #5
 80007d2:	4086      	lsls	r6, r0
 80007d4:	4284      	cmp	r4, r0
 80007d6:	dc65      	bgt.n	80008a4 <__aeabi_fadd+0x1d0>
 80007d8:	1b04      	subs	r4, r0, r4
 80007da:	0033      	movs	r3, r6
 80007dc:	2020      	movs	r0, #32
 80007de:	3401      	adds	r4, #1
 80007e0:	40e3      	lsrs	r3, r4
 80007e2:	1b04      	subs	r4, r0, r4
 80007e4:	40a6      	lsls	r6, r4
 80007e6:	1e75      	subs	r5, r6, #1
 80007e8:	41ae      	sbcs	r6, r5
 80007ea:	4333      	orrs	r3, r6
 80007ec:	2607      	movs	r6, #7
 80007ee:	001d      	movs	r5, r3
 80007f0:	2400      	movs	r4, #0
 80007f2:	401e      	ands	r6, r3
 80007f4:	2201      	movs	r2, #1
 80007f6:	464b      	mov	r3, r9
 80007f8:	401a      	ands	r2, r3
 80007fa:	2e00      	cmp	r6, #0
 80007fc:	d004      	beq.n	8000808 <__aeabi_fadd+0x134>
 80007fe:	230f      	movs	r3, #15
 8000800:	402b      	ands	r3, r5
 8000802:	2b04      	cmp	r3, #4
 8000804:	d000      	beq.n	8000808 <__aeabi_fadd+0x134>
 8000806:	3504      	adds	r5, #4
 8000808:	016b      	lsls	r3, r5, #5
 800080a:	d400      	bmi.n	800080e <__aeabi_fadd+0x13a>
 800080c:	e780      	b.n	8000710 <__aeabi_fadd+0x3c>
 800080e:	3401      	adds	r4, #1
 8000810:	b2e6      	uxtb	r6, r4
 8000812:	2cff      	cmp	r4, #255	; 0xff
 8000814:	d12f      	bne.n	8000876 <__aeabi_fadd+0x1a2>
 8000816:	26ff      	movs	r6, #255	; 0xff
 8000818:	2300      	movs	r3, #0
 800081a:	e780      	b.n	800071e <__aeabi_fadd+0x4a>
 800081c:	2b00      	cmp	r3, #0
 800081e:	d152      	bne.n	80008c6 <__aeabi_fadd+0x1f2>
 8000820:	2cff      	cmp	r4, #255	; 0xff
 8000822:	d000      	beq.n	8000826 <__aeabi_fadd+0x152>
 8000824:	e774      	b.n	8000710 <__aeabi_fadd+0x3c>
 8000826:	000a      	movs	r2, r1
 8000828:	08ed      	lsrs	r5, r5, #3
 800082a:	2d00      	cmp	r5, #0
 800082c:	d0f3      	beq.n	8000816 <__aeabi_fadd+0x142>
 800082e:	2380      	movs	r3, #128	; 0x80
 8000830:	03db      	lsls	r3, r3, #15
 8000832:	432b      	orrs	r3, r5
 8000834:	025b      	lsls	r3, r3, #9
 8000836:	0a5b      	lsrs	r3, r3, #9
 8000838:	26ff      	movs	r6, #255	; 0xff
 800083a:	e770      	b.n	800071e <__aeabi_fadd+0x4a>
 800083c:	3f01      	subs	r7, #1
 800083e:	2f00      	cmp	r7, #0
 8000840:	d0be      	beq.n	80007c0 <__aeabi_fadd+0xec>
 8000842:	2cff      	cmp	r4, #255	; 0xff
 8000844:	d1b1      	bne.n	80007aa <__aeabi_fadd+0xd6>
 8000846:	e763      	b.n	8000710 <__aeabi_fadd+0x3c>
 8000848:	2c00      	cmp	r4, #0
 800084a:	d047      	beq.n	80008dc <__aeabi_fadd+0x208>
 800084c:	28ff      	cmp	r0, #255	; 0xff
 800084e:	d069      	beq.n	8000924 <__aeabi_fadd+0x250>
 8000850:	2480      	movs	r4, #128	; 0x80
 8000852:	04e4      	lsls	r4, r4, #19
 8000854:	427a      	negs	r2, r7
 8000856:	4325      	orrs	r5, r4
 8000858:	2a1b      	cmp	r2, #27
 800085a:	dd00      	ble.n	800085e <__aeabi_fadd+0x18a>
 800085c:	e0c5      	b.n	80009ea <__aeabi_fadd+0x316>
 800085e:	002c      	movs	r4, r5
 8000860:	2620      	movs	r6, #32
 8000862:	40d4      	lsrs	r4, r2
 8000864:	1ab2      	subs	r2, r6, r2
 8000866:	4095      	lsls	r5, r2
 8000868:	1e6a      	subs	r2, r5, #1
 800086a:	4195      	sbcs	r5, r2
 800086c:	4325      	orrs	r5, r4
 800086e:	1b5d      	subs	r5, r3, r5
 8000870:	0004      	movs	r4, r0
 8000872:	4689      	mov	r9, r1
 8000874:	e7a5      	b.n	80007c2 <__aeabi_fadd+0xee>
 8000876:	01ab      	lsls	r3, r5, #6
 8000878:	0a5b      	lsrs	r3, r3, #9
 800087a:	e750      	b.n	800071e <__aeabi_fadd+0x4a>
 800087c:	2400      	movs	r4, #0
 800087e:	2201      	movs	r2, #1
 8000880:	464b      	mov	r3, r9
 8000882:	401a      	ands	r2, r3
 8000884:	076b      	lsls	r3, r5, #29
 8000886:	d1ba      	bne.n	80007fe <__aeabi_fadd+0x12a>
 8000888:	e742      	b.n	8000710 <__aeabi_fadd+0x3c>
 800088a:	2f00      	cmp	r7, #0
 800088c:	d13b      	bne.n	8000906 <__aeabi_fadd+0x232>
 800088e:	3401      	adds	r4, #1
 8000890:	b2e0      	uxtb	r0, r4
 8000892:	2801      	cmp	r0, #1
 8000894:	dd4a      	ble.n	800092c <__aeabi_fadd+0x258>
 8000896:	2cff      	cmp	r4, #255	; 0xff
 8000898:	d0bd      	beq.n	8000816 <__aeabi_fadd+0x142>
 800089a:	2607      	movs	r6, #7
 800089c:	18ed      	adds	r5, r5, r3
 800089e:	086d      	lsrs	r5, r5, #1
 80008a0:	402e      	ands	r6, r5
 80008a2:	e7a7      	b.n	80007f4 <__aeabi_fadd+0x120>
 80008a4:	2307      	movs	r3, #7
 80008a6:	4d57      	ldr	r5, [pc, #348]	; (8000a04 <__aeabi_fadd+0x330>)
 80008a8:	1a24      	subs	r4, r4, r0
 80008aa:	4035      	ands	r5, r6
 80008ac:	401e      	ands	r6, r3
 80008ae:	e7a1      	b.n	80007f4 <__aeabi_fadd+0x120>
 80008b0:	2c00      	cmp	r4, #0
 80008b2:	d11b      	bne.n	80008ec <__aeabi_fadd+0x218>
 80008b4:	2d00      	cmp	r5, #0
 80008b6:	d16e      	bne.n	8000996 <__aeabi_fadd+0x2c2>
 80008b8:	2b00      	cmp	r3, #0
 80008ba:	d100      	bne.n	80008be <__aeabi_fadd+0x1ea>
 80008bc:	e09a      	b.n	80009f4 <__aeabi_fadd+0x320>
 80008be:	000a      	movs	r2, r1
 80008c0:	001d      	movs	r5, r3
 80008c2:	003c      	movs	r4, r7
 80008c4:	e724      	b.n	8000710 <__aeabi_fadd+0x3c>
 80008c6:	3f01      	subs	r7, #1
 80008c8:	2f00      	cmp	r7, #0
 80008ca:	d100      	bne.n	80008ce <__aeabi_fadd+0x1fa>
 80008cc:	e758      	b.n	8000780 <__aeabi_fadd+0xac>
 80008ce:	2cff      	cmp	r4, #255	; 0xff
 80008d0:	d000      	beq.n	80008d4 <__aeabi_fadd+0x200>
 80008d2:	e74a      	b.n	800076a <__aeabi_fadd+0x96>
 80008d4:	e7a7      	b.n	8000826 <__aeabi_fadd+0x152>
 80008d6:	1b5e      	subs	r6, r3, r5
 80008d8:	4689      	mov	r9, r1
 80008da:	e776      	b.n	80007ca <__aeabi_fadd+0xf6>
 80008dc:	2d00      	cmp	r5, #0
 80008de:	d11c      	bne.n	800091a <__aeabi_fadd+0x246>
 80008e0:	000a      	movs	r2, r1
 80008e2:	28ff      	cmp	r0, #255	; 0xff
 80008e4:	d01f      	beq.n	8000926 <__aeabi_fadd+0x252>
 80008e6:	0004      	movs	r4, r0
 80008e8:	001d      	movs	r5, r3
 80008ea:	e711      	b.n	8000710 <__aeabi_fadd+0x3c>
 80008ec:	2d00      	cmp	r5, #0
 80008ee:	d15d      	bne.n	80009ac <__aeabi_fadd+0x2d8>
 80008f0:	2b00      	cmp	r3, #0
 80008f2:	d117      	bne.n	8000924 <__aeabi_fadd+0x250>
 80008f4:	2380      	movs	r3, #128	; 0x80
 80008f6:	2200      	movs	r2, #0
 80008f8:	03db      	lsls	r3, r3, #15
 80008fa:	26ff      	movs	r6, #255	; 0xff
 80008fc:	e70f      	b.n	800071e <__aeabi_fadd+0x4a>
 80008fe:	000a      	movs	r2, r1
 8000900:	26ff      	movs	r6, #255	; 0xff
 8000902:	2300      	movs	r3, #0
 8000904:	e70b      	b.n	800071e <__aeabi_fadd+0x4a>
 8000906:	2c00      	cmp	r4, #0
 8000908:	d121      	bne.n	800094e <__aeabi_fadd+0x27a>
 800090a:	2d00      	cmp	r5, #0
 800090c:	d166      	bne.n	80009dc <__aeabi_fadd+0x308>
 800090e:	28ff      	cmp	r0, #255	; 0xff
 8000910:	d1e9      	bne.n	80008e6 <__aeabi_fadd+0x212>
 8000912:	001d      	movs	r5, r3
 8000914:	e787      	b.n	8000826 <__aeabi_fadd+0x152>
 8000916:	2301      	movs	r3, #1
 8000918:	e752      	b.n	80007c0 <__aeabi_fadd+0xec>
 800091a:	1c7a      	adds	r2, r7, #1
 800091c:	d0a7      	beq.n	800086e <__aeabi_fadd+0x19a>
 800091e:	43fa      	mvns	r2, r7
 8000920:	28ff      	cmp	r0, #255	; 0xff
 8000922:	d199      	bne.n	8000858 <__aeabi_fadd+0x184>
 8000924:	000a      	movs	r2, r1
 8000926:	001d      	movs	r5, r3
 8000928:	24ff      	movs	r4, #255	; 0xff
 800092a:	e6f1      	b.n	8000710 <__aeabi_fadd+0x3c>
 800092c:	2e00      	cmp	r6, #0
 800092e:	d121      	bne.n	8000974 <__aeabi_fadd+0x2a0>
 8000930:	2d00      	cmp	r5, #0
 8000932:	d04f      	beq.n	80009d4 <__aeabi_fadd+0x300>
 8000934:	2b00      	cmp	r3, #0
 8000936:	d04c      	beq.n	80009d2 <__aeabi_fadd+0x2fe>
 8000938:	18ed      	adds	r5, r5, r3
 800093a:	016b      	lsls	r3, r5, #5
 800093c:	d59e      	bpl.n	800087c <__aeabi_fadd+0x1a8>
 800093e:	4b31      	ldr	r3, [pc, #196]	; (8000a04 <__aeabi_fadd+0x330>)
 8000940:	3607      	adds	r6, #7
 8000942:	402e      	ands	r6, r5
 8000944:	2401      	movs	r4, #1
 8000946:	401d      	ands	r5, r3
 8000948:	e754      	b.n	80007f4 <__aeabi_fadd+0x120>
 800094a:	2301      	movs	r3, #1
 800094c:	e718      	b.n	8000780 <__aeabi_fadd+0xac>
 800094e:	28ff      	cmp	r0, #255	; 0xff
 8000950:	d0df      	beq.n	8000912 <__aeabi_fadd+0x23e>
 8000952:	2480      	movs	r4, #128	; 0x80
 8000954:	04e4      	lsls	r4, r4, #19
 8000956:	427f      	negs	r7, r7
 8000958:	4325      	orrs	r5, r4
 800095a:	2f1b      	cmp	r7, #27
 800095c:	dc4d      	bgt.n	80009fa <__aeabi_fadd+0x326>
 800095e:	2620      	movs	r6, #32
 8000960:	1bf6      	subs	r6, r6, r7
 8000962:	002c      	movs	r4, r5
 8000964:	40b5      	lsls	r5, r6
 8000966:	40fc      	lsrs	r4, r7
 8000968:	1e6a      	subs	r2, r5, #1
 800096a:	4195      	sbcs	r5, r2
 800096c:	4325      	orrs	r5, r4
 800096e:	18ed      	adds	r5, r5, r3
 8000970:	0004      	movs	r4, r0
 8000972:	e706      	b.n	8000782 <__aeabi_fadd+0xae>
 8000974:	2d00      	cmp	r5, #0
 8000976:	d0cc      	beq.n	8000912 <__aeabi_fadd+0x23e>
 8000978:	2b00      	cmp	r3, #0
 800097a:	d100      	bne.n	800097e <__aeabi_fadd+0x2aa>
 800097c:	e753      	b.n	8000826 <__aeabi_fadd+0x152>
 800097e:	2180      	movs	r1, #128	; 0x80
 8000980:	4660      	mov	r0, ip
 8000982:	03c9      	lsls	r1, r1, #15
 8000984:	4208      	tst	r0, r1
 8000986:	d003      	beq.n	8000990 <__aeabi_fadd+0x2bc>
 8000988:	4640      	mov	r0, r8
 800098a:	4208      	tst	r0, r1
 800098c:	d100      	bne.n	8000990 <__aeabi_fadd+0x2bc>
 800098e:	001d      	movs	r5, r3
 8000990:	2101      	movs	r1, #1
 8000992:	4011      	ands	r1, r2
 8000994:	e747      	b.n	8000826 <__aeabi_fadd+0x152>
 8000996:	2b00      	cmp	r3, #0
 8000998:	d100      	bne.n	800099c <__aeabi_fadd+0x2c8>
 800099a:	e6b9      	b.n	8000710 <__aeabi_fadd+0x3c>
 800099c:	1aea      	subs	r2, r5, r3
 800099e:	0150      	lsls	r0, r2, #5
 80009a0:	d525      	bpl.n	80009ee <__aeabi_fadd+0x31a>
 80009a2:	2607      	movs	r6, #7
 80009a4:	1b5d      	subs	r5, r3, r5
 80009a6:	402e      	ands	r6, r5
 80009a8:	4689      	mov	r9, r1
 80009aa:	e723      	b.n	80007f4 <__aeabi_fadd+0x120>
 80009ac:	24ff      	movs	r4, #255	; 0xff
 80009ae:	2b00      	cmp	r3, #0
 80009b0:	d100      	bne.n	80009b4 <__aeabi_fadd+0x2e0>
 80009b2:	e6ad      	b.n	8000710 <__aeabi_fadd+0x3c>
 80009b4:	2280      	movs	r2, #128	; 0x80
 80009b6:	4660      	mov	r0, ip
 80009b8:	03d2      	lsls	r2, r2, #15
 80009ba:	4210      	tst	r0, r2
 80009bc:	d004      	beq.n	80009c8 <__aeabi_fadd+0x2f4>
 80009be:	4640      	mov	r0, r8
 80009c0:	4210      	tst	r0, r2
 80009c2:	d101      	bne.n	80009c8 <__aeabi_fadd+0x2f4>
 80009c4:	001d      	movs	r5, r3
 80009c6:	4689      	mov	r9, r1
 80009c8:	2201      	movs	r2, #1
 80009ca:	464b      	mov	r3, r9
 80009cc:	24ff      	movs	r4, #255	; 0xff
 80009ce:	401a      	ands	r2, r3
 80009d0:	e69e      	b.n	8000710 <__aeabi_fadd+0x3c>
 80009d2:	002b      	movs	r3, r5
 80009d4:	08dd      	lsrs	r5, r3, #3
 80009d6:	000a      	movs	r2, r1
 80009d8:	2400      	movs	r4, #0
 80009da:	e69d      	b.n	8000718 <__aeabi_fadd+0x44>
 80009dc:	1c7a      	adds	r2, r7, #1
 80009de:	d0c6      	beq.n	800096e <__aeabi_fadd+0x29a>
 80009e0:	43ff      	mvns	r7, r7
 80009e2:	28ff      	cmp	r0, #255	; 0xff
 80009e4:	d1b9      	bne.n	800095a <__aeabi_fadd+0x286>
 80009e6:	001d      	movs	r5, r3
 80009e8:	e71d      	b.n	8000826 <__aeabi_fadd+0x152>
 80009ea:	2501      	movs	r5, #1
 80009ec:	e73f      	b.n	800086e <__aeabi_fadd+0x19a>
 80009ee:	1e15      	subs	r5, r2, #0
 80009f0:	d000      	beq.n	80009f4 <__aeabi_fadd+0x320>
 80009f2:	e744      	b.n	800087e <__aeabi_fadd+0x1aa>
 80009f4:	2200      	movs	r2, #0
 80009f6:	2300      	movs	r3, #0
 80009f8:	e691      	b.n	800071e <__aeabi_fadd+0x4a>
 80009fa:	2501      	movs	r5, #1
 80009fc:	e7b7      	b.n	800096e <__aeabi_fadd+0x29a>
 80009fe:	46c0      	nop			; (mov r8, r8)
 8000a00:	7dffffff 	.word	0x7dffffff
 8000a04:	fbffffff 	.word	0xfbffffff

08000a08 <__aeabi_fdiv>:
 8000a08:	b5f8      	push	{r3, r4, r5, r6, r7, lr}
 8000a0a:	4657      	mov	r7, sl
 8000a0c:	464e      	mov	r6, r9
 8000a0e:	4645      	mov	r5, r8
 8000a10:	46de      	mov	lr, fp
 8000a12:	0244      	lsls	r4, r0, #9
 8000a14:	b5e0      	push	{r5, r6, r7, lr}
 8000a16:	0046      	lsls	r6, r0, #1
 8000a18:	4688      	mov	r8, r1
 8000a1a:	0a64      	lsrs	r4, r4, #9
 8000a1c:	0e36      	lsrs	r6, r6, #24
 8000a1e:	0fc7      	lsrs	r7, r0, #31
 8000a20:	2e00      	cmp	r6, #0
 8000a22:	d063      	beq.n	8000aec <__aeabi_fdiv+0xe4>
 8000a24:	2eff      	cmp	r6, #255	; 0xff
 8000a26:	d024      	beq.n	8000a72 <__aeabi_fdiv+0x6a>
 8000a28:	2380      	movs	r3, #128	; 0x80
 8000a2a:	00e4      	lsls	r4, r4, #3
 8000a2c:	04db      	lsls	r3, r3, #19
 8000a2e:	431c      	orrs	r4, r3
 8000a30:	2300      	movs	r3, #0
 8000a32:	4699      	mov	r9, r3
 8000a34:	469b      	mov	fp, r3
 8000a36:	3e7f      	subs	r6, #127	; 0x7f
 8000a38:	4643      	mov	r3, r8
 8000a3a:	4642      	mov	r2, r8
 8000a3c:	025d      	lsls	r5, r3, #9
 8000a3e:	0fd2      	lsrs	r2, r2, #31
 8000a40:	005b      	lsls	r3, r3, #1
 8000a42:	0a6d      	lsrs	r5, r5, #9
 8000a44:	0e1b      	lsrs	r3, r3, #24
 8000a46:	4690      	mov	r8, r2
 8000a48:	4692      	mov	sl, r2
 8000a4a:	d065      	beq.n	8000b18 <__aeabi_fdiv+0x110>
 8000a4c:	2bff      	cmp	r3, #255	; 0xff
 8000a4e:	d055      	beq.n	8000afc <__aeabi_fdiv+0xf4>
 8000a50:	2280      	movs	r2, #128	; 0x80
 8000a52:	2100      	movs	r1, #0
 8000a54:	00ed      	lsls	r5, r5, #3
 8000a56:	04d2      	lsls	r2, r2, #19
 8000a58:	3b7f      	subs	r3, #127	; 0x7f
 8000a5a:	4315      	orrs	r5, r2
 8000a5c:	1af6      	subs	r6, r6, r3
 8000a5e:	4643      	mov	r3, r8
 8000a60:	464a      	mov	r2, r9
 8000a62:	407b      	eors	r3, r7
 8000a64:	2a0f      	cmp	r2, #15
 8000a66:	d900      	bls.n	8000a6a <__aeabi_fdiv+0x62>
 8000a68:	e08d      	b.n	8000b86 <__aeabi_fdiv+0x17e>
 8000a6a:	486d      	ldr	r0, [pc, #436]	; (8000c20 <__aeabi_fdiv+0x218>)
 8000a6c:	0092      	lsls	r2, r2, #2
 8000a6e:	5882      	ldr	r2, [r0, r2]
 8000a70:	4697      	mov	pc, r2
 8000a72:	2c00      	cmp	r4, #0
 8000a74:	d154      	bne.n	8000b20 <__aeabi_fdiv+0x118>
 8000a76:	2308      	movs	r3, #8
 8000a78:	4699      	mov	r9, r3
 8000a7a:	3b06      	subs	r3, #6
 8000a7c:	26ff      	movs	r6, #255	; 0xff
 8000a7e:	469b      	mov	fp, r3
 8000a80:	e7da      	b.n	8000a38 <__aeabi_fdiv+0x30>
 8000a82:	2500      	movs	r5, #0
 8000a84:	4653      	mov	r3, sl
 8000a86:	2902      	cmp	r1, #2
 8000a88:	d01b      	beq.n	8000ac2 <__aeabi_fdiv+0xba>
 8000a8a:	2903      	cmp	r1, #3
 8000a8c:	d100      	bne.n	8000a90 <__aeabi_fdiv+0x88>
 8000a8e:	e0bf      	b.n	8000c10 <__aeabi_fdiv+0x208>
 8000a90:	2901      	cmp	r1, #1
 8000a92:	d028      	beq.n	8000ae6 <__aeabi_fdiv+0xde>
 8000a94:	0030      	movs	r0, r6
 8000a96:	307f      	adds	r0, #127	; 0x7f
 8000a98:	2800      	cmp	r0, #0
 8000a9a:	dd20      	ble.n	8000ade <__aeabi_fdiv+0xd6>
 8000a9c:	076a      	lsls	r2, r5, #29
 8000a9e:	d004      	beq.n	8000aaa <__aeabi_fdiv+0xa2>
 8000aa0:	220f      	movs	r2, #15
 8000aa2:	402a      	ands	r2, r5
 8000aa4:	2a04      	cmp	r2, #4
 8000aa6:	d000      	beq.n	8000aaa <__aeabi_fdiv+0xa2>
 8000aa8:	3504      	adds	r5, #4
 8000aaa:	012a      	lsls	r2, r5, #4
 8000aac:	d503      	bpl.n	8000ab6 <__aeabi_fdiv+0xae>
 8000aae:	0030      	movs	r0, r6
 8000ab0:	4a5c      	ldr	r2, [pc, #368]	; (8000c24 <__aeabi_fdiv+0x21c>)
 8000ab2:	3080      	adds	r0, #128	; 0x80
 8000ab4:	4015      	ands	r5, r2
 8000ab6:	28fe      	cmp	r0, #254	; 0xfe
 8000ab8:	dc03      	bgt.n	8000ac2 <__aeabi_fdiv+0xba>
 8000aba:	01ac      	lsls	r4, r5, #6
 8000abc:	0a64      	lsrs	r4, r4, #9
 8000abe:	b2c2      	uxtb	r2, r0
 8000ac0:	e001      	b.n	8000ac6 <__aeabi_fdiv+0xbe>
 8000ac2:	22ff      	movs	r2, #255	; 0xff
 8000ac4:	2400      	movs	r4, #0
 8000ac6:	0264      	lsls	r4, r4, #9
 8000ac8:	05d2      	lsls	r2, r2, #23
 8000aca:	0a60      	lsrs	r0, r4, #9
 8000acc:	07db      	lsls	r3, r3, #31
 8000ace:	4310      	orrs	r0, r2
 8000ad0:	4318      	orrs	r0, r3
 8000ad2:	bc3c      	pop	{r2, r3, r4, r5}
 8000ad4:	4690      	mov	r8, r2
 8000ad6:	4699      	mov	r9, r3
 8000ad8:	46a2      	mov	sl, r4
 8000ada:	46ab      	mov	fp, r5
 8000adc:	bdf8      	pop	{r3, r4, r5, r6, r7, pc}
 8000ade:	2201      	movs	r2, #1
 8000ae0:	1a10      	subs	r0, r2, r0
 8000ae2:	281b      	cmp	r0, #27
 8000ae4:	dd7c      	ble.n	8000be0 <__aeabi_fdiv+0x1d8>
 8000ae6:	2200      	movs	r2, #0
 8000ae8:	2400      	movs	r4, #0
 8000aea:	e7ec      	b.n	8000ac6 <__aeabi_fdiv+0xbe>
 8000aec:	2c00      	cmp	r4, #0
 8000aee:	d11d      	bne.n	8000b2c <__aeabi_fdiv+0x124>
 8000af0:	2304      	movs	r3, #4
 8000af2:	4699      	mov	r9, r3
 8000af4:	3b03      	subs	r3, #3
 8000af6:	2600      	movs	r6, #0
 8000af8:	469b      	mov	fp, r3
 8000afa:	e79d      	b.n	8000a38 <__aeabi_fdiv+0x30>
 8000afc:	3eff      	subs	r6, #255	; 0xff
 8000afe:	2d00      	cmp	r5, #0
 8000b00:	d120      	bne.n	8000b44 <__aeabi_fdiv+0x13c>
 8000b02:	2102      	movs	r1, #2
 8000b04:	4643      	mov	r3, r8
 8000b06:	464a      	mov	r2, r9
 8000b08:	407b      	eors	r3, r7
 8000b0a:	430a      	orrs	r2, r1
 8000b0c:	2a0f      	cmp	r2, #15
 8000b0e:	d8d8      	bhi.n	8000ac2 <__aeabi_fdiv+0xba>
 8000b10:	4845      	ldr	r0, [pc, #276]	; (8000c28 <__aeabi_fdiv+0x220>)
 8000b12:	0092      	lsls	r2, r2, #2
 8000b14:	5882      	ldr	r2, [r0, r2]
 8000b16:	4697      	mov	pc, r2
 8000b18:	2d00      	cmp	r5, #0
 8000b1a:	d119      	bne.n	8000b50 <__aeabi_fdiv+0x148>
 8000b1c:	2101      	movs	r1, #1
 8000b1e:	e7f1      	b.n	8000b04 <__aeabi_fdiv+0xfc>
 8000b20:	230c      	movs	r3, #12
 8000b22:	4699      	mov	r9, r3
 8000b24:	3b09      	subs	r3, #9
 8000b26:	26ff      	movs	r6, #255	; 0xff
 8000b28:	469b      	mov	fp, r3
 8000b2a:	e785      	b.n	8000a38 <__aeabi_fdiv+0x30>
 8000b2c:	0020      	movs	r0, r4
 8000b2e:	f000 fdb9 	bl	80016a4 <__clzsi2>
 8000b32:	2676      	movs	r6, #118	; 0x76
 8000b34:	1f43      	subs	r3, r0, #5
 8000b36:	409c      	lsls	r4, r3
 8000b38:	2300      	movs	r3, #0
 8000b3a:	4276      	negs	r6, r6
 8000b3c:	1a36      	subs	r6, r6, r0
 8000b3e:	4699      	mov	r9, r3
 8000b40:	469b      	mov	fp, r3
 8000b42:	e779      	b.n	8000a38 <__aeabi_fdiv+0x30>
 8000b44:	464a      	mov	r2, r9
 8000b46:	2303      	movs	r3, #3
 8000b48:	431a      	orrs	r2, r3
 8000b4a:	4691      	mov	r9, r2
 8000b4c:	2103      	movs	r1, #3
 8000b4e:	e786      	b.n	8000a5e <__aeabi_fdiv+0x56>
 8000b50:	0028      	movs	r0, r5
 8000b52:	f000 fda7 	bl	80016a4 <__clzsi2>
 8000b56:	1f43      	subs	r3, r0, #5
 8000b58:	1836      	adds	r6, r6, r0
 8000b5a:	409d      	lsls	r5, r3
 8000b5c:	3676      	adds	r6, #118	; 0x76
 8000b5e:	2100      	movs	r1, #0
 8000b60:	e77d      	b.n	8000a5e <__aeabi_fdiv+0x56>
 8000b62:	2480      	movs	r4, #128	; 0x80
 8000b64:	2300      	movs	r3, #0
 8000b66:	03e4      	lsls	r4, r4, #15
 8000b68:	22ff      	movs	r2, #255	; 0xff
 8000b6a:	e7ac      	b.n	8000ac6 <__aeabi_fdiv+0xbe>
 8000b6c:	2500      	movs	r5, #0
 8000b6e:	2380      	movs	r3, #128	; 0x80
 8000b70:	03db      	lsls	r3, r3, #15
 8000b72:	421c      	tst	r4, r3
 8000b74:	d028      	beq.n	8000bc8 <__aeabi_fdiv+0x1c0>
 8000b76:	421d      	tst	r5, r3
 8000b78:	d126      	bne.n	8000bc8 <__aeabi_fdiv+0x1c0>
 8000b7a:	432b      	orrs	r3, r5
 8000b7c:	025c      	lsls	r4, r3, #9
 8000b7e:	0a64      	lsrs	r4, r4, #9
 8000b80:	4643      	mov	r3, r8
 8000b82:	22ff      	movs	r2, #255	; 0xff
 8000b84:	e79f      	b.n	8000ac6 <__aeabi_fdiv+0xbe>
 8000b86:	0162      	lsls	r2, r4, #5
 8000b88:	016c      	lsls	r4, r5, #5
 8000b8a:	42a2      	cmp	r2, r4
 8000b8c:	d224      	bcs.n	8000bd8 <__aeabi_fdiv+0x1d0>
 8000b8e:	211b      	movs	r1, #27
 8000b90:	2500      	movs	r5, #0
 8000b92:	3e01      	subs	r6, #1
 8000b94:	2701      	movs	r7, #1
 8000b96:	0010      	movs	r0, r2
 8000b98:	006d      	lsls	r5, r5, #1
 8000b9a:	0052      	lsls	r2, r2, #1
 8000b9c:	2800      	cmp	r0, #0
 8000b9e:	db01      	blt.n	8000ba4 <__aeabi_fdiv+0x19c>
 8000ba0:	4294      	cmp	r4, r2
 8000ba2:	d801      	bhi.n	8000ba8 <__aeabi_fdiv+0x1a0>
 8000ba4:	1b12      	subs	r2, r2, r4
 8000ba6:	433d      	orrs	r5, r7
 8000ba8:	3901      	subs	r1, #1
 8000baa:	2900      	cmp	r1, #0
 8000bac:	d1f3      	bne.n	8000b96 <__aeabi_fdiv+0x18e>
 8000bae:	0014      	movs	r4, r2
 8000bb0:	1e62      	subs	r2, r4, #1
 8000bb2:	4194      	sbcs	r4, r2
 8000bb4:	4325      	orrs	r5, r4
 8000bb6:	e76d      	b.n	8000a94 <__aeabi_fdiv+0x8c>
 8000bb8:	46ba      	mov	sl, r7
 8000bba:	4659      	mov	r1, fp
 8000bbc:	0025      	movs	r5, r4
 8000bbe:	4653      	mov	r3, sl
 8000bc0:	2902      	cmp	r1, #2
 8000bc2:	d000      	beq.n	8000bc6 <__aeabi_fdiv+0x1be>
 8000bc4:	e761      	b.n	8000a8a <__aeabi_fdiv+0x82>
 8000bc6:	e77c      	b.n	8000ac2 <__aeabi_fdiv+0xba>
 8000bc8:	2380      	movs	r3, #128	; 0x80
 8000bca:	03db      	lsls	r3, r3, #15
 8000bcc:	431c      	orrs	r4, r3
 8000bce:	0264      	lsls	r4, r4, #9
 8000bd0:	0a64      	lsrs	r4, r4, #9
 8000bd2:	003b      	movs	r3, r7
 8000bd4:	22ff      	movs	r2, #255	; 0xff
 8000bd6:	e776      	b.n	8000ac6 <__aeabi_fdiv+0xbe>
 8000bd8:	1b12      	subs	r2, r2, r4
 8000bda:	211a      	movs	r1, #26
 8000bdc:	2501      	movs	r5, #1
 8000bde:	e7d9      	b.n	8000b94 <__aeabi_fdiv+0x18c>
 8000be0:	369e      	adds	r6, #158	; 0x9e
 8000be2:	002a      	movs	r2, r5
 8000be4:	40b5      	lsls	r5, r6
 8000be6:	002c      	movs	r4, r5
 8000be8:	40c2      	lsrs	r2, r0
 8000bea:	1e65      	subs	r5, r4, #1
 8000bec:	41ac      	sbcs	r4, r5
 8000bee:	4314      	orrs	r4, r2
 8000bf0:	0762      	lsls	r2, r4, #29
 8000bf2:	d004      	beq.n	8000bfe <__aeabi_fdiv+0x1f6>
 8000bf4:	220f      	movs	r2, #15
 8000bf6:	4022      	ands	r2, r4
 8000bf8:	2a04      	cmp	r2, #4
 8000bfa:	d000      	beq.n	8000bfe <__aeabi_fdiv+0x1f6>
 8000bfc:	3404      	adds	r4, #4
 8000bfe:	0162      	lsls	r2, r4, #5
 8000c00:	d403      	bmi.n	8000c0a <__aeabi_fdiv+0x202>
 8000c02:	01a4      	lsls	r4, r4, #6
 8000c04:	0a64      	lsrs	r4, r4, #9
 8000c06:	2200      	movs	r2, #0
 8000c08:	e75d      	b.n	8000ac6 <__aeabi_fdiv+0xbe>
 8000c0a:	2201      	movs	r2, #1
 8000c0c:	2400      	movs	r4, #0
 8000c0e:	e75a      	b.n	8000ac6 <__aeabi_fdiv+0xbe>
 8000c10:	2480      	movs	r4, #128	; 0x80
 8000c12:	03e4      	lsls	r4, r4, #15
 8000c14:	432c      	orrs	r4, r5
 8000c16:	0264      	lsls	r4, r4, #9
 8000c18:	0a64      	lsrs	r4, r4, #9
 8000c1a:	22ff      	movs	r2, #255	; 0xff
 8000c1c:	e753      	b.n	8000ac6 <__aeabi_fdiv+0xbe>
 8000c1e:	46c0      	nop			; (mov r8, r8)
 8000c20:	0800b514 	.word	0x0800b514
 8000c24:	f7ffffff 	.word	0xf7ffffff
 8000c28:	0800b554 	.word	0x0800b554

08000c2c <__eqsf2>:
 8000c2c:	b570      	push	{r4, r5, r6, lr}
 8000c2e:	0042      	lsls	r2, r0, #1
 8000c30:	024e      	lsls	r6, r1, #9
 8000c32:	004c      	lsls	r4, r1, #1
 8000c34:	0245      	lsls	r5, r0, #9
 8000c36:	0a6d      	lsrs	r5, r5, #9
 8000c38:	0e12      	lsrs	r2, r2, #24
 8000c3a:	0fc3      	lsrs	r3, r0, #31
 8000c3c:	0a76      	lsrs	r6, r6, #9
 8000c3e:	0e24      	lsrs	r4, r4, #24
 8000c40:	0fc9      	lsrs	r1, r1, #31
 8000c42:	2aff      	cmp	r2, #255	; 0xff
 8000c44:	d00f      	beq.n	8000c66 <__eqsf2+0x3a>
 8000c46:	2cff      	cmp	r4, #255	; 0xff
 8000c48:	d011      	beq.n	8000c6e <__eqsf2+0x42>
 8000c4a:	2001      	movs	r0, #1
 8000c4c:	42a2      	cmp	r2, r4
 8000c4e:	d000      	beq.n	8000c52 <__eqsf2+0x26>
 8000c50:	bd70      	pop	{r4, r5, r6, pc}
 8000c52:	42b5      	cmp	r5, r6
 8000c54:	d1fc      	bne.n	8000c50 <__eqsf2+0x24>
 8000c56:	428b      	cmp	r3, r1
 8000c58:	d00d      	beq.n	8000c76 <__eqsf2+0x4a>
 8000c5a:	2a00      	cmp	r2, #0
 8000c5c:	d1f8      	bne.n	8000c50 <__eqsf2+0x24>
 8000c5e:	0028      	movs	r0, r5
 8000c60:	1e45      	subs	r5, r0, #1
 8000c62:	41a8      	sbcs	r0, r5
 8000c64:	e7f4      	b.n	8000c50 <__eqsf2+0x24>
 8000c66:	2001      	movs	r0, #1
 8000c68:	2d00      	cmp	r5, #0
 8000c6a:	d1f1      	bne.n	8000c50 <__eqsf2+0x24>
 8000c6c:	e7eb      	b.n	8000c46 <__eqsf2+0x1a>
 8000c6e:	2001      	movs	r0, #1
 8000c70:	2e00      	cmp	r6, #0
 8000c72:	d1ed      	bne.n	8000c50 <__eqsf2+0x24>
 8000c74:	e7e9      	b.n	8000c4a <__eqsf2+0x1e>
 8000c76:	2000      	movs	r0, #0
 8000c78:	e7ea      	b.n	8000c50 <__eqsf2+0x24>
 8000c7a:	46c0      	nop			; (mov r8, r8)

08000c7c <__gesf2>:
 8000c7c:	b570      	push	{r4, r5, r6, lr}
 8000c7e:	004a      	lsls	r2, r1, #1
 8000c80:	024e      	lsls	r6, r1, #9
 8000c82:	0245      	lsls	r5, r0, #9
 8000c84:	0044      	lsls	r4, r0, #1
 8000c86:	0a6d      	lsrs	r5, r5, #9
 8000c88:	0e24      	lsrs	r4, r4, #24
 8000c8a:	0fc3      	lsrs	r3, r0, #31
 8000c8c:	0a76      	lsrs	r6, r6, #9
 8000c8e:	0e12      	lsrs	r2, r2, #24
 8000c90:	0fc9      	lsrs	r1, r1, #31
 8000c92:	2cff      	cmp	r4, #255	; 0xff
 8000c94:	d015      	beq.n	8000cc2 <__gesf2+0x46>
 8000c96:	2aff      	cmp	r2, #255	; 0xff
 8000c98:	d00e      	beq.n	8000cb8 <__gesf2+0x3c>
 8000c9a:	2c00      	cmp	r4, #0
 8000c9c:	d115      	bne.n	8000cca <__gesf2+0x4e>
 8000c9e:	2a00      	cmp	r2, #0
 8000ca0:	d101      	bne.n	8000ca6 <__gesf2+0x2a>
 8000ca2:	2e00      	cmp	r6, #0
 8000ca4:	d01c      	beq.n	8000ce0 <__gesf2+0x64>
 8000ca6:	2d00      	cmp	r5, #0
 8000ca8:	d014      	beq.n	8000cd4 <__gesf2+0x58>
 8000caa:	428b      	cmp	r3, r1
 8000cac:	d027      	beq.n	8000cfe <__gesf2+0x82>
 8000cae:	2002      	movs	r0, #2
 8000cb0:	3b01      	subs	r3, #1
 8000cb2:	4018      	ands	r0, r3
 8000cb4:	3801      	subs	r0, #1
 8000cb6:	bd70      	pop	{r4, r5, r6, pc}
 8000cb8:	2e00      	cmp	r6, #0
 8000cba:	d0ee      	beq.n	8000c9a <__gesf2+0x1e>
 8000cbc:	2002      	movs	r0, #2
 8000cbe:	4240      	negs	r0, r0
 8000cc0:	e7f9      	b.n	8000cb6 <__gesf2+0x3a>
 8000cc2:	2d00      	cmp	r5, #0
 8000cc4:	d1fa      	bne.n	8000cbc <__gesf2+0x40>
 8000cc6:	2aff      	cmp	r2, #255	; 0xff
 8000cc8:	d00e      	beq.n	8000ce8 <__gesf2+0x6c>
 8000cca:	2a00      	cmp	r2, #0
 8000ccc:	d10e      	bne.n	8000cec <__gesf2+0x70>
 8000cce:	2e00      	cmp	r6, #0
 8000cd0:	d0ed      	beq.n	8000cae <__gesf2+0x32>
 8000cd2:	e00b      	b.n	8000cec <__gesf2+0x70>
 8000cd4:	2301      	movs	r3, #1
 8000cd6:	3901      	subs	r1, #1
 8000cd8:	4399      	bics	r1, r3
 8000cda:	0008      	movs	r0, r1
 8000cdc:	3001      	adds	r0, #1
 8000cde:	e7ea      	b.n	8000cb6 <__gesf2+0x3a>
 8000ce0:	2000      	movs	r0, #0
 8000ce2:	2d00      	cmp	r5, #0
 8000ce4:	d0e7      	beq.n	8000cb6 <__gesf2+0x3a>
 8000ce6:	e7e2      	b.n	8000cae <__gesf2+0x32>
 8000ce8:	2e00      	cmp	r6, #0
 8000cea:	d1e7      	bne.n	8000cbc <__gesf2+0x40>
 8000cec:	428b      	cmp	r3, r1
 8000cee:	d1de      	bne.n	8000cae <__gesf2+0x32>
 8000cf0:	4294      	cmp	r4, r2
 8000cf2:	dd05      	ble.n	8000d00 <__gesf2+0x84>
 8000cf4:	2102      	movs	r1, #2
 8000cf6:	1e58      	subs	r0, r3, #1
 8000cf8:	4008      	ands	r0, r1
 8000cfa:	3801      	subs	r0, #1
 8000cfc:	e7db      	b.n	8000cb6 <__gesf2+0x3a>
 8000cfe:	2400      	movs	r4, #0
 8000d00:	42a2      	cmp	r2, r4
 8000d02:	dc04      	bgt.n	8000d0e <__gesf2+0x92>
 8000d04:	42b5      	cmp	r5, r6
 8000d06:	d8d2      	bhi.n	8000cae <__gesf2+0x32>
 8000d08:	2000      	movs	r0, #0
 8000d0a:	42b5      	cmp	r5, r6
 8000d0c:	d2d3      	bcs.n	8000cb6 <__gesf2+0x3a>
 8000d0e:	1e58      	subs	r0, r3, #1
 8000d10:	2301      	movs	r3, #1
 8000d12:	4398      	bics	r0, r3
 8000d14:	3001      	adds	r0, #1
 8000d16:	e7ce      	b.n	8000cb6 <__gesf2+0x3a>

08000d18 <__lesf2>:
 8000d18:	b530      	push	{r4, r5, lr}
 8000d1a:	0042      	lsls	r2, r0, #1
 8000d1c:	0244      	lsls	r4, r0, #9
 8000d1e:	024d      	lsls	r5, r1, #9
 8000d20:	0fc3      	lsrs	r3, r0, #31
 8000d22:	0048      	lsls	r0, r1, #1
 8000d24:	0a64      	lsrs	r4, r4, #9
 8000d26:	0e12      	lsrs	r2, r2, #24
 8000d28:	0a6d      	lsrs	r5, r5, #9
 8000d2a:	0e00      	lsrs	r0, r0, #24
 8000d2c:	0fc9      	lsrs	r1, r1, #31
 8000d2e:	2aff      	cmp	r2, #255	; 0xff
 8000d30:	d012      	beq.n	8000d58 <__lesf2+0x40>
 8000d32:	28ff      	cmp	r0, #255	; 0xff
 8000d34:	d00c      	beq.n	8000d50 <__lesf2+0x38>
 8000d36:	2a00      	cmp	r2, #0
 8000d38:	d112      	bne.n	8000d60 <__lesf2+0x48>
 8000d3a:	2800      	cmp	r0, #0
 8000d3c:	d119      	bne.n	8000d72 <__lesf2+0x5a>
 8000d3e:	2d00      	cmp	r5, #0
 8000d40:	d117      	bne.n	8000d72 <__lesf2+0x5a>
 8000d42:	2c00      	cmp	r4, #0
 8000d44:	d02b      	beq.n	8000d9e <__lesf2+0x86>
 8000d46:	2002      	movs	r0, #2
 8000d48:	3b01      	subs	r3, #1
 8000d4a:	4018      	ands	r0, r3
 8000d4c:	3801      	subs	r0, #1
 8000d4e:	e026      	b.n	8000d9e <__lesf2+0x86>
 8000d50:	2d00      	cmp	r5, #0
 8000d52:	d0f0      	beq.n	8000d36 <__lesf2+0x1e>
 8000d54:	2002      	movs	r0, #2
 8000d56:	e022      	b.n	8000d9e <__lesf2+0x86>
 8000d58:	2c00      	cmp	r4, #0
 8000d5a:	d1fb      	bne.n	8000d54 <__lesf2+0x3c>
 8000d5c:	28ff      	cmp	r0, #255	; 0xff
 8000d5e:	d01f      	beq.n	8000da0 <__lesf2+0x88>
 8000d60:	2800      	cmp	r0, #0
 8000d62:	d11f      	bne.n	8000da4 <__lesf2+0x8c>
 8000d64:	2d00      	cmp	r5, #0
 8000d66:	d11d      	bne.n	8000da4 <__lesf2+0x8c>
 8000d68:	2002      	movs	r0, #2
 8000d6a:	3b01      	subs	r3, #1
 8000d6c:	4018      	ands	r0, r3
 8000d6e:	3801      	subs	r0, #1
 8000d70:	e015      	b.n	8000d9e <__lesf2+0x86>
 8000d72:	2c00      	cmp	r4, #0
 8000d74:	d00e      	beq.n	8000d94 <__lesf2+0x7c>
 8000d76:	428b      	cmp	r3, r1
 8000d78:	d1e5      	bne.n	8000d46 <__lesf2+0x2e>
 8000d7a:	2200      	movs	r2, #0
 8000d7c:	4290      	cmp	r0, r2
 8000d7e:	dc04      	bgt.n	8000d8a <__lesf2+0x72>
 8000d80:	42ac      	cmp	r4, r5
 8000d82:	d8e0      	bhi.n	8000d46 <__lesf2+0x2e>
 8000d84:	2000      	movs	r0, #0
 8000d86:	42ac      	cmp	r4, r5
 8000d88:	d209      	bcs.n	8000d9e <__lesf2+0x86>
 8000d8a:	1e58      	subs	r0, r3, #1
 8000d8c:	2301      	movs	r3, #1
 8000d8e:	4398      	bics	r0, r3
 8000d90:	3001      	adds	r0, #1
 8000d92:	e004      	b.n	8000d9e <__lesf2+0x86>
 8000d94:	2301      	movs	r3, #1
 8000d96:	3901      	subs	r1, #1
 8000d98:	4399      	bics	r1, r3
 8000d9a:	0008      	movs	r0, r1
 8000d9c:	3001      	adds	r0, #1
 8000d9e:	bd30      	pop	{r4, r5, pc}
 8000da0:	2d00      	cmp	r5, #0
 8000da2:	d1d7      	bne.n	8000d54 <__lesf2+0x3c>
 8000da4:	428b      	cmp	r3, r1
 8000da6:	d1ce      	bne.n	8000d46 <__lesf2+0x2e>
 8000da8:	4282      	cmp	r2, r0
 8000daa:	dde7      	ble.n	8000d7c <__lesf2+0x64>
 8000dac:	2102      	movs	r1, #2
 8000dae:	1e58      	subs	r0, r3, #1
 8000db0:	4008      	ands	r0, r1
 8000db2:	3801      	subs	r0, #1
 8000db4:	e7f3      	b.n	8000d9e <__lesf2+0x86>
 8000db6:	46c0      	nop			; (mov r8, r8)

08000db8 <__aeabi_fmul>:
 8000db8:	b5f0      	push	{r4, r5, r6, r7, lr}
 8000dba:	464e      	mov	r6, r9
 8000dbc:	4657      	mov	r7, sl
 8000dbe:	4645      	mov	r5, r8
 8000dc0:	46de      	mov	lr, fp
 8000dc2:	b5e0      	push	{r5, r6, r7, lr}
 8000dc4:	0243      	lsls	r3, r0, #9
 8000dc6:	0a5b      	lsrs	r3, r3, #9
 8000dc8:	0045      	lsls	r5, r0, #1
 8000dca:	b083      	sub	sp, #12
 8000dcc:	1c0f      	adds	r7, r1, #0
 8000dce:	4699      	mov	r9, r3
 8000dd0:	0e2d      	lsrs	r5, r5, #24
 8000dd2:	0fc6      	lsrs	r6, r0, #31
 8000dd4:	2d00      	cmp	r5, #0
 8000dd6:	d057      	beq.n	8000e88 <__aeabi_fmul+0xd0>
 8000dd8:	2dff      	cmp	r5, #255	; 0xff
 8000dda:	d024      	beq.n	8000e26 <__aeabi_fmul+0x6e>
 8000ddc:	2080      	movs	r0, #128	; 0x80
 8000dde:	00db      	lsls	r3, r3, #3
 8000de0:	04c0      	lsls	r0, r0, #19
 8000de2:	4318      	orrs	r0, r3
 8000de4:	2300      	movs	r3, #0
 8000de6:	4681      	mov	r9, r0
 8000de8:	469a      	mov	sl, r3
 8000dea:	469b      	mov	fp, r3
 8000dec:	3d7f      	subs	r5, #127	; 0x7f
 8000dee:	027c      	lsls	r4, r7, #9
 8000df0:	007a      	lsls	r2, r7, #1
 8000df2:	0ffb      	lsrs	r3, r7, #31
 8000df4:	0a64      	lsrs	r4, r4, #9
 8000df6:	0e12      	lsrs	r2, r2, #24
 8000df8:	4698      	mov	r8, r3
 8000dfa:	d023      	beq.n	8000e44 <__aeabi_fmul+0x8c>
 8000dfc:	2aff      	cmp	r2, #255	; 0xff
 8000dfe:	d04b      	beq.n	8000e98 <__aeabi_fmul+0xe0>
 8000e00:	00e3      	lsls	r3, r4, #3
 8000e02:	2480      	movs	r4, #128	; 0x80
 8000e04:	2000      	movs	r0, #0
 8000e06:	04e4      	lsls	r4, r4, #19
 8000e08:	3a7f      	subs	r2, #127	; 0x7f
 8000e0a:	431c      	orrs	r4, r3
 8000e0c:	18ad      	adds	r5, r5, r2
 8000e0e:	1c6b      	adds	r3, r5, #1
 8000e10:	4647      	mov	r7, r8
 8000e12:	9301      	str	r3, [sp, #4]
 8000e14:	4653      	mov	r3, sl
 8000e16:	4077      	eors	r7, r6
 8000e18:	003a      	movs	r2, r7
 8000e1a:	2b0f      	cmp	r3, #15
 8000e1c:	d848      	bhi.n	8000eb0 <__aeabi_fmul+0xf8>
 8000e1e:	497d      	ldr	r1, [pc, #500]	; (8001014 <__aeabi_fmul+0x25c>)
 8000e20:	009b      	lsls	r3, r3, #2
 8000e22:	58cb      	ldr	r3, [r1, r3]
 8000e24:	469f      	mov	pc, r3
 8000e26:	2b00      	cmp	r3, #0
 8000e28:	d000      	beq.n	8000e2c <__aeabi_fmul+0x74>
 8000e2a:	e085      	b.n	8000f38 <__aeabi_fmul+0x180>
 8000e2c:	3308      	adds	r3, #8
 8000e2e:	469a      	mov	sl, r3
 8000e30:	3b06      	subs	r3, #6
 8000e32:	469b      	mov	fp, r3
 8000e34:	027c      	lsls	r4, r7, #9
 8000e36:	007a      	lsls	r2, r7, #1
 8000e38:	0ffb      	lsrs	r3, r7, #31
 8000e3a:	25ff      	movs	r5, #255	; 0xff
 8000e3c:	0a64      	lsrs	r4, r4, #9
 8000e3e:	0e12      	lsrs	r2, r2, #24
 8000e40:	4698      	mov	r8, r3
 8000e42:	d1db      	bne.n	8000dfc <__aeabi_fmul+0x44>
 8000e44:	2c00      	cmp	r4, #0
 8000e46:	d000      	beq.n	8000e4a <__aeabi_fmul+0x92>
 8000e48:	e090      	b.n	8000f6c <__aeabi_fmul+0x1b4>
 8000e4a:	4652      	mov	r2, sl
 8000e4c:	2301      	movs	r3, #1
 8000e4e:	431a      	orrs	r2, r3
 8000e50:	4692      	mov	sl, r2
 8000e52:	2001      	movs	r0, #1
 8000e54:	e7db      	b.n	8000e0e <__aeabi_fmul+0x56>
 8000e56:	464c      	mov	r4, r9
 8000e58:	4658      	mov	r0, fp
 8000e5a:	0017      	movs	r7, r2
 8000e5c:	2802      	cmp	r0, #2
 8000e5e:	d024      	beq.n	8000eaa <__aeabi_fmul+0xf2>
 8000e60:	2803      	cmp	r0, #3
 8000e62:	d100      	bne.n	8000e66 <__aeabi_fmul+0xae>
 8000e64:	e0cf      	b.n	8001006 <__aeabi_fmul+0x24e>
 8000e66:	2200      	movs	r2, #0
 8000e68:	2300      	movs	r3, #0
 8000e6a:	2801      	cmp	r0, #1
 8000e6c:	d14d      	bne.n	8000f0a <__aeabi_fmul+0x152>
 8000e6e:	0258      	lsls	r0, r3, #9
 8000e70:	05d2      	lsls	r2, r2, #23
 8000e72:	0a40      	lsrs	r0, r0, #9
 8000e74:	07ff      	lsls	r7, r7, #31
 8000e76:	4310      	orrs	r0, r2
 8000e78:	4338      	orrs	r0, r7
 8000e7a:	b003      	add	sp, #12
 8000e7c:	bc3c      	pop	{r2, r3, r4, r5}
 8000e7e:	4690      	mov	r8, r2
 8000e80:	4699      	mov	r9, r3
 8000e82:	46a2      	mov	sl, r4
 8000e84:	46ab      	mov	fp, r5
 8000e86:	bdf0      	pop	{r4, r5, r6, r7, pc}
 8000e88:	2b00      	cmp	r3, #0
 8000e8a:	d15b      	bne.n	8000f44 <__aeabi_fmul+0x18c>
 8000e8c:	2304      	movs	r3, #4
 8000e8e:	469a      	mov	sl, r3
 8000e90:	3b03      	subs	r3, #3
 8000e92:	2500      	movs	r5, #0
 8000e94:	469b      	mov	fp, r3
 8000e96:	e7aa      	b.n	8000dee <__aeabi_fmul+0x36>
 8000e98:	35ff      	adds	r5, #255	; 0xff
 8000e9a:	2c00      	cmp	r4, #0
 8000e9c:	d160      	bne.n	8000f60 <__aeabi_fmul+0x1a8>
 8000e9e:	4652      	mov	r2, sl
 8000ea0:	2302      	movs	r3, #2
 8000ea2:	431a      	orrs	r2, r3
 8000ea4:	4692      	mov	sl, r2
 8000ea6:	2002      	movs	r0, #2
 8000ea8:	e7b1      	b.n	8000e0e <__aeabi_fmul+0x56>
 8000eaa:	22ff      	movs	r2, #255	; 0xff
 8000eac:	2300      	movs	r3, #0
 8000eae:	e7de      	b.n	8000e6e <__aeabi_fmul+0xb6>
 8000eb0:	464b      	mov	r3, r9
 8000eb2:	0c1b      	lsrs	r3, r3, #16
 8000eb4:	469c      	mov	ip, r3
 8000eb6:	464b      	mov	r3, r9
 8000eb8:	0426      	lsls	r6, r4, #16
 8000eba:	0c36      	lsrs	r6, r6, #16
 8000ebc:	0418      	lsls	r0, r3, #16
 8000ebe:	4661      	mov	r1, ip
 8000ec0:	0033      	movs	r3, r6
 8000ec2:	0c22      	lsrs	r2, r4, #16
 8000ec4:	4664      	mov	r4, ip
 8000ec6:	0c00      	lsrs	r0, r0, #16
 8000ec8:	4343      	muls	r3, r0
 8000eca:	434e      	muls	r6, r1
 8000ecc:	4350      	muls	r0, r2
 8000ece:	4354      	muls	r4, r2
 8000ed0:	1980      	adds	r0, r0, r6
 8000ed2:	0c1a      	lsrs	r2, r3, #16
 8000ed4:	1812      	adds	r2, r2, r0
 8000ed6:	4296      	cmp	r6, r2
 8000ed8:	d903      	bls.n	8000ee2 <__aeabi_fmul+0x12a>
 8000eda:	2180      	movs	r1, #128	; 0x80
 8000edc:	0249      	lsls	r1, r1, #9
 8000ede:	468c      	mov	ip, r1
 8000ee0:	4464      	add	r4, ip
 8000ee2:	041b      	lsls	r3, r3, #16
 8000ee4:	0c1b      	lsrs	r3, r3, #16
 8000ee6:	0410      	lsls	r0, r2, #16
 8000ee8:	18c0      	adds	r0, r0, r3
 8000eea:	0183      	lsls	r3, r0, #6
 8000eec:	1e5e      	subs	r6, r3, #1
 8000eee:	41b3      	sbcs	r3, r6
 8000ef0:	0e80      	lsrs	r0, r0, #26
 8000ef2:	4318      	orrs	r0, r3
 8000ef4:	0c13      	lsrs	r3, r2, #16
 8000ef6:	191b      	adds	r3, r3, r4
 8000ef8:	019b      	lsls	r3, r3, #6
 8000efa:	4303      	orrs	r3, r0
 8000efc:	001c      	movs	r4, r3
 8000efe:	0123      	lsls	r3, r4, #4
 8000f00:	d579      	bpl.n	8000ff6 <__aeabi_fmul+0x23e>
 8000f02:	2301      	movs	r3, #1
 8000f04:	0862      	lsrs	r2, r4, #1
 8000f06:	401c      	ands	r4, r3
 8000f08:	4314      	orrs	r4, r2
 8000f0a:	9a01      	ldr	r2, [sp, #4]
 8000f0c:	327f      	adds	r2, #127	; 0x7f
 8000f0e:	2a00      	cmp	r2, #0
 8000f10:	dd4d      	ble.n	8000fae <__aeabi_fmul+0x1f6>
 8000f12:	0763      	lsls	r3, r4, #29
 8000f14:	d004      	beq.n	8000f20 <__aeabi_fmul+0x168>
 8000f16:	230f      	movs	r3, #15
 8000f18:	4023      	ands	r3, r4
 8000f1a:	2b04      	cmp	r3, #4
 8000f1c:	d000      	beq.n	8000f20 <__aeabi_fmul+0x168>
 8000f1e:	3404      	adds	r4, #4
 8000f20:	0123      	lsls	r3, r4, #4
 8000f22:	d503      	bpl.n	8000f2c <__aeabi_fmul+0x174>
 8000f24:	4b3c      	ldr	r3, [pc, #240]	; (8001018 <__aeabi_fmul+0x260>)
 8000f26:	9a01      	ldr	r2, [sp, #4]
 8000f28:	401c      	ands	r4, r3
 8000f2a:	3280      	adds	r2, #128	; 0x80
 8000f2c:	2afe      	cmp	r2, #254	; 0xfe
 8000f2e:	dcbc      	bgt.n	8000eaa <__aeabi_fmul+0xf2>
 8000f30:	01a3      	lsls	r3, r4, #6
 8000f32:	0a5b      	lsrs	r3, r3, #9
 8000f34:	b2d2      	uxtb	r2, r2
 8000f36:	e79a      	b.n	8000e6e <__aeabi_fmul+0xb6>
 8000f38:	230c      	movs	r3, #12
 8000f3a:	469a      	mov	sl, r3
 8000f3c:	3b09      	subs	r3, #9
 8000f3e:	25ff      	movs	r5, #255	; 0xff
 8000f40:	469b      	mov	fp, r3
 8000f42:	e754      	b.n	8000dee <__aeabi_fmul+0x36>
 8000f44:	0018      	movs	r0, r3
 8000f46:	f000 fbad 	bl	80016a4 <__clzsi2>
 8000f4a:	464a      	mov	r2, r9
 8000f4c:	1f43      	subs	r3, r0, #5
 8000f4e:	2576      	movs	r5, #118	; 0x76
 8000f50:	409a      	lsls	r2, r3
 8000f52:	2300      	movs	r3, #0
 8000f54:	426d      	negs	r5, r5
 8000f56:	4691      	mov	r9, r2
 8000f58:	1a2d      	subs	r5, r5, r0
 8000f5a:	469a      	mov	sl, r3
 8000f5c:	469b      	mov	fp, r3
 8000f5e:	e746      	b.n	8000dee <__aeabi_fmul+0x36>
 8000f60:	4652      	mov	r2, sl
 8000f62:	2303      	movs	r3, #3
 8000f64:	431a      	orrs	r2, r3
 8000f66:	4692      	mov	sl, r2
 8000f68:	2003      	movs	r0, #3
 8000f6a:	e750      	b.n	8000e0e <__aeabi_fmul+0x56>
 8000f6c:	0020      	movs	r0, r4
 8000f6e:	f000 fb99 	bl	80016a4 <__clzsi2>
 8000f72:	1f43      	subs	r3, r0, #5
 8000f74:	1a2d      	subs	r5, r5, r0
 8000f76:	409c      	lsls	r4, r3
 8000f78:	3d76      	subs	r5, #118	; 0x76
 8000f7a:	2000      	movs	r0, #0
 8000f7c:	e747      	b.n	8000e0e <__aeabi_fmul+0x56>
 8000f7e:	2380      	movs	r3, #128	; 0x80
 8000f80:	2700      	movs	r7, #0
 8000f82:	03db      	lsls	r3, r3, #15
 8000f84:	22ff      	movs	r2, #255	; 0xff
 8000f86:	e772      	b.n	8000e6e <__aeabi_fmul+0xb6>
 8000f88:	4642      	mov	r2, r8
 8000f8a:	e766      	b.n	8000e5a <__aeabi_fmul+0xa2>
 8000f8c:	464c      	mov	r4, r9
 8000f8e:	0032      	movs	r2, r6
 8000f90:	4658      	mov	r0, fp
 8000f92:	e762      	b.n	8000e5a <__aeabi_fmul+0xa2>
 8000f94:	2380      	movs	r3, #128	; 0x80
 8000f96:	464a      	mov	r2, r9
 8000f98:	03db      	lsls	r3, r3, #15
 8000f9a:	421a      	tst	r2, r3
 8000f9c:	d022      	beq.n	8000fe4 <__aeabi_fmul+0x22c>
 8000f9e:	421c      	tst	r4, r3
 8000fa0:	d120      	bne.n	8000fe4 <__aeabi_fmul+0x22c>
 8000fa2:	4323      	orrs	r3, r4
 8000fa4:	025b      	lsls	r3, r3, #9
 8000fa6:	0a5b      	lsrs	r3, r3, #9
 8000fa8:	4647      	mov	r7, r8
 8000faa:	22ff      	movs	r2, #255	; 0xff
 8000fac:	e75f      	b.n	8000e6e <__aeabi_fmul+0xb6>
 8000fae:	2301      	movs	r3, #1
 8000fb0:	1a9a      	subs	r2, r3, r2
 8000fb2:	2a1b      	cmp	r2, #27
 8000fb4:	dc21      	bgt.n	8000ffa <__aeabi_fmul+0x242>
 8000fb6:	0023      	movs	r3, r4
 8000fb8:	9901      	ldr	r1, [sp, #4]
 8000fba:	40d3      	lsrs	r3, r2
 8000fbc:	319e      	adds	r1, #158	; 0x9e
 8000fbe:	408c      	lsls	r4, r1
 8000fc0:	001a      	movs	r2, r3
 8000fc2:	0023      	movs	r3, r4
 8000fc4:	1e5c      	subs	r4, r3, #1
 8000fc6:	41a3      	sbcs	r3, r4
 8000fc8:	4313      	orrs	r3, r2
 8000fca:	075a      	lsls	r2, r3, #29
 8000fcc:	d004      	beq.n	8000fd8 <__aeabi_fmul+0x220>
 8000fce:	220f      	movs	r2, #15
 8000fd0:	401a      	ands	r2, r3
 8000fd2:	2a04      	cmp	r2, #4
 8000fd4:	d000      	beq.n	8000fd8 <__aeabi_fmul+0x220>
 8000fd6:	3304      	adds	r3, #4
 8000fd8:	015a      	lsls	r2, r3, #5
 8000fda:	d411      	bmi.n	8001000 <__aeabi_fmul+0x248>
 8000fdc:	019b      	lsls	r3, r3, #6
 8000fde:	0a5b      	lsrs	r3, r3, #9
 8000fe0:	2200      	movs	r2, #0
 8000fe2:	e744      	b.n	8000e6e <__aeabi_fmul+0xb6>
 8000fe4:	2380      	movs	r3, #128	; 0x80
 8000fe6:	464a      	mov	r2, r9
 8000fe8:	03db      	lsls	r3, r3, #15
 8000fea:	4313      	orrs	r3, r2
 8000fec:	025b      	lsls	r3, r3, #9
 8000fee:	0a5b      	lsrs	r3, r3, #9
 8000ff0:	0037      	movs	r7, r6
 8000ff2:	22ff      	movs	r2, #255	; 0xff
 8000ff4:	e73b      	b.n	8000e6e <__aeabi_fmul+0xb6>
 8000ff6:	9501      	str	r5, [sp, #4]
 8000ff8:	e787      	b.n	8000f0a <__aeabi_fmul+0x152>
 8000ffa:	2200      	movs	r2, #0
 8000ffc:	2300      	movs	r3, #0
 8000ffe:	e736      	b.n	8000e6e <__aeabi_fmul+0xb6>
 8001000:	2201      	movs	r2, #1
 8001002:	2300      	movs	r3, #0
 8001004:	e733      	b.n	8000e6e <__aeabi_fmul+0xb6>
 8001006:	2380      	movs	r3, #128	; 0x80
 8001008:	03db      	lsls	r3, r3, #15
 800100a:	4323      	orrs	r3, r4
 800100c:	025b      	lsls	r3, r3, #9
 800100e:	0a5b      	lsrs	r3, r3, #9
 8001010:	22ff      	movs	r2, #255	; 0xff
 8001012:	e72c      	b.n	8000e6e <__aeabi_fmul+0xb6>
 8001014:	0800b594 	.word	0x0800b594
 8001018:	f7ffffff 	.word	0xf7ffffff

0800101c <__aeabi_fsub>:
 800101c:	b5f8      	push	{r3, r4, r5, r6, r7, lr}
 800101e:	4647      	mov	r7, r8
 8001020:	46ce      	mov	lr, r9
 8001022:	0044      	lsls	r4, r0, #1
 8001024:	0fc2      	lsrs	r2, r0, #31
 8001026:	b580      	push	{r7, lr}
 8001028:	0247      	lsls	r7, r0, #9
 800102a:	0248      	lsls	r0, r1, #9
 800102c:	0a40      	lsrs	r0, r0, #9
 800102e:	4684      	mov	ip, r0
 8001030:	4666      	mov	r6, ip
 8001032:	0048      	lsls	r0, r1, #1
 8001034:	0a7f      	lsrs	r7, r7, #9
 8001036:	0e24      	lsrs	r4, r4, #24
 8001038:	00f6      	lsls	r6, r6, #3
 800103a:	0025      	movs	r5, r4
 800103c:	4690      	mov	r8, r2
 800103e:	00fb      	lsls	r3, r7, #3
 8001040:	0e00      	lsrs	r0, r0, #24
 8001042:	0fc9      	lsrs	r1, r1, #31
 8001044:	46b1      	mov	r9, r6
 8001046:	28ff      	cmp	r0, #255	; 0xff
 8001048:	d100      	bne.n	800104c <__aeabi_fsub+0x30>
 800104a:	e085      	b.n	8001158 <__aeabi_fsub+0x13c>
 800104c:	2601      	movs	r6, #1
 800104e:	4071      	eors	r1, r6
 8001050:	1a26      	subs	r6, r4, r0
 8001052:	4291      	cmp	r1, r2
 8001054:	d057      	beq.n	8001106 <__aeabi_fsub+0xea>
 8001056:	2e00      	cmp	r6, #0
 8001058:	dd43      	ble.n	80010e2 <__aeabi_fsub+0xc6>
 800105a:	2800      	cmp	r0, #0
 800105c:	d000      	beq.n	8001060 <__aeabi_fsub+0x44>
 800105e:	e07f      	b.n	8001160 <__aeabi_fsub+0x144>
 8001060:	4649      	mov	r1, r9
 8001062:	2900      	cmp	r1, #0
 8001064:	d100      	bne.n	8001068 <__aeabi_fsub+0x4c>
 8001066:	e0aa      	b.n	80011be <__aeabi_fsub+0x1a2>
 8001068:	3e01      	subs	r6, #1
 800106a:	2e00      	cmp	r6, #0
 800106c:	d000      	beq.n	8001070 <__aeabi_fsub+0x54>
 800106e:	e0f7      	b.n	8001260 <__aeabi_fsub+0x244>
 8001070:	1a5b      	subs	r3, r3, r1
 8001072:	015a      	lsls	r2, r3, #5
 8001074:	d400      	bmi.n	8001078 <__aeabi_fsub+0x5c>
 8001076:	e08b      	b.n	8001190 <__aeabi_fsub+0x174>
 8001078:	019b      	lsls	r3, r3, #6
 800107a:	099c      	lsrs	r4, r3, #6
 800107c:	0020      	movs	r0, r4
 800107e:	f000 fb11 	bl	80016a4 <__clzsi2>
 8001082:	3805      	subs	r0, #5
 8001084:	4084      	lsls	r4, r0
 8001086:	4285      	cmp	r5, r0
 8001088:	dd00      	ble.n	800108c <__aeabi_fsub+0x70>
 800108a:	e0d3      	b.n	8001234 <__aeabi_fsub+0x218>
 800108c:	1b45      	subs	r5, r0, r5
 800108e:	0023      	movs	r3, r4
 8001090:	2020      	movs	r0, #32
 8001092:	3501      	adds	r5, #1
 8001094:	40eb      	lsrs	r3, r5
 8001096:	1b45      	subs	r5, r0, r5
 8001098:	40ac      	lsls	r4, r5
 800109a:	1e62      	subs	r2, r4, #1
 800109c:	4194      	sbcs	r4, r2
 800109e:	4323      	orrs	r3, r4
 80010a0:	2407      	movs	r4, #7
 80010a2:	2500      	movs	r5, #0
 80010a4:	401c      	ands	r4, r3
 80010a6:	2201      	movs	r2, #1
 80010a8:	4641      	mov	r1, r8
 80010aa:	400a      	ands	r2, r1
 80010ac:	2c00      	cmp	r4, #0
 80010ae:	d004      	beq.n	80010ba <__aeabi_fsub+0x9e>
 80010b0:	210f      	movs	r1, #15
 80010b2:	4019      	ands	r1, r3
 80010b4:	2904      	cmp	r1, #4
 80010b6:	d000      	beq.n	80010ba <__aeabi_fsub+0x9e>
 80010b8:	3304      	adds	r3, #4
 80010ba:	0159      	lsls	r1, r3, #5
 80010bc:	d400      	bmi.n	80010c0 <__aeabi_fsub+0xa4>
 80010be:	e080      	b.n	80011c2 <__aeabi_fsub+0x1a6>
 80010c0:	3501      	adds	r5, #1
 80010c2:	b2ec      	uxtb	r4, r5
 80010c4:	2dff      	cmp	r5, #255	; 0xff
 80010c6:	d000      	beq.n	80010ca <__aeabi_fsub+0xae>
 80010c8:	e0a3      	b.n	8001212 <__aeabi_fsub+0x1f6>
 80010ca:	24ff      	movs	r4, #255	; 0xff
 80010cc:	2300      	movs	r3, #0
 80010ce:	025b      	lsls	r3, r3, #9
 80010d0:	05e4      	lsls	r4, r4, #23
 80010d2:	0a58      	lsrs	r0, r3, #9
 80010d4:	07d2      	lsls	r2, r2, #31
 80010d6:	4320      	orrs	r0, r4
 80010d8:	4310      	orrs	r0, r2
 80010da:	bc0c      	pop	{r2, r3}
 80010dc:	4690      	mov	r8, r2
 80010de:	4699      	mov	r9, r3
 80010e0:	bdf8      	pop	{r3, r4, r5, r6, r7, pc}
 80010e2:	2e00      	cmp	r6, #0
 80010e4:	d174      	bne.n	80011d0 <__aeabi_fsub+0x1b4>
 80010e6:	1c60      	adds	r0, r4, #1
 80010e8:	b2c0      	uxtb	r0, r0
 80010ea:	2801      	cmp	r0, #1
 80010ec:	dc00      	bgt.n	80010f0 <__aeabi_fsub+0xd4>
 80010ee:	e0a7      	b.n	8001240 <__aeabi_fsub+0x224>
 80010f0:	464a      	mov	r2, r9
 80010f2:	1a9c      	subs	r4, r3, r2
 80010f4:	0162      	lsls	r2, r4, #5
 80010f6:	d500      	bpl.n	80010fa <__aeabi_fsub+0xde>
 80010f8:	e0b6      	b.n	8001268 <__aeabi_fsub+0x24c>
 80010fa:	2c00      	cmp	r4, #0
 80010fc:	d1be      	bne.n	800107c <__aeabi_fsub+0x60>
 80010fe:	2200      	movs	r2, #0
 8001100:	2400      	movs	r4, #0
 8001102:	2300      	movs	r3, #0
 8001104:	e7e3      	b.n	80010ce <__aeabi_fsub+0xb2>
 8001106:	2e00      	cmp	r6, #0
 8001108:	dc00      	bgt.n	800110c <__aeabi_fsub+0xf0>
 800110a:	e085      	b.n	8001218 <__aeabi_fsub+0x1fc>
 800110c:	2800      	cmp	r0, #0
 800110e:	d046      	beq.n	800119e <__aeabi_fsub+0x182>
 8001110:	2cff      	cmp	r4, #255	; 0xff
 8001112:	d049      	beq.n	80011a8 <__aeabi_fsub+0x18c>
 8001114:	2280      	movs	r2, #128	; 0x80
 8001116:	4648      	mov	r0, r9
 8001118:	04d2      	lsls	r2, r2, #19
 800111a:	4310      	orrs	r0, r2
 800111c:	4681      	mov	r9, r0
 800111e:	2201      	movs	r2, #1
 8001120:	2e1b      	cmp	r6, #27
 8001122:	dc09      	bgt.n	8001138 <__aeabi_fsub+0x11c>
 8001124:	2020      	movs	r0, #32
 8001126:	464c      	mov	r4, r9
 8001128:	1b80      	subs	r0, r0, r6
 800112a:	4084      	lsls	r4, r0
 800112c:	464a      	mov	r2, r9
 800112e:	0020      	movs	r0, r4
 8001130:	40f2      	lsrs	r2, r6
 8001132:	1e44      	subs	r4, r0, #1
 8001134:	41a0      	sbcs	r0, r4
 8001136:	4302      	orrs	r2, r0
 8001138:	189b      	adds	r3, r3, r2
 800113a:	015a      	lsls	r2, r3, #5
 800113c:	d528      	bpl.n	8001190 <__aeabi_fsub+0x174>
 800113e:	3501      	adds	r5, #1
 8001140:	2dff      	cmp	r5, #255	; 0xff
 8001142:	d100      	bne.n	8001146 <__aeabi_fsub+0x12a>
 8001144:	e0a8      	b.n	8001298 <__aeabi_fsub+0x27c>
 8001146:	2201      	movs	r2, #1
 8001148:	2407      	movs	r4, #7
 800114a:	4994      	ldr	r1, [pc, #592]	; (800139c <__aeabi_fsub+0x380>)
 800114c:	401a      	ands	r2, r3
 800114e:	085b      	lsrs	r3, r3, #1
 8001150:	400b      	ands	r3, r1
 8001152:	4313      	orrs	r3, r2
 8001154:	401c      	ands	r4, r3
 8001156:	e7a6      	b.n	80010a6 <__aeabi_fsub+0x8a>
 8001158:	2e00      	cmp	r6, #0
 800115a:	d000      	beq.n	800115e <__aeabi_fsub+0x142>
 800115c:	e778      	b.n	8001050 <__aeabi_fsub+0x34>
 800115e:	e775      	b.n	800104c <__aeabi_fsub+0x30>
 8001160:	2cff      	cmp	r4, #255	; 0xff
 8001162:	d054      	beq.n	800120e <__aeabi_fsub+0x1f2>
 8001164:	2280      	movs	r2, #128	; 0x80
 8001166:	4649      	mov	r1, r9
 8001168:	04d2      	lsls	r2, r2, #19
 800116a:	4311      	orrs	r1, r2
 800116c:	4689      	mov	r9, r1
 800116e:	2201      	movs	r2, #1
 8001170:	2e1b      	cmp	r6, #27
 8001172:	dc09      	bgt.n	8001188 <__aeabi_fsub+0x16c>
 8001174:	2120      	movs	r1, #32
 8001176:	4648      	mov	r0, r9
 8001178:	1b89      	subs	r1, r1, r6
 800117a:	4088      	lsls	r0, r1
 800117c:	464a      	mov	r2, r9
 800117e:	0001      	movs	r1, r0
 8001180:	40f2      	lsrs	r2, r6
 8001182:	1e48      	subs	r0, r1, #1
 8001184:	4181      	sbcs	r1, r0
 8001186:	430a      	orrs	r2, r1
 8001188:	1a9b      	subs	r3, r3, r2
 800118a:	015a      	lsls	r2, r3, #5
 800118c:	d500      	bpl.n	8001190 <__aeabi_fsub+0x174>
 800118e:	e773      	b.n	8001078 <__aeabi_fsub+0x5c>
 8001190:	2201      	movs	r2, #1
 8001192:	4641      	mov	r1, r8
 8001194:	400a      	ands	r2, r1
 8001196:	0759      	lsls	r1, r3, #29
 8001198:	d000      	beq.n	800119c <__aeabi_fsub+0x180>
 800119a:	e789      	b.n	80010b0 <__aeabi_fsub+0x94>
 800119c:	e011      	b.n	80011c2 <__aeabi_fsub+0x1a6>
 800119e:	4648      	mov	r0, r9
 80011a0:	2800      	cmp	r0, #0
 80011a2:	d158      	bne.n	8001256 <__aeabi_fsub+0x23a>
 80011a4:	2cff      	cmp	r4, #255	; 0xff
 80011a6:	d10c      	bne.n	80011c2 <__aeabi_fsub+0x1a6>
 80011a8:	08db      	lsrs	r3, r3, #3
 80011aa:	2b00      	cmp	r3, #0
 80011ac:	d100      	bne.n	80011b0 <__aeabi_fsub+0x194>
 80011ae:	e78c      	b.n	80010ca <__aeabi_fsub+0xae>
 80011b0:	2080      	movs	r0, #128	; 0x80
 80011b2:	03c0      	lsls	r0, r0, #15
 80011b4:	4303      	orrs	r3, r0
 80011b6:	025b      	lsls	r3, r3, #9
 80011b8:	0a5b      	lsrs	r3, r3, #9
 80011ba:	24ff      	movs	r4, #255	; 0xff
 80011bc:	e787      	b.n	80010ce <__aeabi_fsub+0xb2>
 80011be:	2cff      	cmp	r4, #255	; 0xff
 80011c0:	d025      	beq.n	800120e <__aeabi_fsub+0x1f2>
 80011c2:	08db      	lsrs	r3, r3, #3
 80011c4:	2dff      	cmp	r5, #255	; 0xff
 80011c6:	d0f0      	beq.n	80011aa <__aeabi_fsub+0x18e>
 80011c8:	025b      	lsls	r3, r3, #9
 80011ca:	0a5b      	lsrs	r3, r3, #9
 80011cc:	b2ec      	uxtb	r4, r5
 80011ce:	e77e      	b.n	80010ce <__aeabi_fsub+0xb2>
 80011d0:	2c00      	cmp	r4, #0
 80011d2:	d04d      	beq.n	8001270 <__aeabi_fsub+0x254>
 80011d4:	28ff      	cmp	r0, #255	; 0xff
 80011d6:	d018      	beq.n	800120a <__aeabi_fsub+0x1ee>
 80011d8:	2480      	movs	r4, #128	; 0x80
 80011da:	04e4      	lsls	r4, r4, #19
 80011dc:	4272      	negs	r2, r6
 80011de:	4323      	orrs	r3, r4
 80011e0:	2a1b      	cmp	r2, #27
 80011e2:	dd00      	ble.n	80011e6 <__aeabi_fsub+0x1ca>
 80011e4:	e0c4      	b.n	8001370 <__aeabi_fsub+0x354>
 80011e6:	001c      	movs	r4, r3
 80011e8:	2520      	movs	r5, #32
 80011ea:	40d4      	lsrs	r4, r2
 80011ec:	1aaa      	subs	r2, r5, r2
 80011ee:	4093      	lsls	r3, r2
 80011f0:	1e5a      	subs	r2, r3, #1
 80011f2:	4193      	sbcs	r3, r2
 80011f4:	4323      	orrs	r3, r4
 80011f6:	464a      	mov	r2, r9
 80011f8:	0005      	movs	r5, r0
 80011fa:	1ad3      	subs	r3, r2, r3
 80011fc:	4688      	mov	r8, r1
 80011fe:	e738      	b.n	8001072 <__aeabi_fsub+0x56>
 8001200:	1c72      	adds	r2, r6, #1
 8001202:	d0f8      	beq.n	80011f6 <__aeabi_fsub+0x1da>
 8001204:	43f2      	mvns	r2, r6
 8001206:	28ff      	cmp	r0, #255	; 0xff
 8001208:	d1ea      	bne.n	80011e0 <__aeabi_fsub+0x1c4>
 800120a:	000a      	movs	r2, r1
 800120c:	464b      	mov	r3, r9
 800120e:	25ff      	movs	r5, #255	; 0xff
 8001210:	e7d7      	b.n	80011c2 <__aeabi_fsub+0x1a6>
 8001212:	019b      	lsls	r3, r3, #6
 8001214:	0a5b      	lsrs	r3, r3, #9
 8001216:	e75a      	b.n	80010ce <__aeabi_fsub+0xb2>
 8001218:	2e00      	cmp	r6, #0
 800121a:	d141      	bne.n	80012a0 <__aeabi_fsub+0x284>
 800121c:	1c65      	adds	r5, r4, #1
 800121e:	b2e9      	uxtb	r1, r5
 8001220:	2901      	cmp	r1, #1
 8001222:	dd45      	ble.n	80012b0 <__aeabi_fsub+0x294>
 8001224:	2dff      	cmp	r5, #255	; 0xff
 8001226:	d100      	bne.n	800122a <__aeabi_fsub+0x20e>
 8001228:	e74f      	b.n	80010ca <__aeabi_fsub+0xae>
 800122a:	2407      	movs	r4, #7
 800122c:	444b      	add	r3, r9
 800122e:	085b      	lsrs	r3, r3, #1
 8001230:	401c      	ands	r4, r3
 8001232:	e738      	b.n	80010a6 <__aeabi_fsub+0x8a>
 8001234:	2207      	movs	r2, #7
 8001236:	4b5a      	ldr	r3, [pc, #360]	; (80013a0 <__aeabi_fsub+0x384>)
 8001238:	1a2d      	subs	r5, r5, r0
 800123a:	4023      	ands	r3, r4
 800123c:	4014      	ands	r4, r2
 800123e:	e732      	b.n	80010a6 <__aeabi_fsub+0x8a>
 8001240:	2c00      	cmp	r4, #0
 8001242:	d11d      	bne.n	8001280 <__aeabi_fsub+0x264>
 8001244:	2b00      	cmp	r3, #0
 8001246:	d17a      	bne.n	800133e <__aeabi_fsub+0x322>
 8001248:	464b      	mov	r3, r9
 800124a:	2b00      	cmp	r3, #0
 800124c:	d100      	bne.n	8001250 <__aeabi_fsub+0x234>
 800124e:	e091      	b.n	8001374 <__aeabi_fsub+0x358>
 8001250:	000a      	movs	r2, r1
 8001252:	2500      	movs	r5, #0
 8001254:	e7b5      	b.n	80011c2 <__aeabi_fsub+0x1a6>
 8001256:	3e01      	subs	r6, #1
 8001258:	2e00      	cmp	r6, #0
 800125a:	d119      	bne.n	8001290 <__aeabi_fsub+0x274>
 800125c:	444b      	add	r3, r9
 800125e:	e76c      	b.n	800113a <__aeabi_fsub+0x11e>
 8001260:	2cff      	cmp	r4, #255	; 0xff
 8001262:	d184      	bne.n	800116e <__aeabi_fsub+0x152>
 8001264:	25ff      	movs	r5, #255	; 0xff
 8001266:	e7ac      	b.n	80011c2 <__aeabi_fsub+0x1a6>
 8001268:	464a      	mov	r2, r9
 800126a:	4688      	mov	r8, r1
 800126c:	1ad4      	subs	r4, r2, r3
 800126e:	e705      	b.n	800107c <__aeabi_fsub+0x60>
 8001270:	2b00      	cmp	r3, #0
 8001272:	d1c5      	bne.n	8001200 <__aeabi_fsub+0x1e4>
 8001274:	000a      	movs	r2, r1
 8001276:	28ff      	cmp	r0, #255	; 0xff
 8001278:	d0c8      	beq.n	800120c <__aeabi_fsub+0x1f0>
 800127a:	0005      	movs	r5, r0
 800127c:	464b      	mov	r3, r9
 800127e:	e7a0      	b.n	80011c2 <__aeabi_fsub+0x1a6>
 8001280:	2b00      	cmp	r3, #0
 8001282:	d149      	bne.n	8001318 <__aeabi_fsub+0x2fc>
 8001284:	464b      	mov	r3, r9
 8001286:	2b00      	cmp	r3, #0
 8001288:	d077      	beq.n	800137a <__aeabi_fsub+0x35e>
 800128a:	000a      	movs	r2, r1
 800128c:	25ff      	movs	r5, #255	; 0xff
 800128e:	e798      	b.n	80011c2 <__aeabi_fsub+0x1a6>
 8001290:	2cff      	cmp	r4, #255	; 0xff
 8001292:	d000      	beq.n	8001296 <__aeabi_fsub+0x27a>
 8001294:	e743      	b.n	800111e <__aeabi_fsub+0x102>
 8001296:	e787      	b.n	80011a8 <__aeabi_fsub+0x18c>
 8001298:	000a      	movs	r2, r1
 800129a:	24ff      	movs	r4, #255	; 0xff
 800129c:	2300      	movs	r3, #0
 800129e:	e716      	b.n	80010ce <__aeabi_fsub+0xb2>
 80012a0:	2c00      	cmp	r4, #0
 80012a2:	d115      	bne.n	80012d0 <__aeabi_fsub+0x2b4>
 80012a4:	2b00      	cmp	r3, #0
 80012a6:	d157      	bne.n	8001358 <__aeabi_fsub+0x33c>
 80012a8:	28ff      	cmp	r0, #255	; 0xff
 80012aa:	d1e6      	bne.n	800127a <__aeabi_fsub+0x25e>
 80012ac:	464b      	mov	r3, r9
 80012ae:	e77b      	b.n	80011a8 <__aeabi_fsub+0x18c>
 80012b0:	2c00      	cmp	r4, #0
 80012b2:	d120      	bne.n	80012f6 <__aeabi_fsub+0x2da>
 80012b4:	2b00      	cmp	r3, #0
 80012b6:	d057      	beq.n	8001368 <__aeabi_fsub+0x34c>
 80012b8:	4649      	mov	r1, r9
 80012ba:	2900      	cmp	r1, #0
 80012bc:	d053      	beq.n	8001366 <__aeabi_fsub+0x34a>
 80012be:	444b      	add	r3, r9
 80012c0:	015a      	lsls	r2, r3, #5
 80012c2:	d568      	bpl.n	8001396 <__aeabi_fsub+0x37a>
 80012c4:	2407      	movs	r4, #7
 80012c6:	4a36      	ldr	r2, [pc, #216]	; (80013a0 <__aeabi_fsub+0x384>)
 80012c8:	401c      	ands	r4, r3
 80012ca:	2501      	movs	r5, #1
 80012cc:	4013      	ands	r3, r2
 80012ce:	e6ea      	b.n	80010a6 <__aeabi_fsub+0x8a>
 80012d0:	28ff      	cmp	r0, #255	; 0xff
 80012d2:	d0eb      	beq.n	80012ac <__aeabi_fsub+0x290>
 80012d4:	2280      	movs	r2, #128	; 0x80
 80012d6:	04d2      	lsls	r2, r2, #19
 80012d8:	4276      	negs	r6, r6
 80012da:	4313      	orrs	r3, r2
 80012dc:	2e1b      	cmp	r6, #27
 80012de:	dc53      	bgt.n	8001388 <__aeabi_fsub+0x36c>
 80012e0:	2520      	movs	r5, #32
 80012e2:	1bad      	subs	r5, r5, r6
 80012e4:	001a      	movs	r2, r3
 80012e6:	40ab      	lsls	r3, r5
 80012e8:	40f2      	lsrs	r2, r6
 80012ea:	1e5c      	subs	r4, r3, #1
 80012ec:	41a3      	sbcs	r3, r4
 80012ee:	4313      	orrs	r3, r2
 80012f0:	444b      	add	r3, r9
 80012f2:	0005      	movs	r5, r0
 80012f4:	e721      	b.n	800113a <__aeabi_fsub+0x11e>
 80012f6:	2b00      	cmp	r3, #0
 80012f8:	d0d8      	beq.n	80012ac <__aeabi_fsub+0x290>
 80012fa:	4649      	mov	r1, r9
 80012fc:	2900      	cmp	r1, #0
 80012fe:	d100      	bne.n	8001302 <__aeabi_fsub+0x2e6>
 8001300:	e752      	b.n	80011a8 <__aeabi_fsub+0x18c>
 8001302:	2180      	movs	r1, #128	; 0x80
 8001304:	03c9      	lsls	r1, r1, #15
 8001306:	420f      	tst	r7, r1
 8001308:	d100      	bne.n	800130c <__aeabi_fsub+0x2f0>
 800130a:	e74d      	b.n	80011a8 <__aeabi_fsub+0x18c>
 800130c:	4660      	mov	r0, ip
 800130e:	4208      	tst	r0, r1
 8001310:	d000      	beq.n	8001314 <__aeabi_fsub+0x2f8>
 8001312:	e749      	b.n	80011a8 <__aeabi_fsub+0x18c>
 8001314:	464b      	mov	r3, r9
 8001316:	e747      	b.n	80011a8 <__aeabi_fsub+0x18c>
 8001318:	4648      	mov	r0, r9
 800131a:	25ff      	movs	r5, #255	; 0xff
 800131c:	2800      	cmp	r0, #0
 800131e:	d100      	bne.n	8001322 <__aeabi_fsub+0x306>
 8001320:	e74f      	b.n	80011c2 <__aeabi_fsub+0x1a6>
 8001322:	2280      	movs	r2, #128	; 0x80
 8001324:	03d2      	lsls	r2, r2, #15
 8001326:	4217      	tst	r7, r2
 8001328:	d004      	beq.n	8001334 <__aeabi_fsub+0x318>
 800132a:	4660      	mov	r0, ip
 800132c:	4210      	tst	r0, r2
 800132e:	d101      	bne.n	8001334 <__aeabi_fsub+0x318>
 8001330:	464b      	mov	r3, r9
 8001332:	4688      	mov	r8, r1
 8001334:	2201      	movs	r2, #1
 8001336:	4641      	mov	r1, r8
 8001338:	25ff      	movs	r5, #255	; 0xff
 800133a:	400a      	ands	r2, r1
 800133c:	e741      	b.n	80011c2 <__aeabi_fsub+0x1a6>
 800133e:	4648      	mov	r0, r9
 8001340:	2800      	cmp	r0, #0
 8001342:	d01f      	beq.n	8001384 <__aeabi_fsub+0x368>
 8001344:	1a1a      	subs	r2, r3, r0
 8001346:	0150      	lsls	r0, r2, #5
 8001348:	d520      	bpl.n	800138c <__aeabi_fsub+0x370>
 800134a:	464a      	mov	r2, r9
 800134c:	2407      	movs	r4, #7
 800134e:	1ad3      	subs	r3, r2, r3
 8001350:	401c      	ands	r4, r3
 8001352:	4688      	mov	r8, r1
 8001354:	2500      	movs	r5, #0
 8001356:	e6a6      	b.n	80010a6 <__aeabi_fsub+0x8a>
 8001358:	1c74      	adds	r4, r6, #1
 800135a:	d0c9      	beq.n	80012f0 <__aeabi_fsub+0x2d4>
 800135c:	43f6      	mvns	r6, r6
 800135e:	28ff      	cmp	r0, #255	; 0xff
 8001360:	d1bc      	bne.n	80012dc <__aeabi_fsub+0x2c0>
 8001362:	464b      	mov	r3, r9
 8001364:	e720      	b.n	80011a8 <__aeabi_fsub+0x18c>
 8001366:	4699      	mov	r9, r3
 8001368:	464b      	mov	r3, r9
 800136a:	2500      	movs	r5, #0
 800136c:	08db      	lsrs	r3, r3, #3
 800136e:	e72b      	b.n	80011c8 <__aeabi_fsub+0x1ac>
 8001370:	2301      	movs	r3, #1
 8001372:	e740      	b.n	80011f6 <__aeabi_fsub+0x1da>
 8001374:	2200      	movs	r2, #0
 8001376:	2300      	movs	r3, #0
 8001378:	e6a9      	b.n	80010ce <__aeabi_fsub+0xb2>
 800137a:	2380      	movs	r3, #128	; 0x80
 800137c:	2200      	movs	r2, #0
 800137e:	03db      	lsls	r3, r3, #15
 8001380:	24ff      	movs	r4, #255	; 0xff
 8001382:	e6a4      	b.n	80010ce <__aeabi_fsub+0xb2>
 8001384:	2500      	movs	r5, #0
 8001386:	e71c      	b.n	80011c2 <__aeabi_fsub+0x1a6>
 8001388:	2301      	movs	r3, #1
 800138a:	e7b1      	b.n	80012f0 <__aeabi_fsub+0x2d4>
 800138c:	2a00      	cmp	r2, #0
 800138e:	d0f1      	beq.n	8001374 <__aeabi_fsub+0x358>
 8001390:	0013      	movs	r3, r2
 8001392:	2500      	movs	r5, #0
 8001394:	e6fc      	b.n	8001190 <__aeabi_fsub+0x174>
 8001396:	2500      	movs	r5, #0
 8001398:	e6fa      	b.n	8001190 <__aeabi_fsub+0x174>
 800139a:	46c0      	nop			; (mov r8, r8)
 800139c:	7dffffff 	.word	0x7dffffff
 80013a0:	fbffffff 	.word	0xfbffffff

080013a4 <__aeabi_f2iz>:
 80013a4:	0241      	lsls	r1, r0, #9
 80013a6:	0042      	lsls	r2, r0, #1
 80013a8:	0fc3      	lsrs	r3, r0, #31
 80013aa:	0a49      	lsrs	r1, r1, #9
 80013ac:	0e12      	lsrs	r2, r2, #24
 80013ae:	2000      	movs	r0, #0
 80013b0:	2a7e      	cmp	r2, #126	; 0x7e
 80013b2:	d90d      	bls.n	80013d0 <__aeabi_f2iz+0x2c>
 80013b4:	2a9d      	cmp	r2, #157	; 0x9d
 80013b6:	d80c      	bhi.n	80013d2 <__aeabi_f2iz+0x2e>
 80013b8:	2080      	movs	r0, #128	; 0x80
 80013ba:	0400      	lsls	r0, r0, #16
 80013bc:	4301      	orrs	r1, r0
 80013be:	2a95      	cmp	r2, #149	; 0x95
 80013c0:	dc0a      	bgt.n	80013d8 <__aeabi_f2iz+0x34>
 80013c2:	2096      	movs	r0, #150	; 0x96
 80013c4:	1a82      	subs	r2, r0, r2
 80013c6:	40d1      	lsrs	r1, r2
 80013c8:	4248      	negs	r0, r1
 80013ca:	2b00      	cmp	r3, #0
 80013cc:	d100      	bne.n	80013d0 <__aeabi_f2iz+0x2c>
 80013ce:	0008      	movs	r0, r1
 80013d0:	4770      	bx	lr
 80013d2:	4a03      	ldr	r2, [pc, #12]	; (80013e0 <__aeabi_f2iz+0x3c>)
 80013d4:	1898      	adds	r0, r3, r2
 80013d6:	e7fb      	b.n	80013d0 <__aeabi_f2iz+0x2c>
 80013d8:	3a96      	subs	r2, #150	; 0x96
 80013da:	4091      	lsls	r1, r2
 80013dc:	e7f4      	b.n	80013c8 <__aeabi_f2iz+0x24>
 80013de:	46c0      	nop			; (mov r8, r8)
 80013e0:	7fffffff 	.word	0x7fffffff

080013e4 <__aeabi_i2f>:
 80013e4:	b570      	push	{r4, r5, r6, lr}
 80013e6:	2800      	cmp	r0, #0
 80013e8:	d03d      	beq.n	8001466 <__aeabi_i2f+0x82>
 80013ea:	17c3      	asrs	r3, r0, #31
 80013ec:	18c5      	adds	r5, r0, r3
 80013ee:	405d      	eors	r5, r3
 80013f0:	0fc4      	lsrs	r4, r0, #31
 80013f2:	0028      	movs	r0, r5
 80013f4:	f000 f956 	bl	80016a4 <__clzsi2>
 80013f8:	229e      	movs	r2, #158	; 0x9e
 80013fa:	1a12      	subs	r2, r2, r0
 80013fc:	2a96      	cmp	r2, #150	; 0x96
 80013fe:	dc07      	bgt.n	8001410 <__aeabi_i2f+0x2c>
 8001400:	b2d2      	uxtb	r2, r2
 8001402:	2808      	cmp	r0, #8
 8001404:	dd33      	ble.n	800146e <__aeabi_i2f+0x8a>
 8001406:	3808      	subs	r0, #8
 8001408:	4085      	lsls	r5, r0
 800140a:	0268      	lsls	r0, r5, #9
 800140c:	0a40      	lsrs	r0, r0, #9
 800140e:	e023      	b.n	8001458 <__aeabi_i2f+0x74>
 8001410:	2a99      	cmp	r2, #153	; 0x99
 8001412:	dd0b      	ble.n	800142c <__aeabi_i2f+0x48>
 8001414:	2305      	movs	r3, #5
 8001416:	0029      	movs	r1, r5
 8001418:	1a1b      	subs	r3, r3, r0
 800141a:	40d9      	lsrs	r1, r3
 800141c:	0003      	movs	r3, r0
 800141e:	331b      	adds	r3, #27
 8001420:	409d      	lsls	r5, r3
 8001422:	002b      	movs	r3, r5
 8001424:	1e5d      	subs	r5, r3, #1
 8001426:	41ab      	sbcs	r3, r5
 8001428:	4319      	orrs	r1, r3
 800142a:	000d      	movs	r5, r1
 800142c:	2805      	cmp	r0, #5
 800142e:	dd01      	ble.n	8001434 <__aeabi_i2f+0x50>
 8001430:	1f43      	subs	r3, r0, #5
 8001432:	409d      	lsls	r5, r3
 8001434:	002b      	movs	r3, r5
 8001436:	490f      	ldr	r1, [pc, #60]	; (8001474 <__aeabi_i2f+0x90>)
 8001438:	400b      	ands	r3, r1
 800143a:	076e      	lsls	r6, r5, #29
 800143c:	d009      	beq.n	8001452 <__aeabi_i2f+0x6e>
 800143e:	260f      	movs	r6, #15
 8001440:	4035      	ands	r5, r6
 8001442:	2d04      	cmp	r5, #4
 8001444:	d005      	beq.n	8001452 <__aeabi_i2f+0x6e>
 8001446:	3304      	adds	r3, #4
 8001448:	015d      	lsls	r5, r3, #5
 800144a:	d502      	bpl.n	8001452 <__aeabi_i2f+0x6e>
 800144c:	229f      	movs	r2, #159	; 0x9f
 800144e:	400b      	ands	r3, r1
 8001450:	1a12      	subs	r2, r2, r0
 8001452:	019b      	lsls	r3, r3, #6
 8001454:	0a58      	lsrs	r0, r3, #9
 8001456:	b2d2      	uxtb	r2, r2
 8001458:	0240      	lsls	r0, r0, #9
 800145a:	05d2      	lsls	r2, r2, #23
 800145c:	0a40      	lsrs	r0, r0, #9
 800145e:	07e4      	lsls	r4, r4, #31
 8001460:	4310      	orrs	r0, r2
 8001462:	4320      	orrs	r0, r4
 8001464:	bd70      	pop	{r4, r5, r6, pc}
 8001466:	2400      	movs	r4, #0
 8001468:	2200      	movs	r2, #0
 800146a:	2000      	movs	r0, #0
 800146c:	e7f4      	b.n	8001458 <__aeabi_i2f+0x74>
 800146e:	0268      	lsls	r0, r5, #9
 8001470:	0a40      	lsrs	r0, r0, #9
 8001472:	e7f1      	b.n	8001458 <__aeabi_i2f+0x74>
 8001474:	fbffffff 	.word	0xfbffffff

08001478 <__aeabi_ui2f>:
 8001478:	b570      	push	{r4, r5, r6, lr}
 800147a:	1e04      	subs	r4, r0, #0
 800147c:	d034      	beq.n	80014e8 <__aeabi_ui2f+0x70>
 800147e:	f000 f911 	bl	80016a4 <__clzsi2>
 8001482:	229e      	movs	r2, #158	; 0x9e
 8001484:	1a12      	subs	r2, r2, r0
 8001486:	2a96      	cmp	r2, #150	; 0x96
 8001488:	dc07      	bgt.n	800149a <__aeabi_ui2f+0x22>
 800148a:	b2d2      	uxtb	r2, r2
 800148c:	2808      	cmp	r0, #8
 800148e:	dd2e      	ble.n	80014ee <__aeabi_ui2f+0x76>
 8001490:	3808      	subs	r0, #8
 8001492:	4084      	lsls	r4, r0
 8001494:	0260      	lsls	r0, r4, #9
 8001496:	0a40      	lsrs	r0, r0, #9
 8001498:	e021      	b.n	80014de <__aeabi_ui2f+0x66>
 800149a:	2a99      	cmp	r2, #153	; 0x99
 800149c:	dd09      	ble.n	80014b2 <__aeabi_ui2f+0x3a>
 800149e:	0003      	movs	r3, r0
 80014a0:	0021      	movs	r1, r4
 80014a2:	331b      	adds	r3, #27
 80014a4:	4099      	lsls	r1, r3
 80014a6:	1e4b      	subs	r3, r1, #1
 80014a8:	4199      	sbcs	r1, r3
 80014aa:	2305      	movs	r3, #5
 80014ac:	1a1b      	subs	r3, r3, r0
 80014ae:	40dc      	lsrs	r4, r3
 80014b0:	430c      	orrs	r4, r1
 80014b2:	2805      	cmp	r0, #5
 80014b4:	dd01      	ble.n	80014ba <__aeabi_ui2f+0x42>
 80014b6:	1f43      	subs	r3, r0, #5
 80014b8:	409c      	lsls	r4, r3
 80014ba:	0023      	movs	r3, r4
 80014bc:	490d      	ldr	r1, [pc, #52]	; (80014f4 <__aeabi_ui2f+0x7c>)
 80014be:	400b      	ands	r3, r1
 80014c0:	0765      	lsls	r5, r4, #29
 80014c2:	d009      	beq.n	80014d8 <__aeabi_ui2f+0x60>
 80014c4:	250f      	movs	r5, #15
 80014c6:	402c      	ands	r4, r5
 80014c8:	2c04      	cmp	r4, #4
 80014ca:	d005      	beq.n	80014d8 <__aeabi_ui2f+0x60>
 80014cc:	3304      	adds	r3, #4
 80014ce:	015c      	lsls	r4, r3, #5
 80014d0:	d502      	bpl.n	80014d8 <__aeabi_ui2f+0x60>
 80014d2:	229f      	movs	r2, #159	; 0x9f
 80014d4:	400b      	ands	r3, r1
 80014d6:	1a12      	subs	r2, r2, r0
 80014d8:	019b      	lsls	r3, r3, #6
 80014da:	0a58      	lsrs	r0, r3, #9
 80014dc:	b2d2      	uxtb	r2, r2
 80014de:	0240      	lsls	r0, r0, #9
 80014e0:	05d2      	lsls	r2, r2, #23
 80014e2:	0a40      	lsrs	r0, r0, #9
 80014e4:	4310      	orrs	r0, r2
 80014e6:	bd70      	pop	{r4, r5, r6, pc}
 80014e8:	2200      	movs	r2, #0
 80014ea:	2000      	movs	r0, #0
 80014ec:	e7f7      	b.n	80014de <__aeabi_ui2f+0x66>
 80014ee:	0260      	lsls	r0, r4, #9
 80014f0:	0a40      	lsrs	r0, r0, #9
 80014f2:	e7f4      	b.n	80014de <__aeabi_ui2f+0x66>
 80014f4:	fbffffff 	.word	0xfbffffff

080014f8 <__aeabi_f2d>:
 80014f8:	0041      	lsls	r1, r0, #1
 80014fa:	0e09      	lsrs	r1, r1, #24
 80014fc:	1c4b      	adds	r3, r1, #1
 80014fe:	b570      	push	{r4, r5, r6, lr}
 8001500:	b2db      	uxtb	r3, r3
 8001502:	0246      	lsls	r6, r0, #9
 8001504:	0a75      	lsrs	r5, r6, #9
 8001506:	0fc4      	lsrs	r4, r0, #31
 8001508:	2b01      	cmp	r3, #1
 800150a:	dd14      	ble.n	8001536 <__aeabi_f2d+0x3e>
 800150c:	23e0      	movs	r3, #224	; 0xe0
 800150e:	009b      	lsls	r3, r3, #2
 8001510:	076d      	lsls	r5, r5, #29
 8001512:	0b36      	lsrs	r6, r6, #12
 8001514:	18cb      	adds	r3, r1, r3
 8001516:	2100      	movs	r1, #0
 8001518:	0d0a      	lsrs	r2, r1, #20
 800151a:	0028      	movs	r0, r5
 800151c:	0512      	lsls	r2, r2, #20
 800151e:	4d1c      	ldr	r5, [pc, #112]	; (8001590 <__aeabi_f2d+0x98>)
 8001520:	4332      	orrs	r2, r6
 8001522:	055b      	lsls	r3, r3, #21
 8001524:	402a      	ands	r2, r5
 8001526:	085b      	lsrs	r3, r3, #1
 8001528:	4313      	orrs	r3, r2
 800152a:	005b      	lsls	r3, r3, #1
 800152c:	07e4      	lsls	r4, r4, #31
 800152e:	085b      	lsrs	r3, r3, #1
 8001530:	4323      	orrs	r3, r4
 8001532:	0019      	movs	r1, r3
 8001534:	bd70      	pop	{r4, r5, r6, pc}
 8001536:	2900      	cmp	r1, #0
 8001538:	d114      	bne.n	8001564 <__aeabi_f2d+0x6c>
 800153a:	2d00      	cmp	r5, #0
 800153c:	d01e      	beq.n	800157c <__aeabi_f2d+0x84>
 800153e:	0028      	movs	r0, r5
 8001540:	f000 f8b0 	bl	80016a4 <__clzsi2>
 8001544:	280a      	cmp	r0, #10
 8001546:	dc1c      	bgt.n	8001582 <__aeabi_f2d+0x8a>
 8001548:	230b      	movs	r3, #11
 800154a:	002a      	movs	r2, r5
 800154c:	1a1b      	subs	r3, r3, r0
 800154e:	40da      	lsrs	r2, r3
 8001550:	0003      	movs	r3, r0
 8001552:	3315      	adds	r3, #21
 8001554:	409d      	lsls	r5, r3
 8001556:	4b0f      	ldr	r3, [pc, #60]	; (8001594 <__aeabi_f2d+0x9c>)
 8001558:	0312      	lsls	r2, r2, #12
 800155a:	1a1b      	subs	r3, r3, r0
 800155c:	055b      	lsls	r3, r3, #21
 800155e:	0b16      	lsrs	r6, r2, #12
 8001560:	0d5b      	lsrs	r3, r3, #21
 8001562:	e7d8      	b.n	8001516 <__aeabi_f2d+0x1e>
 8001564:	2d00      	cmp	r5, #0
 8001566:	d006      	beq.n	8001576 <__aeabi_f2d+0x7e>
 8001568:	0b32      	lsrs	r2, r6, #12
 800156a:	2680      	movs	r6, #128	; 0x80
 800156c:	0336      	lsls	r6, r6, #12
 800156e:	076d      	lsls	r5, r5, #29
 8001570:	4316      	orrs	r6, r2
 8001572:	4b09      	ldr	r3, [pc, #36]	; (8001598 <__aeabi_f2d+0xa0>)
 8001574:	e7cf      	b.n	8001516 <__aeabi_f2d+0x1e>
 8001576:	4b08      	ldr	r3, [pc, #32]	; (8001598 <__aeabi_f2d+0xa0>)
 8001578:	2600      	movs	r6, #0
 800157a:	e7cc      	b.n	8001516 <__aeabi_f2d+0x1e>
 800157c:	2300      	movs	r3, #0
 800157e:	2600      	movs	r6, #0
 8001580:	e7c9      	b.n	8001516 <__aeabi_f2d+0x1e>
 8001582:	0003      	movs	r3, r0
 8001584:	002a      	movs	r2, r5
 8001586:	3b0b      	subs	r3, #11
 8001588:	409a      	lsls	r2, r3
 800158a:	2500      	movs	r5, #0
 800158c:	e7e3      	b.n	8001556 <__aeabi_f2d+0x5e>
 800158e:	46c0      	nop			; (mov r8, r8)
 8001590:	800fffff 	.word	0x800fffff
 8001594:	00000389 	.word	0x00000389
 8001598:	000007ff 	.word	0x000007ff

0800159c <__aeabi_d2f>:
 800159c:	b5f0      	push	{r4, r5, r6, r7, lr}
 800159e:	004c      	lsls	r4, r1, #1
 80015a0:	0d64      	lsrs	r4, r4, #21
 80015a2:	030b      	lsls	r3, r1, #12
 80015a4:	1c62      	adds	r2, r4, #1
 80015a6:	0a5b      	lsrs	r3, r3, #9
 80015a8:	0f46      	lsrs	r6, r0, #29
 80015aa:	0552      	lsls	r2, r2, #21
 80015ac:	0fc9      	lsrs	r1, r1, #31
 80015ae:	431e      	orrs	r6, r3
 80015b0:	00c5      	lsls	r5, r0, #3
 80015b2:	0d52      	lsrs	r2, r2, #21
 80015b4:	2a01      	cmp	r2, #1
 80015b6:	dd29      	ble.n	800160c <__aeabi_d2f+0x70>
 80015b8:	4b37      	ldr	r3, [pc, #220]	; (8001698 <__aeabi_d2f+0xfc>)
 80015ba:	18e7      	adds	r7, r4, r3
 80015bc:	2ffe      	cmp	r7, #254	; 0xfe
 80015be:	dc1c      	bgt.n	80015fa <__aeabi_d2f+0x5e>
 80015c0:	2f00      	cmp	r7, #0
 80015c2:	dd3b      	ble.n	800163c <__aeabi_d2f+0xa0>
 80015c4:	0180      	lsls	r0, r0, #6
 80015c6:	1e43      	subs	r3, r0, #1
 80015c8:	4198      	sbcs	r0, r3
 80015ca:	2207      	movs	r2, #7
 80015cc:	00f3      	lsls	r3, r6, #3
 80015ce:	0f6d      	lsrs	r5, r5, #29
 80015d0:	4303      	orrs	r3, r0
 80015d2:	432b      	orrs	r3, r5
 80015d4:	401a      	ands	r2, r3
 80015d6:	2a00      	cmp	r2, #0
 80015d8:	d004      	beq.n	80015e4 <__aeabi_d2f+0x48>
 80015da:	220f      	movs	r2, #15
 80015dc:	401a      	ands	r2, r3
 80015de:	2a04      	cmp	r2, #4
 80015e0:	d000      	beq.n	80015e4 <__aeabi_d2f+0x48>
 80015e2:	3304      	adds	r3, #4
 80015e4:	2280      	movs	r2, #128	; 0x80
 80015e6:	04d2      	lsls	r2, r2, #19
 80015e8:	401a      	ands	r2, r3
 80015ea:	d024      	beq.n	8001636 <__aeabi_d2f+0x9a>
 80015ec:	3701      	adds	r7, #1
 80015ee:	b2fa      	uxtb	r2, r7
 80015f0:	2fff      	cmp	r7, #255	; 0xff
 80015f2:	d002      	beq.n	80015fa <__aeabi_d2f+0x5e>
 80015f4:	019b      	lsls	r3, r3, #6
 80015f6:	0a58      	lsrs	r0, r3, #9
 80015f8:	e001      	b.n	80015fe <__aeabi_d2f+0x62>
 80015fa:	22ff      	movs	r2, #255	; 0xff
 80015fc:	2000      	movs	r0, #0
 80015fe:	0240      	lsls	r0, r0, #9
 8001600:	05d2      	lsls	r2, r2, #23
 8001602:	0a40      	lsrs	r0, r0, #9
 8001604:	07c9      	lsls	r1, r1, #31
 8001606:	4310      	orrs	r0, r2
 8001608:	4308      	orrs	r0, r1
 800160a:	bdf0      	pop	{r4, r5, r6, r7, pc}
 800160c:	4335      	orrs	r5, r6
 800160e:	2c00      	cmp	r4, #0
 8001610:	d104      	bne.n	800161c <__aeabi_d2f+0x80>
 8001612:	2d00      	cmp	r5, #0
 8001614:	d10a      	bne.n	800162c <__aeabi_d2f+0x90>
 8001616:	2200      	movs	r2, #0
 8001618:	2000      	movs	r0, #0
 800161a:	e7f0      	b.n	80015fe <__aeabi_d2f+0x62>
 800161c:	2d00      	cmp	r5, #0
 800161e:	d0ec      	beq.n	80015fa <__aeabi_d2f+0x5e>
 8001620:	2080      	movs	r0, #128	; 0x80
 8001622:	03c0      	lsls	r0, r0, #15
 8001624:	4330      	orrs	r0, r6
 8001626:	22ff      	movs	r2, #255	; 0xff
 8001628:	e7e9      	b.n	80015fe <__aeabi_d2f+0x62>
 800162a:	2400      	movs	r4, #0
 800162c:	2300      	movs	r3, #0
 800162e:	025b      	lsls	r3, r3, #9
 8001630:	0a58      	lsrs	r0, r3, #9
 8001632:	b2e2      	uxtb	r2, r4
 8001634:	e7e3      	b.n	80015fe <__aeabi_d2f+0x62>
 8001636:	08db      	lsrs	r3, r3, #3
 8001638:	003c      	movs	r4, r7
 800163a:	e7f8      	b.n	800162e <__aeabi_d2f+0x92>
 800163c:	003b      	movs	r3, r7
 800163e:	3317      	adds	r3, #23
 8001640:	dbf3      	blt.n	800162a <__aeabi_d2f+0x8e>
 8001642:	2380      	movs	r3, #128	; 0x80
 8001644:	041b      	lsls	r3, r3, #16
 8001646:	4333      	orrs	r3, r6
 8001648:	261e      	movs	r6, #30
 800164a:	1bf6      	subs	r6, r6, r7
 800164c:	2e1f      	cmp	r6, #31
 800164e:	dd14      	ble.n	800167a <__aeabi_d2f+0xde>
 8001650:	2202      	movs	r2, #2
 8001652:	4252      	negs	r2, r2
 8001654:	1bd7      	subs	r7, r2, r7
 8001656:	001a      	movs	r2, r3
 8001658:	40fa      	lsrs	r2, r7
 800165a:	0017      	movs	r7, r2
 800165c:	2e20      	cmp	r6, #32
 800165e:	d004      	beq.n	800166a <__aeabi_d2f+0xce>
 8001660:	4a0e      	ldr	r2, [pc, #56]	; (800169c <__aeabi_d2f+0x100>)
 8001662:	4694      	mov	ip, r2
 8001664:	4464      	add	r4, ip
 8001666:	40a3      	lsls	r3, r4
 8001668:	431d      	orrs	r5, r3
 800166a:	002b      	movs	r3, r5
 800166c:	1e5d      	subs	r5, r3, #1
 800166e:	41ab      	sbcs	r3, r5
 8001670:	2207      	movs	r2, #7
 8001672:	433b      	orrs	r3, r7
 8001674:	401a      	ands	r2, r3
 8001676:	2700      	movs	r7, #0
 8001678:	e7ad      	b.n	80015d6 <__aeabi_d2f+0x3a>
 800167a:	4a09      	ldr	r2, [pc, #36]	; (80016a0 <__aeabi_d2f+0x104>)
 800167c:	0028      	movs	r0, r5
 800167e:	18a2      	adds	r2, r4, r2
 8001680:	4095      	lsls	r5, r2
 8001682:	4093      	lsls	r3, r2
 8001684:	1e6c      	subs	r4, r5, #1
 8001686:	41a5      	sbcs	r5, r4
 8001688:	40f0      	lsrs	r0, r6
 800168a:	2207      	movs	r2, #7
 800168c:	432b      	orrs	r3, r5
 800168e:	4303      	orrs	r3, r0
 8001690:	401a      	ands	r2, r3
 8001692:	2700      	movs	r7, #0
 8001694:	e79f      	b.n	80015d6 <__aeabi_d2f+0x3a>
 8001696:	46c0      	nop			; (mov r8, r8)
 8001698:	fffffc80 	.word	0xfffffc80
 800169c:	fffffca2 	.word	0xfffffca2
 80016a0:	fffffc82 	.word	0xfffffc82

080016a4 <__clzsi2>:
 80016a4:	211c      	movs	r1, #28
 80016a6:	2301      	movs	r3, #1
 80016a8:	041b      	lsls	r3, r3, #16
 80016aa:	4298      	cmp	r0, r3
 80016ac:	d301      	bcc.n	80016b2 <__clzsi2+0xe>
 80016ae:	0c00      	lsrs	r0, r0, #16
 80016b0:	3910      	subs	r1, #16
 80016b2:	0a1b      	lsrs	r3, r3, #8
 80016b4:	4298      	cmp	r0, r3
 80016b6:	d301      	bcc.n	80016bc <__clzsi2+0x18>
 80016b8:	0a00      	lsrs	r0, r0, #8
 80016ba:	3908      	subs	r1, #8
 80016bc:	091b      	lsrs	r3, r3, #4
 80016be:	4298      	cmp	r0, r3
 80016c0:	d301      	bcc.n	80016c6 <__clzsi2+0x22>
 80016c2:	0900      	lsrs	r0, r0, #4
 80016c4:	3904      	subs	r1, #4
 80016c6:	a202      	add	r2, pc, #8	; (adr r2, 80016d0 <__clzsi2+0x2c>)
 80016c8:	5c10      	ldrb	r0, [r2, r0]
 80016ca:	1840      	adds	r0, r0, r1
 80016cc:	4770      	bx	lr
 80016ce:	46c0      	nop			; (mov r8, r8)
 80016d0:	02020304 	.word	0x02020304
 80016d4:	01010101 	.word	0x01010101
	...

080016e0 <__clzdi2>:
 80016e0:	b510      	push	{r4, lr}
 80016e2:	2900      	cmp	r1, #0
 80016e4:	d103      	bne.n	80016ee <__clzdi2+0xe>
 80016e6:	f7ff ffdd 	bl	80016a4 <__clzsi2>
 80016ea:	3020      	adds	r0, #32
 80016ec:	e002      	b.n	80016f4 <__clzdi2+0x14>
 80016ee:	1c08      	adds	r0, r1, #0
 80016f0:	f7ff ffd8 	bl	80016a4 <__clzsi2>
 80016f4:	bd10      	pop	{r4, pc}
 80016f6:	46c0      	nop			; (mov r8, r8)

080016f8 <acc_app_integration_sleep_ms>:

#include "acc_app_integration.h"


void acc_app_integration_sleep_ms(uint32_t time_msec)
{
 80016f8:	b510      	push	{r4, lr}
	HAL_Delay(time_msec);
 80016fa:	f000 fbe7 	bl	8001ecc <HAL_Delay>
}
 80016fe:	bd10      	pop	{r4, pc}

08001700 <acc_hal_integration_get_reference_frequency>:


static float acc_hal_integration_get_reference_frequency(void)
{
	return ACC_BOARD_REF_FREQ;
}
 8001700:	4800      	ldr	r0, [pc, #0]	; (8001704 <acc_hal_integration_get_reference_frequency+0x4>)
 8001702:	4770      	bx	lr
 8001704:	4bc65d40 	.word	0x4bc65d40

08001708 <acc_hal_integration_sensor_transfer>:
{
 8001708:	b573      	push	{r0, r1, r4, r5, r6, lr}
 800170a:	000e      	movs	r6, r1
 800170c:	0014      	movs	r4, r2
	HAL_GPIO_WritePin(A111_CS_N_GPIO_Port, A111_CS_N_Pin, GPIO_PIN_RESET);
 800170e:	4d0a      	ldr	r5, [pc, #40]	; (8001738 <acc_hal_integration_sensor_transfer+0x30>)
 8001710:	2200      	movs	r2, #0
 8001712:	0028      	movs	r0, r5
 8001714:	2140      	movs	r1, #64	; 0x40
 8001716:	f000 fcfb 	bl	8002110 <HAL_GPIO_WritePin>
	HAL_SPI_TransmitReceive(&A111_SPI_HANDLE, buffer, buffer, buffer_size, SPI_TRANSMIT_RECEIVE_TIMEOUT);
 800171a:	4a08      	ldr	r2, [pc, #32]	; (800173c <acc_hal_integration_sensor_transfer+0x34>)
 800171c:	0031      	movs	r1, r6
 800171e:	b2a3      	uxth	r3, r4
 8001720:	9200      	str	r2, [sp, #0]
 8001722:	4807      	ldr	r0, [pc, #28]	; (8001740 <acc_hal_integration_sensor_transfer+0x38>)
 8001724:	0032      	movs	r2, r6
 8001726:	f001 fa97 	bl	8002c58 <HAL_SPI_TransmitReceive>
	HAL_GPIO_WritePin(A111_CS_N_GPIO_Port, A111_CS_N_Pin, GPIO_PIN_SET);
 800172a:	0028      	movs	r0, r5
 800172c:	2201      	movs	r2, #1
 800172e:	2140      	movs	r1, #64	; 0x40
 8001730:	f000 fcee 	bl	8002110 <HAL_GPIO_WritePin>
}
 8001734:	bd73      	pop	{r0, r1, r4, r5, r6, pc}
 8001736:	46c0      	nop			; (mov r8, r8)
 8001738:	50000400 	.word	0x50000400
 800173c:	00001388 	.word	0x00001388
 8001740:	2000022c 	.word	0x2000022c

08001744 <acc_hal_integration_get_current_time>:


static uint32_t acc_hal_integration_get_current_time(void)
{
 8001744:	b510      	push	{r4, lr}
	return HAL_GetTick();
 8001746:	f000 fbbb 	bl	8001ec0 <HAL_GetTick>
}
 800174a:	bd10      	pop	{r4, pc}

0800174c <acc_hal_integration_log>:


static void acc_hal_integration_log(acc_log_level_t level, const char *module, const char *format, ...)
{
 800174c:	b40c      	push	{r2, r3}
 800174e:	b5f0      	push	{r4, r5, r6, r7, lr}
 8001750:	b0b1      	sub	sp, #196	; 0xc4
 8001752:	ab36      	add	r3, sp, #216	; 0xd8
 8001754:	cb04      	ldmia	r3!, {r2}
	char    log_buffer[LOG_BUFFER_MAX_SIZE];
	va_list ap;

	va_start(ap, format);

	int ret = vsnprintf(log_buffer, LOG_BUFFER_MAX_SIZE, format, ap);
 8001756:	ad0a      	add	r5, sp, #40	; 0x28
{
 8001758:	0006      	movs	r6, r0
 800175a:	000f      	movs	r7, r1
	int ret = vsnprintf(log_buffer, LOG_BUFFER_MAX_SIZE, format, ap);
 800175c:	0028      	movs	r0, r5
 800175e:	2196      	movs	r1, #150	; 0x96
	va_start(ap, format);
 8001760:	9309      	str	r3, [sp, #36]	; 0x24
	int ret = vsnprintf(log_buffer, LOG_BUFFER_MAX_SIZE, format, ap);
 8001762:	f007 f8a7 	bl	80088b4 <vsniprintf>
	if (ret >= LOG_BUFFER_MAX_SIZE)
 8001766:	2895      	cmp	r0, #149	; 0x95
 8001768:	dd07      	ble.n	800177a <acc_hal_integration_log+0x2e>
	{
		log_buffer[LOG_BUFFER_MAX_SIZE - 4] = '.';
 800176a:	23aa      	movs	r3, #170	; 0xaa
 800176c:	aa04      	add	r2, sp, #16
 800176e:	189b      	adds	r3, r3, r2
 8001770:	4a1a      	ldr	r2, [pc, #104]	; (80017dc <acc_hal_integration_log+0x90>)
 8001772:	801a      	strh	r2, [r3, #0]
		log_buffer[LOG_BUFFER_MAX_SIZE - 3] = '.';
 8001774:	222e      	movs	r2, #46	; 0x2e
 8001776:	ab2f      	add	r3, sp, #188	; 0xbc
 8001778:	801a      	strh	r2, [r3, #0]
	return HAL_GetTick();
 800177a:	f000 fba1 	bl	8001ec0 <HAL_GetTick>

	uint32_t time_ms = acc_hal_integration_get_current_time();
	char     level_ch;

	unsigned int timestamp    = time_ms;
	unsigned int hours        = timestamp / 1000 / 60 / 60;
 800177e:	4918      	ldr	r1, [pc, #96]	; (80017e0 <acc_hal_integration_log+0x94>)
	return HAL_GetTick();
 8001780:	0004      	movs	r4, r0
	unsigned int hours        = timestamp / 1000 / 60 / 60;
 8001782:	f7fe fcd3 	bl	800012c <__udivsi3>
	unsigned int minutes      = timestamp / 1000 / 60 % 60;
 8001786:	4917      	ldr	r1, [pc, #92]	; (80017e4 <acc_hal_integration_log+0x98>)
	unsigned int hours        = timestamp / 1000 / 60 / 60;
 8001788:	9005      	str	r0, [sp, #20]
	unsigned int minutes      = timestamp / 1000 / 60 % 60;
 800178a:	0020      	movs	r0, r4
 800178c:	f7fe fcce 	bl	800012c <__udivsi3>
 8001790:	213c      	movs	r1, #60	; 0x3c
 8001792:	f7fe fd51 	bl	8000238 <__aeabi_uidivmod>
 8001796:	9106      	str	r1, [sp, #24]
	unsigned int seconds      = timestamp / 1000 % 60;
 8001798:	21fa      	movs	r1, #250	; 0xfa
 800179a:	0020      	movs	r0, r4
 800179c:	0089      	lsls	r1, r1, #2
 800179e:	f7fe fcc5 	bl	800012c <__udivsi3>
 80017a2:	213c      	movs	r1, #60	; 0x3c
 80017a4:	f7fe fd48 	bl	8000238 <__aeabi_uidivmod>
 80017a8:	9107      	str	r1, [sp, #28]
	unsigned int milliseconds = timestamp % 1000;
 80017aa:	21fa      	movs	r1, #250	; 0xfa
 80017ac:	0020      	movs	r0, r4
 80017ae:	0089      	lsls	r1, r1, #2
 80017b0:	f7fe fd42 	bl	8000238 <__aeabi_uidivmod>

	level_ch = (level <= ACC_LOG_LEVEL_DEBUG) ? "EWIVD"[level] : '?';
 80017b4:	233f      	movs	r3, #63	; 0x3f
 80017b6:	2e04      	cmp	r6, #4
 80017b8:	d801      	bhi.n	80017be <acc_hal_integration_log+0x72>
 80017ba:	4b0b      	ldr	r3, [pc, #44]	; (80017e8 <acc_hal_integration_log+0x9c>)
 80017bc:	5d9b      	ldrb	r3, [r3, r6]

	printf(LOG_FORMAT, hours, minutes, seconds, milliseconds, level_ch, module, log_buffer);
 80017be:	9301      	str	r3, [sp, #4]
 80017c0:	9100      	str	r1, [sp, #0]
 80017c2:	9503      	str	r5, [sp, #12]
 80017c4:	9702      	str	r7, [sp, #8]
 80017c6:	9b07      	ldr	r3, [sp, #28]
 80017c8:	9a06      	ldr	r2, [sp, #24]
 80017ca:	9905      	ldr	r1, [sp, #20]
 80017cc:	4807      	ldr	r0, [pc, #28]	; (80017ec <acc_hal_integration_log+0xa0>)
 80017ce:	f007 f819 	bl	8008804 <iprintf>

	va_end(ap);
}
 80017d2:	b031      	add	sp, #196	; 0xc4
 80017d4:	bcf0      	pop	{r4, r5, r6, r7}
 80017d6:	bc08      	pop	{r3}
 80017d8:	b002      	add	sp, #8
 80017da:	4718      	bx	r3
 80017dc:	00002e2e 	.word	0x00002e2e
 80017e0:	0036ee80 	.word	0x0036ee80
 80017e4:	0000ea60 	.word	0x0000ea60
 80017e8:	0800b5f7 	.word	0x0800b5f7
 80017ec:	0800b5d4 	.word	0x0800b5d4

080017f0 <acc_hal_integration_wait_for_sensor_interrupt>:
{
 80017f0:	b5f8      	push	{r3, r4, r5, r6, r7, lr}
 80017f2:	000e      	movs	r6, r1
	const uint32_t wait_begin_ms = HAL_GetTick();
 80017f4:	f000 fb64 	bl	8001ec0 <HAL_GetTick>
	while ((HAL_GPIO_ReadPin(A111_SENSOR_INTERRUPT_GPIO_Port, A111_SENSOR_INTERRUPT_Pin) != GPIO_PIN_SET) &&
 80017f8:	2480      	movs	r4, #128	; 0x80
 80017fa:	25a0      	movs	r5, #160	; 0xa0
	const uint32_t wait_begin_ms = HAL_GetTick();
 80017fc:	0007      	movs	r7, r0
	while ((HAL_GPIO_ReadPin(A111_SENSOR_INTERRUPT_GPIO_Port, A111_SENSOR_INTERRUPT_Pin) != GPIO_PIN_SET) &&
 80017fe:	0064      	lsls	r4, r4, #1
 8001800:	05ed      	lsls	r5, r5, #23
 8001802:	0021      	movs	r1, r4
 8001804:	0028      	movs	r0, r5
 8001806:	f000 fc7d 	bl	8002104 <HAL_GPIO_ReadPin>
 800180a:	2801      	cmp	r0, #1
 800180c:	d004      	beq.n	8001818 <acc_hal_integration_wait_for_sensor_interrupt+0x28>
	       (HAL_GetTick() - wait_begin_ms < timeout_ms))
 800180e:	f000 fb57 	bl	8001ec0 <HAL_GetTick>
 8001812:	1bc0      	subs	r0, r0, r7
	while ((HAL_GPIO_ReadPin(A111_SENSOR_INTERRUPT_GPIO_Port, A111_SENSOR_INTERRUPT_Pin) != GPIO_PIN_SET) &&
 8001814:	42b0      	cmp	r0, r6
 8001816:	d30a      	bcc.n	800182e <acc_hal_integration_wait_for_sensor_interrupt+0x3e>
	return HAL_GPIO_ReadPin(A111_SENSOR_INTERRUPT_GPIO_Port, A111_SENSOR_INTERRUPT_Pin) == GPIO_PIN_SET;
 8001818:	2180      	movs	r1, #128	; 0x80
 800181a:	20a0      	movs	r0, #160	; 0xa0
 800181c:	0049      	lsls	r1, r1, #1
 800181e:	05c0      	lsls	r0, r0, #23
 8001820:	f000 fc70 	bl	8002104 <HAL_GPIO_ReadPin>
 8001824:	3801      	subs	r0, #1
 8001826:	4243      	negs	r3, r0
 8001828:	4158      	adcs	r0, r3
 800182a:	b2c0      	uxtb	r0, r0
}
 800182c:	bdf8      	pop	{r3, r4, r5, r6, r7, pc}
  \details Disables IRQ interrupts by setting the I-bit in the CPSR.
           Can only be executed in Privileged modes.
 */
__STATIC_FORCEINLINE void __disable_irq(void)
{
  __ASM volatile ("cpsid i" : : : "memory");
 800182e:	b672      	cpsid	i
		if (HAL_GPIO_ReadPin(A111_SENSOR_INTERRUPT_GPIO_Port, A111_SENSOR_INTERRUPT_Pin) != GPIO_PIN_SET)
 8001830:	0021      	movs	r1, r4
 8001832:	0028      	movs	r0, r5
 8001834:	f000 fc66 	bl	8002104 <HAL_GPIO_ReadPin>
 8001838:	2801      	cmp	r0, #1
 800183a:	d000      	beq.n	800183e <acc_hal_integration_wait_for_sensor_interrupt+0x4e>
			__WFI();
 800183c:	bf30      	wfi
  __ASM volatile ("cpsie i" : : : "memory");
 800183e:	b662      	cpsie	i
           so that all instructions following the ISB are fetched from cache or memory,
           after the instruction has been completed.
 */
__STATIC_FORCEINLINE void __ISB(void)
{
  __ASM volatile ("isb 0xF":::"memory");
 8001840:	f3bf 8f6f 	isb	sy
 8001844:	e7dd      	b.n	8001802 <acc_hal_integration_wait_for_sensor_interrupt+0x12>
	...

08001848 <acc_hal_integration_sensor_power_off>:
{
 8001848:	b510      	push	{r4, lr}
	HAL_GPIO_WritePin(A111_CS_N_GPIO_Port, A111_CS_N_Pin, GPIO_PIN_RESET);
 800184a:	4c07      	ldr	r4, [pc, #28]	; (8001868 <acc_hal_integration_sensor_power_off+0x20>)
 800184c:	2200      	movs	r2, #0
 800184e:	0020      	movs	r0, r4
 8001850:	2140      	movs	r1, #64	; 0x40
 8001852:	f000 fc5d 	bl	8002110 <HAL_GPIO_WritePin>
	HAL_GPIO_WritePin(A111_ENABLE_GPIO_Port, A111_ENABLE_Pin, GPIO_PIN_RESET);
 8001856:	2200      	movs	r2, #0
 8001858:	2120      	movs	r1, #32
 800185a:	0020      	movs	r0, r4
 800185c:	f000 fc58 	bl	8002110 <HAL_GPIO_WritePin>
	HAL_Delay(2);
 8001860:	2002      	movs	r0, #2
 8001862:	f000 fb33 	bl	8001ecc <HAL_Delay>
}
 8001866:	bd10      	pop	{r4, pc}
 8001868:	50000400 	.word	0x50000400

0800186c <acc_hal_integration_sensor_power_on>:
{
 800186c:	b510      	push	{r4, lr}
	HAL_GPIO_WritePin(A111_ENABLE_GPIO_Port, A111_ENABLE_Pin, GPIO_PIN_SET);
 800186e:	4c07      	ldr	r4, [pc, #28]	; (800188c <acc_hal_integration_sensor_power_on+0x20>)
 8001870:	2201      	movs	r2, #1
 8001872:	0020      	movs	r0, r4
 8001874:	2120      	movs	r1, #32
 8001876:	f000 fc4b 	bl	8002110 <HAL_GPIO_WritePin>
	HAL_GPIO_WritePin(A111_CS_N_GPIO_Port, A111_CS_N_Pin, GPIO_PIN_SET);
 800187a:	2201      	movs	r2, #1
 800187c:	2140      	movs	r1, #64	; 0x40
 800187e:	0020      	movs	r0, r4
 8001880:	f000 fc46 	bl	8002110 <HAL_GPIO_WritePin>
	HAL_Delay(2);
 8001884:	2002      	movs	r0, #2
 8001886:	f000 fb21 	bl	8001ecc <HAL_Delay>
}
 800188a:	bd10      	pop	{r4, pc}
 800188c:	50000400 	.word	0x50000400

08001890 <acc_hal_integration_get_implementation>:


const acc_hal_t *acc_hal_integration_get_implementation(void)
{
	return &hal;
}
 8001890:	4800      	ldr	r0, [pc, #0]	; (8001894 <acc_hal_integration_get_implementation+0x4>)
 8001892:	4770      	bx	lr
 8001894:	0800b600 	.word	0x0800b600

08001898 <update_config>:
 * @file:	detector_presence.c
 * @brief:	This function is used to set configuration in Acconeer radar
 *
 *
 *  */
void update_config(acc_detector_presence_configuration_t acc_config) {
 8001898:	b570      	push	{r4, r5, r6, lr}
 800189a:	b08c      	sub	sp, #48	; 0x30

	acc_detector_presence_configuration_filter_parameters_t filter_parameters;

	filter_parameters = acc_detector_presence_configuration_filter_parameters_get(acc_config);
 800189c:	466c      	mov	r4, sp
void update_config(acc_detector_presence_configuration_t acc_config) {
 800189e:	0005      	movs	r5, r0
	filter_parameters = acc_detector_presence_configuration_filter_parameters_get(acc_config);
 80018a0:	ae06      	add	r6, sp, #24
 80018a2:	0001      	movs	r1, r0
 80018a4:	0020      	movs	r0, r4
 80018a6:	f001 fffc 	bl	80038a2 <acc_detector_presence_configuration_filter_parameters_get>
 80018aa:	0033      	movs	r3, r6
 80018ac:	cc07      	ldmia	r4!, {r0, r1, r2}
 80018ae:	c307      	stmia	r3!, {r0, r1, r2}
 80018b0:	cc07      	ldmia	r4!, {r0, r1, r2}
 80018b2:	c307      	stmia	r3!, {r0, r1, r2}
	/* If the detection toggles too often, try increasing the output_time_const parameter.
	 * If it is too sluggish, try decreasing it instead.
	 *
	 * param range 0.0f - 1.0f
	 * */
	filter_parameters.output_time_const = 0.8f;
 80018b4:	4b16      	ldr	r3, [pc, #88]	; (8001910 <update_config+0x78>)
		* Profile 4 and 5 are recommended for:
    	for Sparse service only
    	operation at large distances (>1 m)
    	motion or presence detection, where an optimal SNR ratio is preferred over a high resolution distance measurement
	 */
	acc_detector_presence_configuration_service_profile_set(acc_config, ACC_SERVICE_PROFILE_3);
 80018b6:	0028      	movs	r0, r5
	filter_parameters.output_time_const = 0.8f;
 80018b8:	6173      	str	r3, [r6, #20]
	filter_parameters.intra_frame_weight = 0.5f;
 80018ba:	23fc      	movs	r3, #252	; 0xfc
	acc_detector_presence_configuration_service_profile_set(acc_config, ACC_SERVICE_PROFILE_3);
 80018bc:	2103      	movs	r1, #3
	filter_parameters.intra_frame_weight = 0.5f;
 80018be:	059b      	lsls	r3, r3, #22
 80018c0:	6133      	str	r3, [r6, #16]
	acc_detector_presence_configuration_service_profile_set(acc_config, ACC_SERVICE_PROFILE_3);
 80018c2:	f002 f82b 	bl	800391c <acc_detector_presence_configuration_service_profile_set>

	/*  */
	acc_detector_presence_configuration_power_save_mode_set(acc_config, ACC_POWER_SAVE_MODE_SLEEP);
 80018c6:	0028      	movs	r0, r5
 80018c8:	2101      	movs	r1, #1
 80018ca:	f002 f81b 	bl	8003904 <acc_detector_presence_configuration_power_save_mode_set>
	/*  */
	acc_detector_presence_configuration_start_set(acc_config, START_SWEEP);
 80018ce:	0028      	movs	r0, r5
 80018d0:	2100      	movs	r1, #0
 80018d2:	f001 ffaf 	bl	8003834 <acc_detector_presence_configuration_start_set>
	/*  */
	acc_detector_presence_configuration_length_set(acc_config, LENGTH_SWEEP);
 80018d6:	21fe      	movs	r1, #254	; 0xfe
 80018d8:	0028      	movs	r0, r5
 80018da:	0589      	lsls	r1, r1, #22
 80018dc:	f001 ffb6 	bl	800384c <acc_detector_presence_configuration_length_set>
	/*  */
	acc_detector_presence_configuration_detection_threshold_set(acc_config, DETECTION_THRESHOLD);
 80018e0:	0028      	movs	r0, r5
 80018e2:	490c      	ldr	r1, [pc, #48]	; (8001914 <update_config+0x7c>)
 80018e4:	f001 ffbe 	bl	8003864 <acc_detector_presence_configuration_detection_threshold_set>
	/*  */
	acc_detector_presence_configuration_update_rate_set(acc_config, UPDATE_RATE);
 80018e8:	2182      	movs	r1, #130	; 0x82
 80018ea:	0028      	movs	r0, r5
 80018ec:	05c9      	lsls	r1, r1, #23
 80018ee:	f001 ffc2 	bl	8003876 <acc_detector_presence_configuration_update_rate_set>
	/*  */
	acc_detector_presence_configuration_filter_parameters_set(acc_config, &filter_parameters);
 80018f2:	0031      	movs	r1, r6
 80018f4:	0028      	movs	r0, r5
 80018f6:	f001 fff1 	bl	80038dc <acc_detector_presence_configuration_filter_parameters_set>
	/*  */
	acc_detector_presence_configuration_sweeps_per_frame_set(acc_config, SWEEPS_PER_FRAME);
 80018fa:	0028      	movs	r0, r5
 80018fc:	2110      	movs	r1, #16
 80018fe:	f001 ffc3 	bl	8003888 <acc_detector_presence_configuration_sweeps_per_frame_set>
	/*  */
	acc_detector_presence_configuration_receiver_gain_set(acc_config, GAIN);
 8001902:	4905      	ldr	r1, [pc, #20]	; (8001918 <update_config+0x80>)
 8001904:	0028      	movs	r0, r5
 8001906:	f002 f815 	bl	8003934 <acc_detector_presence_configuration_receiver_gain_set>

}
 800190a:	b00c      	add	sp, #48	; 0x30
 800190c:	bd70      	pop	{r4, r5, r6, pc}
 800190e:	46c0      	nop			; (mov r8, r8)
 8001910:	3f4ccccd 	.word	0x3f4ccccd
 8001914:	40300000 	.word	0x40300000
 8001918:	3e4ccccd 	.word	0x3e4ccccd

0800191c <print_results>:

void print_results(acc_detector_presence_result_t result) {
 800191c:	b51f      	push	{r0, r1, r2, r3, r4, lr}
	if(result.presence_detected) printf("Motion detected\n\r");
 800191e:	b2c0      	uxtb	r0, r0
void print_results(acc_detector_presence_result_t result) {
 8001920:	9102      	str	r1, [sp, #8]
 8001922:	9203      	str	r2, [sp, #12]
	if(result.presence_detected) printf("Motion detected\n\r");
 8001924:	2800      	cmp	r0, #0
 8001926:	d015      	beq.n	8001954 <print_results+0x38>
 8001928:	480b      	ldr	r0, [pc, #44]	; (8001958 <print_results+0x3c>)
	else printf("No motion\n\r");
 800192a:	f006 ff6b 	bl	8008804 <iprintf>

	printf("Presence score: %d, Distance: %d\n\r", (int)(result.presence_score * 1000.0f), (int)(result.presence_distance * 1000.0f));
 800192e:	490b      	ldr	r1, [pc, #44]	; (800195c <print_results+0x40>)
 8001930:	9803      	ldr	r0, [sp, #12]
 8001932:	f7ff fa41 	bl	8000db8 <__aeabi_fmul>
 8001936:	f7ff fd35 	bl	80013a4 <__aeabi_f2iz>
 800193a:	4908      	ldr	r1, [pc, #32]	; (800195c <print_results+0x40>)
 800193c:	0004      	movs	r4, r0
 800193e:	9802      	ldr	r0, [sp, #8]
 8001940:	f7ff fa3a 	bl	8000db8 <__aeabi_fmul>
 8001944:	f7ff fd2e 	bl	80013a4 <__aeabi_f2iz>
 8001948:	0022      	movs	r2, r4
 800194a:	0001      	movs	r1, r0
 800194c:	4804      	ldr	r0, [pc, #16]	; (8001960 <print_results+0x44>)
 800194e:	f006 ff59 	bl	8008804 <iprintf>
}
 8001952:	bd1f      	pop	{r0, r1, r2, r3, r4, pc}
	else printf("No motion\n\r");
 8001954:	4803      	ldr	r0, [pc, #12]	; (8001964 <print_results+0x48>)
 8001956:	e7e8      	b.n	800192a <print_results+0xe>
 8001958:	0800b6c6 	.word	0x0800b6c6
 800195c:	447a0000 	.word	0x447a0000
 8001960:	0800b6e4 	.word	0x0800b6e4
 8001964:	0800b6d8 	.word	0x0800b6d8

08001968 <acc_detector_presence>:
bool acc_detector_presence(void) {
 8001968:	b513      	push	{r0, r1, r4, lr}
	const acc_hal_t *hal = acc_hal_integration_get_implementation();
 800196a:	f7ff ff91 	bl	8001890 <acc_hal_integration_get_implementation>
	if(!acc_rss_activate(hal)) {
 800196e:	f002 fa61 	bl	8003e34 <acc_rss_activate>
 8001972:	2800      	cmp	r0, #0
 8001974:	d104      	bne.n	8001980 <acc_detector_presence+0x18>
		printf("RSS activate error!\n\r");
 8001976:	4821      	ldr	r0, [pc, #132]	; (80019fc <acc_detector_presence+0x94>)
 8001978:	f006 ff44 	bl	8008804 <iprintf>
}
 800197c:	2000      	movs	r0, #0
 800197e:	bd16      	pop	{r1, r2, r4, pc}
	acc_detector_presence_configuration_t presence_config = acc_detector_presence_configuration_create();
 8001980:	f001 fe56 	bl	8003630 <acc_detector_presence_configuration_create>
 8001984:	9000      	str	r0, [sp, #0]
	if(!presence_config) {
 8001986:	2800      	cmp	r0, #0
 8001988:	d105      	bne.n	8001996 <acc_detector_presence+0x2e>
		printf("Configuration failed!\n\r");
 800198a:	481d      	ldr	r0, [pc, #116]	; (8001a00 <acc_detector_presence+0x98>)
 800198c:	f006 ff3a 	bl	8008804 <iprintf>
	acc_rss_deactivate();
 8001990:	f002 fa8c 	bl	8003eac <acc_rss_deactivate>
 8001994:	e7f2      	b.n	800197c <acc_detector_presence+0x14>
	update_config(presence_config);
 8001996:	f7ff ff7f 	bl	8001898 <update_config>
	acc_detector_presence_handle_t acc_handle = acc_detector_presence_create(presence_config);
 800199a:	9800      	ldr	r0, [sp, #0]
 800199c:	f001 feb0 	bl	8003700 <acc_detector_presence_create>
 80019a0:	9001      	str	r0, [sp, #4]
	if(acc_handle == NULL) {
 80019a2:	2800      	cmp	r0, #0
 80019a4:	d106      	bne.n	80019b4 <acc_detector_presence+0x4c>
		printf("Failed to create detector\n\r");
 80019a6:	4817      	ldr	r0, [pc, #92]	; (8001a04 <acc_detector_presence+0x9c>)
 80019a8:	f006 ff2c 	bl	8008804 <iprintf>
		acc_detector_presence_configuration_destroy(&presence_config);
 80019ac:	4668      	mov	r0, sp
 80019ae:	f001 fe95 	bl	80036dc <acc_detector_presence_configuration_destroy>
 80019b2:	e7ed      	b.n	8001990 <acc_detector_presence+0x28>
	acc_detector_presence_configuration_destroy(&presence_config);
 80019b4:	4668      	mov	r0, sp
 80019b6:	f001 fe91 	bl	80036dc <acc_detector_presence_configuration_destroy>
	if(!acc_detector_presence_activate(acc_handle)) {
 80019ba:	9801      	ldr	r0, [sp, #4]
 80019bc:	f001 fef1 	bl	80037a2 <acc_detector_presence_activate>
 80019c0:	2800      	cmp	r0, #0
 80019c2:	d10c      	bne.n	80019de <acc_detector_presence+0x76>
		printf("Failed to activate detector\n\r");
 80019c4:	4810      	ldr	r0, [pc, #64]	; (8001a08 <acc_detector_presence+0xa0>)
 80019c6:	f006 ff1d 	bl	8008804 <iprintf>
	acc_detector_presence_destroy(&acc_handle);
 80019ca:	a801      	add	r0, sp, #4
 80019cc:	f001 fed4 	bl	8003778 <acc_detector_presence_destroy>
 80019d0:	e7de      	b.n	8001990 <acc_detector_presence+0x28>
		print_results(result);
 80019d2:	cc07      	ldmia	r4!, {r0, r1, r2}
 80019d4:	f7ff ffa2 	bl	800191c <print_results>
		acc_app_integration_sleep_ms(80 / UPDATE_RATE);
 80019d8:	200a      	movs	r0, #10
 80019da:	f7ff fe8d 	bl	80016f8 <acc_app_integration_sleep_ms>
		correct_result = acc_detector_presence_get_next(acc_handle, &result);
 80019de:	4c0b      	ldr	r4, [pc, #44]	; (8001a0c <acc_detector_presence+0xa4>)
 80019e0:	9801      	ldr	r0, [sp, #4]
 80019e2:	0021      	movs	r1, r4
 80019e4:	f001 ff00 	bl	80037e8 <acc_detector_presence_get_next>
		if(!correct_result) {
 80019e8:	2800      	cmp	r0, #0
 80019ea:	d1f2      	bne.n	80019d2 <acc_detector_presence+0x6a>
			printf("Detector presence get_next() failed\n\r");
 80019ec:	4808      	ldr	r0, [pc, #32]	; (8001a10 <acc_detector_presence+0xa8>)
 80019ee:	f006 ff09 	bl	8008804 <iprintf>
	deactivation = acc_detector_presence_deactivate(acc_handle);
 80019f2:	9801      	ldr	r0, [sp, #4]
 80019f4:	f001 fee0 	bl	80037b8 <acc_detector_presence_deactivate>
 80019f8:	e7e7      	b.n	80019ca <acc_detector_presence+0x62>
 80019fa:	46c0      	nop			; (mov r8, r8)
 80019fc:	0800b638 	.word	0x0800b638
 8001a00:	0800b64e 	.word	0x0800b64e
 8001a04:	0800b666 	.word	0x0800b666
 8001a08:	0800b682 	.word	0x0800b682
 8001a0c:	20000220 	.word	0x20000220
 8001a10:	0800b6a0 	.word	0x0800b6a0

08001a14 <SystemClock_Config>:
/**
  * @brief System Clock Configuration
  * @retval None
  */
void SystemClock_Config(void)
{
 8001a14:	b510      	push	{r4, lr}
 8001a16:	b0a0      	sub	sp, #128	; 0x80
  RCC_OscInitTypeDef RCC_OscInitStruct = {0};
 8001a18:	2238      	movs	r2, #56	; 0x38
 8001a1a:	2100      	movs	r1, #0
 8001a1c:	a812      	add	r0, sp, #72	; 0x48
 8001a1e:	f006 fe41 	bl	80086a4 <memset>
  RCC_ClkInitTypeDef RCC_ClkInitStruct = {0};
 8001a22:	2210      	movs	r2, #16
 8001a24:	2100      	movs	r1, #0
 8001a26:	a801      	add	r0, sp, #4
 8001a28:	f006 fe3c 	bl	80086a4 <memset>
  RCC_PeriphCLKInitTypeDef PeriphClkInit = {0};
 8001a2c:	2100      	movs	r1, #0
 8001a2e:	2234      	movs	r2, #52	; 0x34
 8001a30:	a805      	add	r0, sp, #20
 8001a32:	f006 fe37 	bl	80086a4 <memset>

  /** Configure the main internal regulator output voltage
  */
  HAL_PWREx_ControlVoltageScaling(PWR_REGULATOR_VOLTAGE_SCALE1);
 8001a36:	2080      	movs	r0, #128	; 0x80
 8001a38:	0080      	lsls	r0, r0, #2
 8001a3a:	f000 fb85 	bl	8002148 <HAL_PWREx_ControlVoltageScaling>
  /** Initializes the RCC Oscillators according to the specified parameters
  * in the RCC_OscInitTypeDef structure.
  */
  RCC_OscInitStruct.OscillatorType = RCC_OSCILLATORTYPE_HSI;
  RCC_OscInitStruct.HSIState = RCC_HSI_ON;
 8001a3e:	2380      	movs	r3, #128	; 0x80
 8001a40:	005b      	lsls	r3, r3, #1
 8001a42:	9315      	str	r3, [sp, #84]	; 0x54
  RCC_OscInitStruct.HSIDiv = RCC_HSI_DIV1;
  RCC_OscInitStruct.HSICalibrationValue = RCC_HSICALIBRATION_DEFAULT;
 8001a44:	2240      	movs	r2, #64	; 0x40
  RCC_OscInitStruct.HSIDiv = RCC_HSI_DIV1;
 8001a46:	2300      	movs	r3, #0
  RCC_OscInitStruct.OscillatorType = RCC_OSCILLATORTYPE_HSI;
 8001a48:	2402      	movs	r4, #2
  RCC_OscInitStruct.PLL.PLLState = RCC_PLL_NONE;
  if (HAL_RCC_OscConfig(&RCC_OscInitStruct) != HAL_OK)
 8001a4a:	a812      	add	r0, sp, #72	; 0x48
  RCC_OscInitStruct.OscillatorType = RCC_OSCILLATORTYPE_HSI;
 8001a4c:	9412      	str	r4, [sp, #72]	; 0x48
  RCC_OscInitStruct.HSIDiv = RCC_HSI_DIV1;
 8001a4e:	9316      	str	r3, [sp, #88]	; 0x58
  RCC_OscInitStruct.HSICalibrationValue = RCC_HSICALIBRATION_DEFAULT;
 8001a50:	9217      	str	r2, [sp, #92]	; 0x5c
  RCC_OscInitStruct.PLL.PLLState = RCC_PLL_NONE;
 8001a52:	9319      	str	r3, [sp, #100]	; 0x64
  if (HAL_RCC_OscConfig(&RCC_OscInitStruct) != HAL_OK)
 8001a54:	f000 fba2 	bl	800219c <HAL_RCC_OscConfig>
 8001a58:	1e01      	subs	r1, r0, #0
 8001a5a:	d001      	beq.n	8001a60 <SystemClock_Config+0x4c>
  __ASM volatile ("cpsid i" : : : "memory");
 8001a5c:	b672      	cpsid	i
 8001a5e:	e7fe      	b.n	8001a5e <SystemClock_Config+0x4a>
  {
    Error_Handler();
  }
  /** Initializes the CPU, AHB and APB buses clocks
  */
  RCC_ClkInitStruct.ClockType = RCC_CLOCKTYPE_HCLK|RCC_CLOCKTYPE_SYSCLK
 8001a60:	2307      	movs	r3, #7
                              |RCC_CLOCKTYPE_PCLK1;
  RCC_ClkInitStruct.SYSCLKSource = RCC_SYSCLKSOURCE_HSI;
 8001a62:	9002      	str	r0, [sp, #8]
  RCC_ClkInitStruct.AHBCLKDivider = RCC_SYSCLK_DIV1;
 8001a64:	9003      	str	r0, [sp, #12]
  RCC_ClkInitStruct.APB1CLKDivider = RCC_HCLK_DIV1;
 8001a66:	9004      	str	r0, [sp, #16]

  if (HAL_RCC_ClockConfig(&RCC_ClkInitStruct, FLASH_LATENCY_0) != HAL_OK)
 8001a68:	a801      	add	r0, sp, #4
  RCC_ClkInitStruct.ClockType = RCC_CLOCKTYPE_HCLK|RCC_CLOCKTYPE_SYSCLK
 8001a6a:	9301      	str	r3, [sp, #4]
  if (HAL_RCC_ClockConfig(&RCC_ClkInitStruct, FLASH_LATENCY_0) != HAL_OK)
 8001a6c:	f000 fe04 	bl	8002678 <HAL_RCC_ClockConfig>
 8001a70:	2800      	cmp	r0, #0
 8001a72:	d001      	beq.n	8001a78 <SystemClock_Config+0x64>
 8001a74:	b672      	cpsid	i
 8001a76:	e7fe      	b.n	8001a76 <SystemClock_Config+0x62>
    Error_Handler();
  }
  /** Initializes the peripherals clocks
  */
  PeriphClkInit.PeriphClockSelection = RCC_PERIPHCLK_USART2;
  PeriphClkInit.Usart2ClockSelection = RCC_USART2CLKSOURCE_PCLK1;
 8001a78:	9007      	str	r0, [sp, #28]
  if (HAL_RCCEx_PeriphCLKConfig(&PeriphClkInit) != HAL_OK)
 8001a7a:	a805      	add	r0, sp, #20
  PeriphClkInit.PeriphClockSelection = RCC_PERIPHCLK_USART2;
 8001a7c:	9405      	str	r4, [sp, #20]
  if (HAL_RCCEx_PeriphCLKConfig(&PeriphClkInit) != HAL_OK)
 8001a7e:	f000 febd 	bl	80027fc <HAL_RCCEx_PeriphCLKConfig>
 8001a82:	2800      	cmp	r0, #0
 8001a84:	d001      	beq.n	8001a8a <SystemClock_Config+0x76>
 8001a86:	b672      	cpsid	i
 8001a88:	e7fe      	b.n	8001a88 <SystemClock_Config+0x74>
  {
    Error_Handler();
  }
}
 8001a8a:	b020      	add	sp, #128	; 0x80
 8001a8c:	bd10      	pop	{r4, pc}
	...

08001a90 <main>:
{
 8001a90:	b5f0      	push	{r4, r5, r6, r7, lr}
static void MX_GPIO_Init(void)
{
  GPIO_InitTypeDef GPIO_InitStruct = {0};

  /* GPIO Ports Clock Enable */
  __HAL_RCC_GPIOC_CLK_ENABLE();
 8001a92:	2604      	movs	r6, #4
  __HAL_RCC_GPIOF_CLK_ENABLE();
 8001a94:	2520      	movs	r5, #32
  __HAL_RCC_GPIOA_CLK_ENABLE();
 8001a96:	2401      	movs	r4, #1
  __HAL_RCC_GPIOB_CLK_ENABLE();
 8001a98:	2702      	movs	r7, #2
{
 8001a9a:	b08b      	sub	sp, #44	; 0x2c
  HAL_Init();
 8001a9c:	f000 f9f0 	bl	8001e80 <HAL_Init>
  SystemClock_Config();
 8001aa0:	f7ff ffb8 	bl	8001a14 <SystemClock_Config>
  GPIO_InitTypeDef GPIO_InitStruct = {0};
 8001aa4:	2214      	movs	r2, #20
 8001aa6:	2100      	movs	r1, #0
 8001aa8:	a805      	add	r0, sp, #20
 8001aaa:	f006 fdfb 	bl	80086a4 <memset>
  __HAL_RCC_GPIOC_CLK_ENABLE();
 8001aae:	4b56      	ldr	r3, [pc, #344]	; (8001c08 <main+0x178>)

  /*Configure GPIO pin Output Level */
  HAL_GPIO_WritePin(LED_GREEN_GPIO_Port, LED_GREEN_Pin, GPIO_PIN_RESET);
 8001ab0:	20a0      	movs	r0, #160	; 0xa0
  __HAL_RCC_GPIOC_CLK_ENABLE();
 8001ab2:	6b5a      	ldr	r2, [r3, #52]	; 0x34
  HAL_GPIO_WritePin(LED_GREEN_GPIO_Port, LED_GREEN_Pin, GPIO_PIN_RESET);
 8001ab4:	0029      	movs	r1, r5
  __HAL_RCC_GPIOC_CLK_ENABLE();
 8001ab6:	4332      	orrs	r2, r6
 8001ab8:	635a      	str	r2, [r3, #52]	; 0x34
 8001aba:	6b5a      	ldr	r2, [r3, #52]	; 0x34
  HAL_GPIO_WritePin(LED_GREEN_GPIO_Port, LED_GREEN_Pin, GPIO_PIN_RESET);
 8001abc:	05c0      	lsls	r0, r0, #23
  __HAL_RCC_GPIOC_CLK_ENABLE();
 8001abe:	4032      	ands	r2, r6
 8001ac0:	9201      	str	r2, [sp, #4]
 8001ac2:	9a01      	ldr	r2, [sp, #4]
  __HAL_RCC_GPIOF_CLK_ENABLE();
 8001ac4:	6b5a      	ldr	r2, [r3, #52]	; 0x34
 8001ac6:	432a      	orrs	r2, r5
 8001ac8:	635a      	str	r2, [r3, #52]	; 0x34
 8001aca:	6b5a      	ldr	r2, [r3, #52]	; 0x34
 8001acc:	402a      	ands	r2, r5
 8001ace:	9202      	str	r2, [sp, #8]
 8001ad0:	9a02      	ldr	r2, [sp, #8]
  __HAL_RCC_GPIOA_CLK_ENABLE();
 8001ad2:	6b5a      	ldr	r2, [r3, #52]	; 0x34
 8001ad4:	4322      	orrs	r2, r4
 8001ad6:	635a      	str	r2, [r3, #52]	; 0x34
 8001ad8:	6b5a      	ldr	r2, [r3, #52]	; 0x34
 8001ada:	4022      	ands	r2, r4
 8001adc:	9203      	str	r2, [sp, #12]
 8001ade:	9a03      	ldr	r2, [sp, #12]
  __HAL_RCC_GPIOB_CLK_ENABLE();
 8001ae0:	6b5a      	ldr	r2, [r3, #52]	; 0x34
 8001ae2:	433a      	orrs	r2, r7
 8001ae4:	635a      	str	r2, [r3, #52]	; 0x34
 8001ae6:	6b5b      	ldr	r3, [r3, #52]	; 0x34
  HAL_GPIO_WritePin(LED_GREEN_GPIO_Port, LED_GREEN_Pin, GPIO_PIN_RESET);
 8001ae8:	2200      	movs	r2, #0
  __HAL_RCC_GPIOB_CLK_ENABLE();
 8001aea:	403b      	ands	r3, r7
 8001aec:	9304      	str	r3, [sp, #16]
 8001aee:	9b04      	ldr	r3, [sp, #16]
  HAL_GPIO_WritePin(LED_GREEN_GPIO_Port, LED_GREEN_Pin, GPIO_PIN_RESET);
 8001af0:	f000 fb0e 	bl	8002110 <HAL_GPIO_WritePin>

  /*Configure GPIO pin Output Level */
  HAL_GPIO_WritePin(GPIOB, A111_ENABLE_Pin|A111_CS_N_Pin, GPIO_PIN_RESET);
 8001af4:	2200      	movs	r2, #0
 8001af6:	2160      	movs	r1, #96	; 0x60
 8001af8:	4844      	ldr	r0, [pc, #272]	; (8001c0c <main+0x17c>)
 8001afa:	f000 fb09 	bl	8002110 <HAL_GPIO_WritePin>
  /*Configure GPIO pin : LED_GREEN_Pin */
  GPIO_InitStruct.Pin = LED_GREEN_Pin;
  GPIO_InitStruct.Mode = GPIO_MODE_OUTPUT_PP;
  GPIO_InitStruct.Pull = GPIO_NOPULL;
  GPIO_InitStruct.Speed = GPIO_SPEED_FREQ_HIGH;
  HAL_GPIO_Init(LED_GREEN_GPIO_Port, &GPIO_InitStruct);
 8001afe:	20a0      	movs	r0, #160	; 0xa0
  GPIO_InitStruct.Pin = LED_GREEN_Pin;
 8001b00:	9505      	str	r5, [sp, #20]
  GPIO_InitStruct.Pull = GPIO_NOPULL;
 8001b02:	2500      	movs	r5, #0
  HAL_GPIO_Init(LED_GREEN_GPIO_Port, &GPIO_InitStruct);
 8001b04:	a905      	add	r1, sp, #20
 8001b06:	05c0      	lsls	r0, r0, #23
  GPIO_InitStruct.Mode = GPIO_MODE_OUTPUT_PP;
 8001b08:	9406      	str	r4, [sp, #24]
  GPIO_InitStruct.Pull = GPIO_NOPULL;
 8001b0a:	9507      	str	r5, [sp, #28]
  GPIO_InitStruct.Speed = GPIO_SPEED_FREQ_HIGH;
 8001b0c:	9708      	str	r7, [sp, #32]
  HAL_GPIO_Init(LED_GREEN_GPIO_Port, &GPIO_InitStruct);
 8001b0e:	f000 fa4b 	bl	8001fa8 <HAL_GPIO_Init>

  /*Configure GPIO pin : A111_SENSOR_INTERRUPT_Pin */
  GPIO_InitStruct.Pin = A111_SENSOR_INTERRUPT_Pin;
 8001b12:	2380      	movs	r3, #128	; 0x80
  GPIO_InitStruct.Mode = GPIO_MODE_IT_RISING;
  GPIO_InitStruct.Pull = GPIO_NOPULL;
  HAL_GPIO_Init(A111_SENSOR_INTERRUPT_GPIO_Port, &GPIO_InitStruct);
 8001b14:	20a0      	movs	r0, #160	; 0xa0
  GPIO_InitStruct.Pin = A111_SENSOR_INTERRUPT_Pin;
 8001b16:	005b      	lsls	r3, r3, #1
 8001b18:	9305      	str	r3, [sp, #20]
  GPIO_InitStruct.Mode = GPIO_MODE_IT_RISING;
 8001b1a:	4b3d      	ldr	r3, [pc, #244]	; (8001c10 <main+0x180>)
  HAL_GPIO_Init(A111_SENSOR_INTERRUPT_GPIO_Port, &GPIO_InitStruct);
 8001b1c:	a905      	add	r1, sp, #20
 8001b1e:	05c0      	lsls	r0, r0, #23
  GPIO_InitStruct.Mode = GPIO_MODE_IT_RISING;
 8001b20:	9306      	str	r3, [sp, #24]
  GPIO_InitStruct.Pull = GPIO_NOPULL;
 8001b22:	9507      	str	r5, [sp, #28]
  HAL_GPIO_Init(A111_SENSOR_INTERRUPT_GPIO_Port, &GPIO_InitStruct);
 8001b24:	f000 fa40 	bl	8001fa8 <HAL_GPIO_Init>

  /*Configure GPIO pins : A111_ENABLE_Pin A111_CS_N_Pin */
  GPIO_InitStruct.Pin = A111_ENABLE_Pin|A111_CS_N_Pin;
 8001b28:	2360      	movs	r3, #96	; 0x60
  GPIO_InitStruct.Mode = GPIO_MODE_OUTPUT_PP;
  GPIO_InitStruct.Pull = GPIO_NOPULL;
  GPIO_InitStruct.Speed = GPIO_SPEED_FREQ_LOW;
  HAL_GPIO_Init(GPIOB, &GPIO_InitStruct);
 8001b2a:	a905      	add	r1, sp, #20
 8001b2c:	4837      	ldr	r0, [pc, #220]	; (8001c0c <main+0x17c>)
  GPIO_InitStruct.Pin = A111_ENABLE_Pin|A111_CS_N_Pin;
 8001b2e:	9305      	str	r3, [sp, #20]
  GPIO_InitStruct.Mode = GPIO_MODE_OUTPUT_PP;
 8001b30:	9406      	str	r4, [sp, #24]
  GPIO_InitStruct.Pull = GPIO_NOPULL;
 8001b32:	9507      	str	r5, [sp, #28]
  GPIO_InitStruct.Speed = GPIO_SPEED_FREQ_LOW;
 8001b34:	9508      	str	r5, [sp, #32]
  HAL_GPIO_Init(GPIOB, &GPIO_InitStruct);
 8001b36:	f000 fa37 	bl	8001fa8 <HAL_GPIO_Init>

  /* EXTI interrupt init*/
  HAL_NVIC_SetPriority(EXTI4_15_IRQn, 0, 0);
 8001b3a:	0029      	movs	r1, r5
 8001b3c:	002a      	movs	r2, r5
 8001b3e:	2007      	movs	r0, #7
 8001b40:	f000 f9e2 	bl	8001f08 <HAL_NVIC_SetPriority>
  HAL_NVIC_EnableIRQ(EXTI4_15_IRQn);
 8001b44:	2007      	movs	r0, #7
 8001b46:	f000 fa09 	bl	8001f5c <HAL_NVIC_EnableIRQ>
  huart2.Instance = USART2;
 8001b4a:	4c32      	ldr	r4, [pc, #200]	; (8001c14 <main+0x184>)
 8001b4c:	4b32      	ldr	r3, [pc, #200]	; (8001c18 <main+0x188>)
  if (HAL_UART_Init(&huart2) != HAL_OK)
 8001b4e:	0020      	movs	r0, r4
  huart2.Instance = USART2;
 8001b50:	6023      	str	r3, [r4, #0]
  huart2.Init.BaudRate = 115200;
 8001b52:	23e1      	movs	r3, #225	; 0xe1
 8001b54:	025b      	lsls	r3, r3, #9
 8001b56:	6063      	str	r3, [r4, #4]
  huart2.Init.Mode = UART_MODE_TX_RX;
 8001b58:	230c      	movs	r3, #12
  huart2.Init.WordLength = UART_WORDLENGTH_8B;
 8001b5a:	60a5      	str	r5, [r4, #8]
  huart2.Init.StopBits = UART_STOPBITS_1;
 8001b5c:	60e5      	str	r5, [r4, #12]
  huart2.Init.Parity = UART_PARITY_NONE;
 8001b5e:	6125      	str	r5, [r4, #16]
  huart2.Init.Mode = UART_MODE_TX_RX;
 8001b60:	6163      	str	r3, [r4, #20]
  huart2.Init.HwFlowCtl = UART_HWCONTROL_NONE;
 8001b62:	61a5      	str	r5, [r4, #24]
  huart2.Init.OverSampling = UART_OVERSAMPLING_16;
 8001b64:	61e5      	str	r5, [r4, #28]
  huart2.Init.OneBitSampling = UART_ONE_BIT_SAMPLE_DISABLE;
 8001b66:	6225      	str	r5, [r4, #32]
  huart2.Init.ClockPrescaler = UART_PRESCALER_DIV1;
 8001b68:	6265      	str	r5, [r4, #36]	; 0x24
  huart2.AdvancedInit.AdvFeatureInit = UART_ADVFEATURE_NO_INIT;
 8001b6a:	62a5      	str	r5, [r4, #40]	; 0x28
  if (HAL_UART_Init(&huart2) != HAL_OK)
 8001b6c:	f001 fbf0 	bl	8003350 <HAL_UART_Init>
 8001b70:	0001      	movs	r1, r0
 8001b72:	42a8      	cmp	r0, r5
 8001b74:	d001      	beq.n	8001b7a <main+0xea>
 8001b76:	b672      	cpsid	i
 8001b78:	e7fe      	b.n	8001b78 <main+0xe8>
  if (HAL_UARTEx_SetTxFifoThreshold(&huart2, UART_TXFIFO_THRESHOLD_1_8) != HAL_OK)
 8001b7a:	0020      	movs	r0, r4
 8001b7c:	f001 fc6c 	bl	8003458 <HAL_UARTEx_SetTxFifoThreshold>
 8001b80:	1e01      	subs	r1, r0, #0
 8001b82:	d001      	beq.n	8001b88 <main+0xf8>
 8001b84:	b672      	cpsid	i
 8001b86:	e7fe      	b.n	8001b86 <main+0xf6>
  if (HAL_UARTEx_SetRxFifoThreshold(&huart2, UART_RXFIFO_THRESHOLD_1_8) != HAL_OK)
 8001b88:	0020      	movs	r0, r4
 8001b8a:	f001 fc87 	bl	800349c <HAL_UARTEx_SetRxFifoThreshold>
 8001b8e:	2800      	cmp	r0, #0
 8001b90:	d001      	beq.n	8001b96 <main+0x106>
 8001b92:	b672      	cpsid	i
 8001b94:	e7fe      	b.n	8001b94 <main+0x104>
  if (HAL_UARTEx_DisableFifoMode(&huart2) != HAL_OK)
 8001b96:	0020      	movs	r0, r4
 8001b98:	f001 fc40 	bl	800341c <HAL_UARTEx_DisableFifoMode>
 8001b9c:	2800      	cmp	r0, #0
 8001b9e:	d001      	beq.n	8001ba4 <main+0x114>
 8001ba0:	b672      	cpsid	i
 8001ba2:	e7fe      	b.n	8001ba2 <main+0x112>
  hspi1.Instance = SPI1;
 8001ba4:	4b1d      	ldr	r3, [pc, #116]	; (8001c1c <main+0x18c>)
 8001ba6:	4a1e      	ldr	r2, [pc, #120]	; (8001c20 <main+0x190>)
  hspi1.Init.Direction = SPI_DIRECTION_2LINES;
 8001ba8:	6098      	str	r0, [r3, #8]
  hspi1.Instance = SPI1;
 8001baa:	601a      	str	r2, [r3, #0]
  hspi1.Init.Mode = SPI_MODE_MASTER;
 8001bac:	2282      	movs	r2, #130	; 0x82
 8001bae:	0052      	lsls	r2, r2, #1
 8001bb0:	605a      	str	r2, [r3, #4]
  hspi1.Init.DataSize = SPI_DATASIZE_8BIT;
 8001bb2:	22e0      	movs	r2, #224	; 0xe0
 8001bb4:	00d2      	lsls	r2, r2, #3
 8001bb6:	60da      	str	r2, [r3, #12]
  hspi1.Init.NSS = SPI_NSS_SOFT;
 8001bb8:	2280      	movs	r2, #128	; 0x80
 8001bba:	0092      	lsls	r2, r2, #2
 8001bbc:	619a      	str	r2, [r3, #24]
  hspi1.Init.BaudRatePrescaler = SPI_BAUDRATEPRESCALER_16;
 8001bbe:	3ae9      	subs	r2, #233	; 0xe9
 8001bc0:	3aff      	subs	r2, #255	; 0xff
 8001bc2:	61da      	str	r2, [r3, #28]
  hspi1.Init.CRCPolynomial = 7;
 8001bc4:	3a11      	subs	r2, #17
  hspi1.Init.CLKPolarity = SPI_POLARITY_LOW;
 8001bc6:	6118      	str	r0, [r3, #16]
  hspi1.Init.CLKPhase = SPI_PHASE_1EDGE;
 8001bc8:	6158      	str	r0, [r3, #20]
  hspi1.Init.FirstBit = SPI_FIRSTBIT_MSB;
 8001bca:	6218      	str	r0, [r3, #32]
  hspi1.Init.TIMode = SPI_TIMODE_DISABLE;
 8001bcc:	6258      	str	r0, [r3, #36]	; 0x24
  hspi1.Init.CRCCalculation = SPI_CRCCALCULATION_DISABLE;
 8001bce:	6298      	str	r0, [r3, #40]	; 0x28
  hspi1.Init.CRCPolynomial = 7;
 8001bd0:	62da      	str	r2, [r3, #44]	; 0x2c
  hspi1.Init.CRCLength = SPI_CRC_LENGTH_DATASIZE;
 8001bd2:	6318      	str	r0, [r3, #48]	; 0x30
  hspi1.Init.NSSPMode = SPI_NSS_PULSE_ENABLE;
 8001bd4:	3201      	adds	r2, #1
  if (HAL_SPI_Init(&hspi1) != HAL_OK)
 8001bd6:	0018      	movs	r0, r3
  hspi1.Init.NSSPMode = SPI_NSS_PULSE_ENABLE;
 8001bd8:	635a      	str	r2, [r3, #52]	; 0x34
  if (HAL_SPI_Init(&hspi1) != HAL_OK)
 8001bda:	f000 ffc5 	bl	8002b68 <HAL_SPI_Init>
 8001bde:	2800      	cmp	r0, #0
 8001be0:	d001      	beq.n	8001be6 <main+0x156>
 8001be2:	b672      	cpsid	i
 8001be4:	e7fe      	b.n	8001be4 <main+0x154>
  HAL_UART_Transmit(&huart2, (uint8_t*)"OK\n\r", 4, HAL_MAX_DELAY);
 8001be6:	2301      	movs	r3, #1
 8001be8:	0032      	movs	r2, r6
 8001bea:	425b      	negs	r3, r3
 8001bec:	490d      	ldr	r1, [pc, #52]	; (8001c24 <main+0x194>)
 8001bee:	0020      	movs	r0, r4
 8001bf0:	f001 fb08 	bl	8003204 <HAL_UART_Transmit>
  threshold = DETECTION_THRESHOLD;
 8001bf4:	4b0c      	ldr	r3, [pc, #48]	; (8001c28 <main+0x198>)
 8001bf6:	4a0d      	ldr	r2, [pc, #52]	; (8001c2c <main+0x19c>)
 8001bf8:	601a      	str	r2, [r3, #0]
  if(!acc_detector_presence()) {
 8001bfa:	f7ff feb5 	bl	8001968 <acc_detector_presence>
 8001bfe:	2800      	cmp	r0, #0
 8001c00:	d101      	bne.n	8001c06 <main+0x176>
 8001c02:	b672      	cpsid	i
 8001c04:	e7fe      	b.n	8001c04 <main+0x174>
 8001c06:	e7fe      	b.n	8001c06 <main+0x176>
 8001c08:	40021000 	.word	0x40021000
 8001c0c:	50000400 	.word	0x50000400
 8001c10:	10110000 	.word	0x10110000
 8001c14:	20000290 	.word	0x20000290
 8001c18:	40004400 	.word	0x40004400
 8001c1c:	2000022c 	.word	0x2000022c
 8001c20:	40013000 	.word	0x40013000
 8001c24:	0800b707 	.word	0x0800b707
 8001c28:	2000021c 	.word	0x2000021c
 8001c2c:	40300000 	.word	0x40300000

08001c30 <_write>:

}

/* USER CODE BEGIN 4 */
int _write(int file, char *ptr, int len) {
 8001c30:	b510      	push	{r4, lr}
 8001c32:	0014      	movs	r4, r2
//	for (i = 0; i < len; i++) {
//		ITM_SendChar((*ptr++));
//		HAL_UART_Transmit(&huart2, (uint8_t*)ptr++, len, HAL_MAX_DELAY);
//	}
	(void)file;
	HAL_UART_Transmit(&huart2, (uint8_t*)ptr, len, 0xFFFF);
 8001c34:	4b03      	ldr	r3, [pc, #12]	; (8001c44 <_write+0x14>)
 8001c36:	b292      	uxth	r2, r2
 8001c38:	4803      	ldr	r0, [pc, #12]	; (8001c48 <_write+0x18>)
 8001c3a:	f001 fae3 	bl	8003204 <HAL_UART_Transmit>
	return len;
}
 8001c3e:	0020      	movs	r0, r4
 8001c40:	bd10      	pop	{r4, pc}
 8001c42:	46c0      	nop			; (mov r8, r8)
 8001c44:	0000ffff 	.word	0x0000ffff
 8001c48:	20000290 	.word	0x20000290

08001c4c <HAL_MspInit>:
/* USER CODE END 0 */
/**
  * Initializes the Global MSP.
  */
void HAL_MspInit(void)
{
 8001c4c:	b507      	push	{r0, r1, r2, lr}
  /* USER CODE BEGIN MspInit 0 */

  /* USER CODE END MspInit 0 */

  __HAL_RCC_SYSCFG_CLK_ENABLE();
 8001c4e:	2001      	movs	r0, #1
 8001c50:	4b0a      	ldr	r3, [pc, #40]	; (8001c7c <HAL_MspInit+0x30>)
 8001c52:	6c19      	ldr	r1, [r3, #64]	; 0x40
 8001c54:	4301      	orrs	r1, r0
 8001c56:	6419      	str	r1, [r3, #64]	; 0x40
  __HAL_RCC_PWR_CLK_ENABLE();
 8001c58:	2180      	movs	r1, #128	; 0x80
  __HAL_RCC_SYSCFG_CLK_ENABLE();
 8001c5a:	6c1a      	ldr	r2, [r3, #64]	; 0x40
  __HAL_RCC_PWR_CLK_ENABLE();
 8001c5c:	0549      	lsls	r1, r1, #21
  __HAL_RCC_SYSCFG_CLK_ENABLE();
 8001c5e:	4002      	ands	r2, r0
 8001c60:	9200      	str	r2, [sp, #0]
 8001c62:	9a00      	ldr	r2, [sp, #0]
  __HAL_RCC_PWR_CLK_ENABLE();
 8001c64:	6bda      	ldr	r2, [r3, #60]	; 0x3c

  /* System interrupt init*/

  /** Disable the internal Pull-Up in Dead Battery pins of UCPD peripheral
  */
  HAL_SYSCFG_StrobeDBattpinsConfig(SYSCFG_CFGR1_UCPD1_STROBE | SYSCFG_CFGR1_UCPD2_STROBE);
 8001c66:	30bf      	adds	r0, #191	; 0xbf
  __HAL_RCC_PWR_CLK_ENABLE();
 8001c68:	430a      	orrs	r2, r1
 8001c6a:	63da      	str	r2, [r3, #60]	; 0x3c
 8001c6c:	6bdb      	ldr	r3, [r3, #60]	; 0x3c
  HAL_SYSCFG_StrobeDBattpinsConfig(SYSCFG_CFGR1_UCPD1_STROBE | SYSCFG_CFGR1_UCPD2_STROBE);
 8001c6e:	00c0      	lsls	r0, r0, #3
  __HAL_RCC_PWR_CLK_ENABLE();
 8001c70:	400b      	ands	r3, r1
 8001c72:	9301      	str	r3, [sp, #4]
 8001c74:	9b01      	ldr	r3, [sp, #4]
  HAL_SYSCFG_StrobeDBattpinsConfig(SYSCFG_CFGR1_UCPD1_STROBE | SYSCFG_CFGR1_UCPD2_STROBE);
 8001c76:	f000 f93b 	bl	8001ef0 <HAL_SYSCFG_StrobeDBattpinsConfig>

  /* USER CODE BEGIN MspInit 1 */

  /* USER CODE END MspInit 1 */
}
 8001c7a:	bd07      	pop	{r0, r1, r2, pc}
 8001c7c:	40021000 	.word	0x40021000

08001c80 <HAL_SPI_MspInit>:
* This function configures the hardware resources used in this example
* @param hspi: SPI handle pointer
* @retval None
*/
void HAL_SPI_MspInit(SPI_HandleTypeDef* hspi)
{
 8001c80:	b510      	push	{r4, lr}
 8001c82:	0004      	movs	r4, r0
 8001c84:	b088      	sub	sp, #32
  GPIO_InitTypeDef GPIO_InitStruct = {0};
 8001c86:	2214      	movs	r2, #20
 8001c88:	2100      	movs	r1, #0
 8001c8a:	a803      	add	r0, sp, #12
 8001c8c:	f006 fd0a 	bl	80086a4 <memset>
  if(hspi->Instance==SPI1)
 8001c90:	4b10      	ldr	r3, [pc, #64]	; (8001cd4 <HAL_SPI_MspInit+0x54>)
 8001c92:	6822      	ldr	r2, [r4, #0]
 8001c94:	429a      	cmp	r2, r3
 8001c96:	d11a      	bne.n	8001cce <HAL_SPI_MspInit+0x4e>
  {
  /* USER CODE BEGIN SPI1_MspInit 0 */

  /* USER CODE END SPI1_MspInit 0 */
    /* Peripheral clock enable */
    __HAL_RCC_SPI1_CLK_ENABLE();
 8001c98:	2080      	movs	r0, #128	; 0x80
 8001c9a:	4b0f      	ldr	r3, [pc, #60]	; (8001cd8 <HAL_SPI_MspInit+0x58>)
 8001c9c:	0140      	lsls	r0, r0, #5
 8001c9e:	6c19      	ldr	r1, [r3, #64]	; 0x40
 8001ca0:	4301      	orrs	r1, r0
 8001ca2:	6419      	str	r1, [r3, #64]	; 0x40

    __HAL_RCC_GPIOA_CLK_ENABLE();
 8001ca4:	2101      	movs	r1, #1
    __HAL_RCC_SPI1_CLK_ENABLE();
 8001ca6:	6c1a      	ldr	r2, [r3, #64]	; 0x40
 8001ca8:	4002      	ands	r2, r0
 8001caa:	9201      	str	r2, [sp, #4]
 8001cac:	9a01      	ldr	r2, [sp, #4]
    __HAL_RCC_GPIOA_CLK_ENABLE();
 8001cae:	6b5a      	ldr	r2, [r3, #52]	; 0x34
    GPIO_InitStruct.Pin = A111_SPI_SCK_Pin|A111_SPI_MISO_Pin|A111_SPI_MOSI_Pin;
    GPIO_InitStruct.Mode = GPIO_MODE_AF_PP;
    GPIO_InitStruct.Pull = GPIO_NOPULL;
    GPIO_InitStruct.Speed = GPIO_SPEED_FREQ_LOW;
    GPIO_InitStruct.Alternate = GPIO_AF0_SPI1;
    HAL_GPIO_Init(GPIOA, &GPIO_InitStruct);
 8001cb0:	20a0      	movs	r0, #160	; 0xa0
    __HAL_RCC_GPIOA_CLK_ENABLE();
 8001cb2:	430a      	orrs	r2, r1
 8001cb4:	635a      	str	r2, [r3, #52]	; 0x34
 8001cb6:	6b5b      	ldr	r3, [r3, #52]	; 0x34
    HAL_GPIO_Init(GPIOA, &GPIO_InitStruct);
 8001cb8:	05c0      	lsls	r0, r0, #23
    __HAL_RCC_GPIOA_CLK_ENABLE();
 8001cba:	400b      	ands	r3, r1
 8001cbc:	9302      	str	r3, [sp, #8]
 8001cbe:	9b02      	ldr	r3, [sp, #8]
    GPIO_InitStruct.Pin = A111_SPI_SCK_Pin|A111_SPI_MISO_Pin|A111_SPI_MOSI_Pin;
 8001cc0:	23c2      	movs	r3, #194	; 0xc2
    HAL_GPIO_Init(GPIOA, &GPIO_InitStruct);
 8001cc2:	a903      	add	r1, sp, #12
    GPIO_InitStruct.Pin = A111_SPI_SCK_Pin|A111_SPI_MISO_Pin|A111_SPI_MOSI_Pin;
 8001cc4:	9303      	str	r3, [sp, #12]
    GPIO_InitStruct.Mode = GPIO_MODE_AF_PP;
 8001cc6:	3bc0      	subs	r3, #192	; 0xc0
 8001cc8:	9304      	str	r3, [sp, #16]
    HAL_GPIO_Init(GPIOA, &GPIO_InitStruct);
 8001cca:	f000 f96d 	bl	8001fa8 <HAL_GPIO_Init>
  /* USER CODE BEGIN SPI1_MspInit 1 */

  /* USER CODE END SPI1_MspInit 1 */
  }

}
 8001cce:	b008      	add	sp, #32
 8001cd0:	bd10      	pop	{r4, pc}
 8001cd2:	46c0      	nop			; (mov r8, r8)
 8001cd4:	40013000 	.word	0x40013000
 8001cd8:	40021000 	.word	0x40021000

08001cdc <HAL_UART_MspInit>:
* This function configures the hardware resources used in this example
* @param huart: UART handle pointer
* @retval None
*/
void HAL_UART_MspInit(UART_HandleTypeDef* huart)
{
 8001cdc:	b510      	push	{r4, lr}
 8001cde:	0004      	movs	r4, r0
 8001ce0:	b088      	sub	sp, #32
  GPIO_InitTypeDef GPIO_InitStruct = {0};
 8001ce2:	2214      	movs	r2, #20
 8001ce4:	2100      	movs	r1, #0
 8001ce6:	a803      	add	r0, sp, #12
 8001ce8:	f006 fcdc 	bl	80086a4 <memset>
  if(huart->Instance==USART2)
 8001cec:	4b11      	ldr	r3, [pc, #68]	; (8001d34 <HAL_UART_MspInit+0x58>)
 8001cee:	6822      	ldr	r2, [r4, #0]
 8001cf0:	429a      	cmp	r2, r3
 8001cf2:	d11c      	bne.n	8001d2e <HAL_UART_MspInit+0x52>
  {
  /* USER CODE BEGIN USART2_MspInit 0 */

  /* USER CODE END USART2_MspInit 0 */
    /* Peripheral clock enable */
    __HAL_RCC_USART2_CLK_ENABLE();
 8001cf4:	2080      	movs	r0, #128	; 0x80
 8001cf6:	4b10      	ldr	r3, [pc, #64]	; (8001d38 <HAL_UART_MspInit+0x5c>)
 8001cf8:	0280      	lsls	r0, r0, #10
 8001cfa:	6bd9      	ldr	r1, [r3, #60]	; 0x3c
 8001cfc:	4301      	orrs	r1, r0
 8001cfe:	63d9      	str	r1, [r3, #60]	; 0x3c
 8001d00:	6bda      	ldr	r2, [r3, #60]	; 0x3c
 8001d02:	4002      	ands	r2, r0
 8001d04:	9201      	str	r2, [sp, #4]
 8001d06:	9a01      	ldr	r2, [sp, #4]

    __HAL_RCC_GPIOA_CLK_ENABLE();
 8001d08:	2201      	movs	r2, #1
 8001d0a:	6b59      	ldr	r1, [r3, #52]	; 0x34
    GPIO_InitStruct.Pin = USART2_TX_Pin|USART2_RX_Pin;
    GPIO_InitStruct.Mode = GPIO_MODE_AF_PP;
    GPIO_InitStruct.Pull = GPIO_PULLUP;
    GPIO_InitStruct.Speed = GPIO_SPEED_FREQ_LOW;
    GPIO_InitStruct.Alternate = GPIO_AF1_USART2;
    HAL_GPIO_Init(GPIOA, &GPIO_InitStruct);
 8001d0c:	20a0      	movs	r0, #160	; 0xa0
    __HAL_RCC_GPIOA_CLK_ENABLE();
 8001d0e:	4311      	orrs	r1, r2
 8001d10:	6359      	str	r1, [r3, #52]	; 0x34
 8001d12:	6b5b      	ldr	r3, [r3, #52]	; 0x34
    HAL_GPIO_Init(GPIOA, &GPIO_InitStruct);
 8001d14:	a903      	add	r1, sp, #12
    __HAL_RCC_GPIOA_CLK_ENABLE();
 8001d16:	4013      	ands	r3, r2
 8001d18:	9302      	str	r3, [sp, #8]
 8001d1a:	9b02      	ldr	r3, [sp, #8]
    GPIO_InitStruct.Pin = USART2_TX_Pin|USART2_RX_Pin;
 8001d1c:	230c      	movs	r3, #12
    HAL_GPIO_Init(GPIOA, &GPIO_InitStruct);
 8001d1e:	05c0      	lsls	r0, r0, #23
    GPIO_InitStruct.Pin = USART2_TX_Pin|USART2_RX_Pin;
 8001d20:	9303      	str	r3, [sp, #12]
    GPIO_InitStruct.Mode = GPIO_MODE_AF_PP;
 8001d22:	3b0a      	subs	r3, #10
 8001d24:	9304      	str	r3, [sp, #16]
    GPIO_InitStruct.Pull = GPIO_PULLUP;
 8001d26:	9205      	str	r2, [sp, #20]
    GPIO_InitStruct.Alternate = GPIO_AF1_USART2;
 8001d28:	9207      	str	r2, [sp, #28]
    HAL_GPIO_Init(GPIOA, &GPIO_InitStruct);
 8001d2a:	f000 f93d 	bl	8001fa8 <HAL_GPIO_Init>
  /* USER CODE BEGIN USART2_MspInit 1 */

  /* USER CODE END USART2_MspInit 1 */
  }

}
 8001d2e:	b008      	add	sp, #32
 8001d30:	bd10      	pop	{r4, pc}
 8001d32:	46c0      	nop			; (mov r8, r8)
 8001d34:	40004400 	.word	0x40004400
 8001d38:	40021000 	.word	0x40021000

08001d3c <NMI_Handler>:
/******************************************************************************/
/**
  * @brief This function handles Non maskable interrupt.
  */
void NMI_Handler(void)
{
 8001d3c:	e7fe      	b.n	8001d3c <NMI_Handler>

08001d3e <HardFault_Handler>:

/**
  * @brief This function handles Hard fault interrupt.
  */
void HardFault_Handler(void)
{
 8001d3e:	e7fe      	b.n	8001d3e <HardFault_Handler>

08001d40 <SVC_Handler>:

  /* USER CODE END SVC_IRQn 0 */
  /* USER CODE BEGIN SVC_IRQn 1 */

  /* USER CODE END SVC_IRQn 1 */
}
 8001d40:	4770      	bx	lr

08001d42 <PendSV_Handler>:
 8001d42:	4770      	bx	lr

08001d44 <SysTick_Handler>:

/**
  * @brief This function handles System tick timer.
  */
void SysTick_Handler(void)
{
 8001d44:	b510      	push	{r4, lr}
  /* USER CODE BEGIN SysTick_IRQn 0 */

  /* USER CODE END SysTick_IRQn 0 */
  HAL_IncTick();
 8001d46:	f000 f8af 	bl	8001ea8 <HAL_IncTick>
  /* USER CODE BEGIN SysTick_IRQn 1 */

  /* USER CODE END SysTick_IRQn 1 */
}
 8001d4a:	bd10      	pop	{r4, pc}

08001d4c <EXTI4_15_IRQHandler>:
void EXTI4_15_IRQHandler(void)
{
  /* USER CODE BEGIN EXTI4_15_IRQn 0 */

  /* USER CODE END EXTI4_15_IRQn 0 */
  HAL_GPIO_EXTI_IRQHandler(GPIO_PIN_8);
 8001d4c:	2080      	movs	r0, #128	; 0x80
{
 8001d4e:	b510      	push	{r4, lr}
  HAL_GPIO_EXTI_IRQHandler(GPIO_PIN_8);
 8001d50:	0040      	lsls	r0, r0, #1
 8001d52:	f000 f9e5 	bl	8002120 <HAL_GPIO_EXTI_IRQHandler>
  /* USER CODE BEGIN EXTI4_15_IRQn 1 */

  /* USER CODE END EXTI4_15_IRQn 1 */
}
 8001d56:	bd10      	pop	{r4, pc}

08001d58 <_read>:
	_kill(status, -1);
	while (1) {}		/* Make sure we hang here */
}

__attribute__((weak)) int _read(int file, char *ptr, int len)
{
 8001d58:	b570      	push	{r4, r5, r6, lr}
 8001d5a:	000e      	movs	r6, r1
 8001d5c:	0015      	movs	r5, r2
	int DataIdx;

	for (DataIdx = 0; DataIdx < len; DataIdx++)
 8001d5e:	000c      	movs	r4, r1
 8001d60:	1ba3      	subs	r3, r4, r6
 8001d62:	429d      	cmp	r5, r3
 8001d64:	dc01      	bgt.n	8001d6a <_read+0x12>
	{
		*ptr++ = __io_getchar();
	}

return len;
}
 8001d66:	0028      	movs	r0, r5
 8001d68:	bd70      	pop	{r4, r5, r6, pc}
		*ptr++ = __io_getchar();
 8001d6a:	e000      	b.n	8001d6e <_read+0x16>
 8001d6c:	bf00      	nop
 8001d6e:	7020      	strb	r0, [r4, #0]
 8001d70:	3401      	adds	r4, #1
 8001d72:	e7f5      	b.n	8001d60 <_read+0x8>

08001d74 <_close>:
	return len;
}

int _close(int file)
{
	return -1;
 8001d74:	2001      	movs	r0, #1
}
 8001d76:	4240      	negs	r0, r0
 8001d78:	4770      	bx	lr

08001d7a <_fstat>:


int _fstat(int file, struct stat *st)
{
	st->st_mode = S_IFCHR;
 8001d7a:	2380      	movs	r3, #128	; 0x80
 8001d7c:	019b      	lsls	r3, r3, #6
	return 0;
}
 8001d7e:	2000      	movs	r0, #0
	st->st_mode = S_IFCHR;
 8001d80:	604b      	str	r3, [r1, #4]
}
 8001d82:	4770      	bx	lr

08001d84 <_isatty>:

int _isatty(int file)
{
	return 1;
}
 8001d84:	2001      	movs	r0, #1
 8001d86:	4770      	bx	lr

08001d88 <_lseek>:

int _lseek(int file, int ptr, int dir)
{
	return 0;
}
 8001d88:	2000      	movs	r0, #0
 8001d8a:	4770      	bx	lr

08001d8c <_sbrk>:
void *_sbrk(ptrdiff_t incr)
{
  extern uint8_t _end; /* Symbol defined in the linker script */
  extern uint8_t _estack; /* Symbol defined in the linker script */
  extern uint32_t _Min_Stack_Size; /* Symbol defined in the linker script */
  const uint32_t stack_limit = (uint32_t)&_estack - (uint32_t)&_Min_Stack_Size;
 8001d8c:	4b0b      	ldr	r3, [pc, #44]	; (8001dbc <_sbrk+0x30>)
 8001d8e:	490c      	ldr	r1, [pc, #48]	; (8001dc0 <_sbrk+0x34>)
{
 8001d90:	0002      	movs	r2, r0
  const uint32_t stack_limit = (uint32_t)&_estack - (uint32_t)&_Min_Stack_Size;
 8001d92:	1ac9      	subs	r1, r1, r3
  const uint8_t *max_heap = (uint8_t *)stack_limit;
  uint8_t *prev_heap_end;

  /* Initialize heap end at first call */
  if (NULL == __sbrk_heap_end)
 8001d94:	4b0b      	ldr	r3, [pc, #44]	; (8001dc4 <_sbrk+0x38>)
{
 8001d96:	b510      	push	{r4, lr}
  if (NULL == __sbrk_heap_end)
 8001d98:	6818      	ldr	r0, [r3, #0]
 8001d9a:	2800      	cmp	r0, #0
 8001d9c:	d101      	bne.n	8001da2 <_sbrk+0x16>
  {
    __sbrk_heap_end = &_end;
 8001d9e:	480a      	ldr	r0, [pc, #40]	; (8001dc8 <_sbrk+0x3c>)
 8001da0:	6018      	str	r0, [r3, #0]
  }

  /* Protect heap from growing into the reserved MSP stack */
  if (__sbrk_heap_end + incr > max_heap)
 8001da2:	6818      	ldr	r0, [r3, #0]
 8001da4:	1882      	adds	r2, r0, r2
 8001da6:	428a      	cmp	r2, r1
 8001da8:	d906      	bls.n	8001db8 <_sbrk+0x2c>
  {
    errno = ENOMEM;
 8001daa:	f006 fc21 	bl	80085f0 <__errno>
 8001dae:	230c      	movs	r3, #12
 8001db0:	6003      	str	r3, [r0, #0]
    return (void *)-1;
 8001db2:	2001      	movs	r0, #1
 8001db4:	4240      	negs	r0, r0

  prev_heap_end = __sbrk_heap_end;
  __sbrk_heap_end += incr;

  return (void *)prev_heap_end;
}
 8001db6:	bd10      	pop	{r4, pc}
  __sbrk_heap_end += incr;
 8001db8:	601a      	str	r2, [r3, #0]
  return (void *)prev_heap_end;
 8001dba:	e7fc      	b.n	8001db6 <_sbrk+0x2a>
 8001dbc:	00000800 	.word	0x00000800
 8001dc0:	20009000 	.word	0x20009000
 8001dc4:	20000198 	.word	0x20000198
 8001dc8:	20000360 	.word	0x20000360

08001dcc <SystemInit>:
{
  /* Configure the Vector Table location add offset address ------------------*/
#ifdef VECT_TAB_SRAM
  SCB->VTOR = SRAM_BASE | VECT_TAB_OFFSET; /* Vector Table Relocation in Internal SRAM */
#else
  SCB->VTOR = FLASH_BASE | VECT_TAB_OFFSET; /* Vector Table Relocation in Internal FLASH */
 8001dcc:	2280      	movs	r2, #128	; 0x80
 8001dce:	4b02      	ldr	r3, [pc, #8]	; (8001dd8 <SystemInit+0xc>)
 8001dd0:	0512      	lsls	r2, r2, #20
 8001dd2:	609a      	str	r2, [r3, #8]
#endif
}
 8001dd4:	4770      	bx	lr
 8001dd6:	46c0      	nop			; (mov r8, r8)
 8001dd8:	e000ed00 	.word	0xe000ed00

08001ddc <Reset_Handler>:

  .section .text.Reset_Handler
  .weak Reset_Handler
  .type Reset_Handler, %function
Reset_Handler:
  ldr   r0, =_estack
 8001ddc:	480d      	ldr	r0, [pc, #52]	; (8001e14 <LoopForever+0x2>)
  mov   sp, r0          /* set stack pointer */
 8001dde:	4685      	mov	sp, r0

/* Call the clock system initialization function.*/
  bl  SystemInit
 8001de0:	f7ff fff4 	bl	8001dcc <SystemInit>

/* Copy the data segment initializers from flash to SRAM */
  ldr r0, =_sdata
 8001de4:	480c      	ldr	r0, [pc, #48]	; (8001e18 <LoopForever+0x6>)
  ldr r1, =_edata
 8001de6:	490d      	ldr	r1, [pc, #52]	; (8001e1c <LoopForever+0xa>)
  ldr r2, =_sidata
 8001de8:	4a0d      	ldr	r2, [pc, #52]	; (8001e20 <LoopForever+0xe>)
  movs r3, #0
 8001dea:	2300      	movs	r3, #0
  b LoopCopyDataInit
 8001dec:	e002      	b.n	8001df4 <LoopCopyDataInit>

08001dee <CopyDataInit>:

CopyDataInit:
  ldr r4, [r2, r3]
 8001dee:	58d4      	ldr	r4, [r2, r3]
  str r4, [r0, r3]
 8001df0:	50c4      	str	r4, [r0, r3]
  adds r3, r3, #4
 8001df2:	3304      	adds	r3, #4

08001df4 <LoopCopyDataInit>:

LoopCopyDataInit:
  adds r4, r0, r3
 8001df4:	18c4      	adds	r4, r0, r3
  cmp r4, r1
 8001df6:	428c      	cmp	r4, r1
  bcc CopyDataInit
 8001df8:	d3f9      	bcc.n	8001dee <CopyDataInit>

/* Zero fill the bss segment. */
  ldr r2, =_sbss
 8001dfa:	4a0a      	ldr	r2, [pc, #40]	; (8001e24 <LoopForever+0x12>)
  ldr r4, =_ebss
 8001dfc:	4c0a      	ldr	r4, [pc, #40]	; (8001e28 <LoopForever+0x16>)
  movs r3, #0
 8001dfe:	2300      	movs	r3, #0
  b LoopFillZerobss
 8001e00:	e001      	b.n	8001e06 <LoopFillZerobss>

08001e02 <FillZerobss>:

FillZerobss:
  str  r3, [r2]
 8001e02:	6013      	str	r3, [r2, #0]
  adds r2, r2, #4
 8001e04:	3204      	adds	r2, #4

08001e06 <LoopFillZerobss>:

LoopFillZerobss:
  cmp r2, r4
 8001e06:	42a2      	cmp	r2, r4
  bcc FillZerobss
 8001e08:	d3fb      	bcc.n	8001e02 <FillZerobss>

/* Call static constructors */
  bl __libc_init_array
 8001e0a:	f006 fbf7 	bl	80085fc <__libc_init_array>
/* Call the application s entry point.*/
  bl main
 8001e0e:	f7ff fe3f 	bl	8001a90 <main>

08001e12 <LoopForever>:

LoopForever:
  b LoopForever
 8001e12:	e7fe      	b.n	8001e12 <LoopForever>
  ldr   r0, =_estack
 8001e14:	20009000 	.word	0x20009000
  ldr r0, =_sdata
 8001e18:	20000000 	.word	0x20000000
  ldr r1, =_edata
 8001e1c:	2000017c 	.word	0x2000017c
  ldr r2, =_sidata
 8001e20:	0800e2b4 	.word	0x0800e2b4
  ldr r2, =_sbss
 8001e24:	2000017c 	.word	0x2000017c
  ldr r4, =_ebss
 8001e28:	20000360 	.word	0x20000360

08001e2c <ADC1_COMP_IRQHandler>:
 * @retval None
*/
  .section .text.Default_Handler,"ax",%progbits
Default_Handler:
Infinite_Loop:
  b Infinite_Loop
 8001e2c:	e7fe      	b.n	8001e2c <ADC1_COMP_IRQHandler>
	...

08001e30 <HAL_InitTick>:
__weak HAL_StatusTypeDef HAL_InitTick(uint32_t TickPriority)
{
  HAL_StatusTypeDef  status = HAL_OK;

  /* Check uwTickFreq for MisraC 2012 (even if uwTickFreq is a enum type that doesn't take the value zero)*/ 
  if ((uint32_t)uwTickFreq != 0U)
 8001e30:	4b10      	ldr	r3, [pc, #64]	; (8001e74 <HAL_InitTick+0x44>)
{
 8001e32:	b570      	push	{r4, r5, r6, lr}
  if ((uint32_t)uwTickFreq != 0U)
 8001e34:	7819      	ldrb	r1, [r3, #0]
{
 8001e36:	0005      	movs	r5, r0
  if ((uint32_t)uwTickFreq != 0U)
 8001e38:	2900      	cmp	r1, #0
 8001e3a:	d101      	bne.n	8001e40 <HAL_InitTick+0x10>
      status = HAL_ERROR;
    }
  }
  else
  {
    status = HAL_ERROR;
 8001e3c:	2001      	movs	r0, #1
  }

  /* Return function status */
  return status;
}
 8001e3e:	bd70      	pop	{r4, r5, r6, pc}
    if (HAL_SYSTICK_Config(SystemCoreClock / (1000U /(uint32_t)uwTickFreq)) == 0U)
 8001e40:	20fa      	movs	r0, #250	; 0xfa
 8001e42:	0080      	lsls	r0, r0, #2
 8001e44:	f7fe f972 	bl	800012c <__udivsi3>
 8001e48:	4b0b      	ldr	r3, [pc, #44]	; (8001e78 <HAL_InitTick+0x48>)
 8001e4a:	0001      	movs	r1, r0
 8001e4c:	6818      	ldr	r0, [r3, #0]
 8001e4e:	f7fe f96d 	bl	800012c <__udivsi3>
 8001e52:	f000 f88f 	bl	8001f74 <HAL_SYSTICK_Config>
 8001e56:	1e04      	subs	r4, r0, #0
 8001e58:	d1f0      	bne.n	8001e3c <HAL_InitTick+0xc>
      if (TickPriority < (1UL << __NVIC_PRIO_BITS))
 8001e5a:	2d03      	cmp	r5, #3
 8001e5c:	d8ee      	bhi.n	8001e3c <HAL_InitTick+0xc>
        HAL_NVIC_SetPriority(SysTick_IRQn, TickPriority, 0U);
 8001e5e:	0002      	movs	r2, r0
 8001e60:	2001      	movs	r0, #1
 8001e62:	0029      	movs	r1, r5
 8001e64:	4240      	negs	r0, r0
 8001e66:	f000 f84f 	bl	8001f08 <HAL_NVIC_SetPriority>
        uwTickPrio = TickPriority;
 8001e6a:	4b04      	ldr	r3, [pc, #16]	; (8001e7c <HAL_InitTick+0x4c>)
 8001e6c:	0020      	movs	r0, r4
 8001e6e:	601d      	str	r5, [r3, #0]
 8001e70:	e7e5      	b.n	8001e3e <HAL_InitTick+0xe>
 8001e72:	46c0      	nop			; (mov r8, r8)
 8001e74:	20000004 	.word	0x20000004
 8001e78:	20000000 	.word	0x20000000
 8001e7c:	20000008 	.word	0x20000008

08001e80 <HAL_Init>:
  __HAL_FLASH_PREFETCH_BUFFER_ENABLE();
 8001e80:	2380      	movs	r3, #128	; 0x80
 8001e82:	4a08      	ldr	r2, [pc, #32]	; (8001ea4 <HAL_Init+0x24>)
 8001e84:	005b      	lsls	r3, r3, #1
 8001e86:	6811      	ldr	r1, [r2, #0]
{
 8001e88:	b510      	push	{r4, lr}
  __HAL_FLASH_PREFETCH_BUFFER_ENABLE();
 8001e8a:	430b      	orrs	r3, r1
 8001e8c:	6013      	str	r3, [r2, #0]
  if (HAL_InitTick(TICK_INT_PRIORITY) != HAL_OK)
 8001e8e:	2000      	movs	r0, #0
 8001e90:	f7ff ffce 	bl	8001e30 <HAL_InitTick>
 8001e94:	1e04      	subs	r4, r0, #0
 8001e96:	d103      	bne.n	8001ea0 <HAL_Init+0x20>
  HAL_MspInit();
 8001e98:	f7ff fed8 	bl	8001c4c <HAL_MspInit>
}
 8001e9c:	0020      	movs	r0, r4
 8001e9e:	bd10      	pop	{r4, pc}
    status = HAL_ERROR;
 8001ea0:	2401      	movs	r4, #1
 8001ea2:	e7fb      	b.n	8001e9c <HAL_Init+0x1c>
 8001ea4:	40022000 	.word	0x40022000

08001ea8 <HAL_IncTick>:
  *      implementations in user file.
  * @retval None
  */
__weak void HAL_IncTick(void)
{
  uwTick += (uint32_t)uwTickFreq;
 8001ea8:	4a03      	ldr	r2, [pc, #12]	; (8001eb8 <HAL_IncTick+0x10>)
 8001eaa:	4b04      	ldr	r3, [pc, #16]	; (8001ebc <HAL_IncTick+0x14>)
 8001eac:	6811      	ldr	r1, [r2, #0]
 8001eae:	781b      	ldrb	r3, [r3, #0]
 8001eb0:	185b      	adds	r3, r3, r1
 8001eb2:	6013      	str	r3, [r2, #0]
}
 8001eb4:	4770      	bx	lr
 8001eb6:	46c0      	nop			; (mov r8, r8)
 8001eb8:	20000320 	.word	0x20000320
 8001ebc:	20000004 	.word	0x20000004

08001ec0 <HAL_GetTick>:
  *       implementations in user file.
  * @retval tick value
  */
__weak uint32_t HAL_GetTick(void)
{
  return uwTick;
 8001ec0:	4b01      	ldr	r3, [pc, #4]	; (8001ec8 <HAL_GetTick+0x8>)
 8001ec2:	6818      	ldr	r0, [r3, #0]
}
 8001ec4:	4770      	bx	lr
 8001ec6:	46c0      	nop			; (mov r8, r8)
 8001ec8:	20000320 	.word	0x20000320

08001ecc <HAL_Delay>:
  *       implementations in user file.
  * @param Delay  specifies the delay time length, in milliseconds.
  * @retval None
  */
__weak void HAL_Delay(uint32_t Delay)
{
 8001ecc:	b570      	push	{r4, r5, r6, lr}
 8001ece:	0004      	movs	r4, r0
  uint32_t tickstart = HAL_GetTick();
 8001ed0:	f7ff fff6 	bl	8001ec0 <HAL_GetTick>
 8001ed4:	0005      	movs	r5, r0
  uint32_t wait = Delay;

  /* Add a freq to guarantee minimum wait */
  if (wait < HAL_MAX_DELAY)
 8001ed6:	1c63      	adds	r3, r4, #1
 8001ed8:	d002      	beq.n	8001ee0 <HAL_Delay+0x14>
  {
    wait += (uint32_t)(uwTickFreq);
 8001eda:	4b04      	ldr	r3, [pc, #16]	; (8001eec <HAL_Delay+0x20>)
 8001edc:	781b      	ldrb	r3, [r3, #0]
 8001ede:	18e4      	adds	r4, r4, r3
  }

  while ((HAL_GetTick() - tickstart) < wait)
 8001ee0:	f7ff ffee 	bl	8001ec0 <HAL_GetTick>
 8001ee4:	1b40      	subs	r0, r0, r5
 8001ee6:	42a0      	cmp	r0, r4
 8001ee8:	d3fa      	bcc.n	8001ee0 <HAL_Delay+0x14>
  {
  }
}
 8001eea:	bd70      	pop	{r4, r5, r6, pc}
 8001eec:	20000004 	.word	0x20000004

08001ef0 <HAL_SYSCFG_StrobeDBattpinsConfig>:
void HAL_SYSCFG_StrobeDBattpinsConfig(uint32_t ConfigDeadBattery)
{
  assert_param(IS_SYSCFG_DBATT_CONFIG(ConfigDeadBattery));

  /* Change strobe configuration of GPIO depending on UCPDx dead battery settings */
  MODIFY_REG(SYSCFG->CFGR1, (SYSCFG_CFGR1_UCPD1_STROBE | SYSCFG_CFGR1_UCPD2_STROBE), ConfigDeadBattery);
 8001ef0:	4a03      	ldr	r2, [pc, #12]	; (8001f00 <HAL_SYSCFG_StrobeDBattpinsConfig+0x10>)
 8001ef2:	4904      	ldr	r1, [pc, #16]	; (8001f04 <HAL_SYSCFG_StrobeDBattpinsConfig+0x14>)
 8001ef4:	6813      	ldr	r3, [r2, #0]
 8001ef6:	400b      	ands	r3, r1
 8001ef8:	4318      	orrs	r0, r3
 8001efa:	6010      	str	r0, [r2, #0]
}
 8001efc:	4770      	bx	lr
 8001efe:	46c0      	nop			; (mov r8, r8)
 8001f00:	40010000 	.word	0x40010000
 8001f04:	fffff9ff 	.word	0xfffff9ff

08001f08 <HAL_NVIC_SetPriority>:
  *         with stm32g0xx devices, this parameter is a dummy value and it is ignored, because
  *         no subpriority supported in Cortex M0+ based products.
  * @retval None
  */
void HAL_NVIC_SetPriority(IRQn_Type IRQn, uint32_t PreemptPriority, uint32_t SubPriority)
{
 8001f08:	b530      	push	{r4, r5, lr}
 8001f0a:	25ff      	movs	r5, #255	; 0xff
 8001f0c:	2403      	movs	r4, #3
 8001f0e:	002a      	movs	r2, r5
 8001f10:	b2c3      	uxtb	r3, r0
 8001f12:	401c      	ands	r4, r3
 8001f14:	00e4      	lsls	r4, r4, #3
 8001f16:	40a2      	lsls	r2, r4
 8001f18:	0189      	lsls	r1, r1, #6
 8001f1a:	4029      	ands	r1, r5
 8001f1c:	43d2      	mvns	r2, r2
 8001f1e:	40a1      	lsls	r1, r4
  \param [in]  priority  Priority to set.
  \note    The priority cannot be set for every processor exception.
 */
__STATIC_INLINE void __NVIC_SetPriority(IRQn_Type IRQn, uint32_t priority)
{
  if ((int32_t)(IRQn) >= 0)
 8001f20:	2800      	cmp	r0, #0
 8001f22:	db0a      	blt.n	8001f3a <HAL_NVIC_SetPriority+0x32>
  {
    NVIC->IP[_IP_IDX(IRQn)]  = ((uint32_t)(NVIC->IP[_IP_IDX(IRQn)]  & ~(0xFFUL << _BIT_SHIFT(IRQn))) |
 8001f24:	24c0      	movs	r4, #192	; 0xc0
 8001f26:	4b0b      	ldr	r3, [pc, #44]	; (8001f54 <HAL_NVIC_SetPriority+0x4c>)
 8001f28:	0880      	lsrs	r0, r0, #2
 8001f2a:	0080      	lsls	r0, r0, #2
 8001f2c:	18c0      	adds	r0, r0, r3
 8001f2e:	00a4      	lsls	r4, r4, #2
 8001f30:	5903      	ldr	r3, [r0, r4]
 8001f32:	401a      	ands	r2, r3
 8001f34:	4311      	orrs	r1, r2
 8001f36:	5101      	str	r1, [r0, r4]
  /* Check the parameters */
  assert_param(IS_NVIC_PREEMPTION_PRIORITY(PreemptPriority));
  NVIC_SetPriority(IRQn,PreemptPriority);
}
 8001f38:	bd30      	pop	{r4, r5, pc}
       (((priority << (8U - __NVIC_PRIO_BITS)) & (uint32_t)0xFFUL) << _BIT_SHIFT(IRQn)));
  }
  else
  {
    SCB->SHP[_SHP_IDX(IRQn)] = ((uint32_t)(SCB->SHP[_SHP_IDX(IRQn)] & ~(0xFFUL << _BIT_SHIFT(IRQn))) |
 8001f3a:	200f      	movs	r0, #15
 8001f3c:	4003      	ands	r3, r0
 8001f3e:	3b08      	subs	r3, #8
 8001f40:	4805      	ldr	r0, [pc, #20]	; (8001f58 <HAL_NVIC_SetPriority+0x50>)
 8001f42:	089b      	lsrs	r3, r3, #2
 8001f44:	009b      	lsls	r3, r3, #2
 8001f46:	181b      	adds	r3, r3, r0
 8001f48:	69d8      	ldr	r0, [r3, #28]
 8001f4a:	4002      	ands	r2, r0
 8001f4c:	4311      	orrs	r1, r2
 8001f4e:	61d9      	str	r1, [r3, #28]
 8001f50:	e7f2      	b.n	8001f38 <HAL_NVIC_SetPriority+0x30>
 8001f52:	46c0      	nop			; (mov r8, r8)
 8001f54:	e000e100 	.word	0xe000e100
 8001f58:	e000ed00 	.word	0xe000ed00

08001f5c <HAL_NVIC_EnableIRQ>:
  if ((int32_t)(IRQn) >= 0)
 8001f5c:	2800      	cmp	r0, #0
 8001f5e:	db05      	blt.n	8001f6c <HAL_NVIC_EnableIRQ+0x10>
    NVIC->ISER[0U] = (uint32_t)(1UL << (((uint32_t)IRQn) & 0x1FUL));
 8001f60:	231f      	movs	r3, #31
 8001f62:	4018      	ands	r0, r3
 8001f64:	3b1e      	subs	r3, #30
 8001f66:	4083      	lsls	r3, r0
 8001f68:	4a01      	ldr	r2, [pc, #4]	; (8001f70 <HAL_NVIC_EnableIRQ+0x14>)
 8001f6a:	6013      	str	r3, [r2, #0]
  /* Check the parameters */
  assert_param(IS_NVIC_DEVICE_IRQ(IRQn));

  /* Enable interrupt */
  NVIC_EnableIRQ(IRQn);
}
 8001f6c:	4770      	bx	lr
 8001f6e:	46c0      	nop			; (mov r8, r8)
 8001f70:	e000e100 	.word	0xe000e100

08001f74 <HAL_SYSTICK_Config>:
           function <b>SysTick_Config</b> is not included. In this case, the file <b><i>device</i>.h</b>
           must contain a vendor-specific implementation of this function.
 */
__STATIC_INLINE uint32_t SysTick_Config(uint32_t ticks)
{
  if ((ticks - 1UL) > SysTick_LOAD_RELOAD_Msk)
 8001f74:	4a09      	ldr	r2, [pc, #36]	; (8001f9c <HAL_SYSTICK_Config+0x28>)
 8001f76:	1e43      	subs	r3, r0, #1
  {
    return (1UL);                                                   /* Reload value impossible */
 8001f78:	2001      	movs	r0, #1
  if ((ticks - 1UL) > SysTick_LOAD_RELOAD_Msk)
 8001f7a:	4293      	cmp	r3, r2
 8001f7c:	d80d      	bhi.n	8001f9a <HAL_SYSTICK_Config+0x26>
    SCB->SHP[_SHP_IDX(IRQn)] = ((uint32_t)(SCB->SHP[_SHP_IDX(IRQn)] & ~(0xFFUL << _BIT_SHIFT(IRQn))) |
 8001f7e:	21c0      	movs	r1, #192	; 0xc0
  }

  SysTick->LOAD  = (uint32_t)(ticks - 1UL);                         /* set reload register */
 8001f80:	4a07      	ldr	r2, [pc, #28]	; (8001fa0 <HAL_SYSTICK_Config+0x2c>)
    SCB->SHP[_SHP_IDX(IRQn)] = ((uint32_t)(SCB->SHP[_SHP_IDX(IRQn)] & ~(0xFFUL << _BIT_SHIFT(IRQn))) |
 8001f82:	4808      	ldr	r0, [pc, #32]	; (8001fa4 <HAL_SYSTICK_Config+0x30>)
  SysTick->LOAD  = (uint32_t)(ticks - 1UL);                         /* set reload register */
 8001f84:	6053      	str	r3, [r2, #4]
    SCB->SHP[_SHP_IDX(IRQn)] = ((uint32_t)(SCB->SHP[_SHP_IDX(IRQn)] & ~(0xFFUL << _BIT_SHIFT(IRQn))) |
 8001f86:	6a03      	ldr	r3, [r0, #32]
 8001f88:	0609      	lsls	r1, r1, #24
 8001f8a:	021b      	lsls	r3, r3, #8
 8001f8c:	0a1b      	lsrs	r3, r3, #8
 8001f8e:	430b      	orrs	r3, r1
 8001f90:	6203      	str	r3, [r0, #32]
  NVIC_SetPriority (SysTick_IRQn, (1UL << __NVIC_PRIO_BITS) - 1UL); /* set Priority for Systick Interrupt */
  SysTick->VAL   = 0UL;                                             /* Load the SysTick Counter Value */
 8001f92:	2000      	movs	r0, #0
  SysTick->CTRL  = SysTick_CTRL_CLKSOURCE_Msk |
 8001f94:	2307      	movs	r3, #7
  SysTick->VAL   = 0UL;                                             /* Load the SysTick Counter Value */
 8001f96:	6090      	str	r0, [r2, #8]
  SysTick->CTRL  = SysTick_CTRL_CLKSOURCE_Msk |
 8001f98:	6013      	str	r3, [r2, #0]
  *                  - 1  Function failed.
  */
uint32_t HAL_SYSTICK_Config(uint32_t TicksNumb)
{
  return SysTick_Config(TicksNumb);
}
 8001f9a:	4770      	bx	lr
 8001f9c:	00ffffff 	.word	0x00ffffff
 8001fa0:	e000e010 	.word	0xe000e010
 8001fa4:	e000ed00 	.word	0xe000ed00

08001fa8 <HAL_GPIO_Init>:
  * @param  GPIO_Init pointer to a GPIO_InitTypeDef structure that contains
  *         the configuration information for the specified GPIO peripheral.
  * @retval None
  */
void HAL_GPIO_Init(GPIO_TypeDef  *GPIOx, GPIO_InitTypeDef *GPIO_Init)
{
 8001fa8:	b5f0      	push	{r4, r5, r6, r7, lr}
  assert_param(IS_GPIO_PIN(GPIO_Init->Pin));
  assert_param(IS_GPIO_MODE(GPIO_Init->Mode));
  assert_param(IS_GPIO_PULL(GPIO_Init->Pull));

  /* Configure the port pins */
  while (((GPIO_Init->Pin) >> position) != 0x00u)
 8001faa:	680b      	ldr	r3, [r1, #0]
{
 8001fac:	b085      	sub	sp, #20
  while (((GPIO_Init->Pin) >> position) != 0x00u)
 8001fae:	9303      	str	r3, [sp, #12]
  uint32_t position = 0x00u;
 8001fb0:	2300      	movs	r3, #0
  while (((GPIO_Init->Pin) >> position) != 0x00u)
 8001fb2:	9a03      	ldr	r2, [sp, #12]
 8001fb4:	40da      	lsrs	r2, r3
 8001fb6:	d101      	bne.n	8001fbc <HAL_GPIO_Init+0x14>
      }
    }

    position++;
  }
}
 8001fb8:	b005      	add	sp, #20
 8001fba:	bdf0      	pop	{r4, r5, r6, r7, pc}
    iocurrent = (GPIO_Init->Pin) & (1uL << position);
 8001fbc:	2201      	movs	r2, #1
 8001fbe:	409a      	lsls	r2, r3
 8001fc0:	4694      	mov	ip, r2
 8001fc2:	4664      	mov	r4, ip
 8001fc4:	9a03      	ldr	r2, [sp, #12]
 8001fc6:	4022      	ands	r2, r4
 8001fc8:	9201      	str	r2, [sp, #4]
    if (iocurrent != 0x00u)
 8001fca:	d100      	bne.n	8001fce <HAL_GPIO_Init+0x26>
 8001fcc:	e08b      	b.n	80020e6 <HAL_GPIO_Init+0x13e>
 8001fce:	2503      	movs	r5, #3
      if ((GPIO_Init->Mode == GPIO_MODE_OUTPUT_PP) || (GPIO_Init->Mode == GPIO_MODE_AF_PP) ||
 8001fd0:	684a      	ldr	r2, [r1, #4]
 8001fd2:	005e      	lsls	r6, r3, #1
 8001fd4:	0017      	movs	r7, r2
 8001fd6:	9200      	str	r2, [sp, #0]
 8001fd8:	40b5      	lsls	r5, r6
 8001fda:	2210      	movs	r2, #16
 8001fdc:	4397      	bics	r7, r2
 8001fde:	43ea      	mvns	r2, r5
 8001fe0:	9202      	str	r2, [sp, #8]
 8001fe2:	1e7a      	subs	r2, r7, #1
 8001fe4:	2a01      	cmp	r2, #1
 8001fe6:	d810      	bhi.n	800200a <HAL_GPIO_Init+0x62>
        temp = GPIOx->OSPEEDR;
 8001fe8:	6884      	ldr	r4, [r0, #8]
        temp &= ~(GPIO_OSPEEDR_OSPEED0 << (position * 2u));
 8001fea:	9a02      	ldr	r2, [sp, #8]
        temp |= (((GPIO_Init->Mode & GPIO_OUTPUT_TYPE) >> 4u) << position);
 8001fec:	2501      	movs	r5, #1
        temp &= ~(GPIO_OSPEEDR_OSPEED0 << (position * 2u));
 8001fee:	4014      	ands	r4, r2
        temp |= (GPIO_Init->Speed << (position * 2u));
 8001ff0:	68ca      	ldr	r2, [r1, #12]
 8001ff2:	40b2      	lsls	r2, r6
 8001ff4:	4322      	orrs	r2, r4
        GPIOx->OSPEEDR = temp;
 8001ff6:	6082      	str	r2, [r0, #8]
        temp &= ~(GPIO_OTYPER_OT0 << position) ;
 8001ff8:	4662      	mov	r2, ip
        temp = GPIOx->OTYPER;
 8001ffa:	6844      	ldr	r4, [r0, #4]
        temp &= ~(GPIO_OTYPER_OT0 << position) ;
 8001ffc:	4394      	bics	r4, r2
        temp |= (((GPIO_Init->Mode & GPIO_OUTPUT_TYPE) >> 4u) << position);
 8001ffe:	9a00      	ldr	r2, [sp, #0]
 8002000:	0912      	lsrs	r2, r2, #4
 8002002:	402a      	ands	r2, r5
 8002004:	409a      	lsls	r2, r3
 8002006:	4322      	orrs	r2, r4
        GPIOx->OTYPER = temp;
 8002008:	6042      	str	r2, [r0, #4]
      temp = GPIOx->PUPDR;
 800200a:	68c4      	ldr	r4, [r0, #12]
      temp &= ~(GPIO_PUPDR_PUPD0 << (position * 2u));
 800200c:	9a02      	ldr	r2, [sp, #8]
 800200e:	4014      	ands	r4, r2
      temp |= ((GPIO_Init->Pull) << (position * 2u));
 8002010:	688a      	ldr	r2, [r1, #8]
 8002012:	40b2      	lsls	r2, r6
 8002014:	4322      	orrs	r2, r4
      GPIOx->PUPDR = temp;
 8002016:	60c2      	str	r2, [r0, #12]
      if ((GPIO_Init->Mode == GPIO_MODE_AF_PP) || (GPIO_Init->Mode == GPIO_MODE_AF_OD))
 8002018:	2f02      	cmp	r7, #2
 800201a:	d10d      	bne.n	8002038 <HAL_GPIO_Init+0x90>
        temp &= ~(0xFu << ((position & 0x07u) * 4u));
 800201c:	2407      	movs	r4, #7
 800201e:	250f      	movs	r5, #15
 8002020:	401c      	ands	r4, r3
 8002022:	00a4      	lsls	r4, r4, #2
 8002024:	40a5      	lsls	r5, r4
        temp = GPIOx->AFR[position >> 3u];
 8002026:	08da      	lsrs	r2, r3, #3
 8002028:	0092      	lsls	r2, r2, #2
 800202a:	1882      	adds	r2, r0, r2
 800202c:	6a17      	ldr	r7, [r2, #32]
        temp &= ~(0xFu << ((position & 0x07u) * 4u));
 800202e:	43af      	bics	r7, r5
        temp |= ((GPIO_Init->Alternate) << ((position & 0x07u) * 4u));
 8002030:	690d      	ldr	r5, [r1, #16]
 8002032:	40a5      	lsls	r5, r4
 8002034:	432f      	orrs	r7, r5
        GPIOx->AFR[position >> 3u] = temp;
 8002036:	6217      	str	r7, [r2, #32]
      temp |= ((GPIO_Init->Mode & GPIO_MODE) << (position * 2u));
 8002038:	2403      	movs	r4, #3
      temp = GPIOx->MODER;
 800203a:	6802      	ldr	r2, [r0, #0]
      temp &= ~(GPIO_MODER_MODE0 << (position * 2u));
 800203c:	9d02      	ldr	r5, [sp, #8]
 800203e:	4015      	ands	r5, r2
      temp |= ((GPIO_Init->Mode & GPIO_MODE) << (position * 2u));
 8002040:	9a00      	ldr	r2, [sp, #0]
 8002042:	4022      	ands	r2, r4
 8002044:	40b2      	lsls	r2, r6
      if ((GPIO_Init->Mode & EXTI_MODE) == EXTI_MODE)
 8002046:	2480      	movs	r4, #128	; 0x80
      temp |= ((GPIO_Init->Mode & GPIO_MODE) << (position * 2u));
 8002048:	4315      	orrs	r5, r2
      if ((GPIO_Init->Mode & EXTI_MODE) == EXTI_MODE)
 800204a:	9a00      	ldr	r2, [sp, #0]
 800204c:	0564      	lsls	r4, r4, #21
      GPIOx->MODER = temp;
 800204e:	6005      	str	r5, [r0, #0]
      if ((GPIO_Init->Mode & EXTI_MODE) == EXTI_MODE)
 8002050:	4222      	tst	r2, r4
 8002052:	d048      	beq.n	80020e6 <HAL_GPIO_Init+0x13e>
        temp &= ~(0x0FuL << (8u * (position & 0x03u)));
 8002054:	2503      	movs	r5, #3
 8002056:	270f      	movs	r7, #15
 8002058:	401d      	ands	r5, r3
 800205a:	00ed      	lsls	r5, r5, #3
 800205c:	40af      	lsls	r7, r5
 800205e:	4a23      	ldr	r2, [pc, #140]	; (80020ec <HAL_GPIO_Init+0x144>)
        temp = EXTI->EXTICR[position >> 2u];
 8002060:	089c      	lsrs	r4, r3, #2
 8002062:	00a4      	lsls	r4, r4, #2
 8002064:	18a4      	adds	r4, r4, r2
 8002066:	6e26      	ldr	r6, [r4, #96]	; 0x60
        temp |= (GPIO_GET_INDEX(GPIOx) << (8u * (position & 0x03u)));
 8002068:	2200      	movs	r2, #0
        temp &= ~(0x0FuL << (8u * (position & 0x03u)));
 800206a:	43be      	bics	r6, r7
        temp |= (GPIO_GET_INDEX(GPIOx) << (8u * (position & 0x03u)));
 800206c:	27a0      	movs	r7, #160	; 0xa0
 800206e:	05ff      	lsls	r7, r7, #23
 8002070:	42b8      	cmp	r0, r7
 8002072:	d00c      	beq.n	800208e <HAL_GPIO_Init+0xe6>
 8002074:	4f1e      	ldr	r7, [pc, #120]	; (80020f0 <HAL_GPIO_Init+0x148>)
 8002076:	3201      	adds	r2, #1
 8002078:	42b8      	cmp	r0, r7
 800207a:	d008      	beq.n	800208e <HAL_GPIO_Init+0xe6>
 800207c:	4f1d      	ldr	r7, [pc, #116]	; (80020f4 <HAL_GPIO_Init+0x14c>)
 800207e:	3201      	adds	r2, #1
 8002080:	42b8      	cmp	r0, r7
 8002082:	d004      	beq.n	800208e <HAL_GPIO_Init+0xe6>
 8002084:	4f1c      	ldr	r7, [pc, #112]	; (80020f8 <HAL_GPIO_Init+0x150>)
 8002086:	3203      	adds	r2, #3
 8002088:	42b8      	cmp	r0, r7
 800208a:	d100      	bne.n	800208e <HAL_GPIO_Init+0xe6>
 800208c:	3a02      	subs	r2, #2
 800208e:	40aa      	lsls	r2, r5
 8002090:	4332      	orrs	r2, r6
        EXTI->EXTICR[position >> 2u] = temp;
 8002092:	6622      	str	r2, [r4, #96]	; 0x60
        temp = EXTI->IMR1;
 8002094:	4a19      	ldr	r2, [pc, #100]	; (80020fc <HAL_GPIO_Init+0x154>)
        temp &= ~(iocurrent);
 8002096:	9c01      	ldr	r4, [sp, #4]
        temp = EXTI->IMR1;
 8002098:	6fd6      	ldr	r6, [r2, #124]	; 0x7c
          temp |= iocurrent;
 800209a:	9d01      	ldr	r5, [sp, #4]
        if ((GPIO_Init->Mode & GPIO_MODE_IT) == GPIO_MODE_IT)
 800209c:	9f00      	ldr	r7, [sp, #0]
        temp &= ~(iocurrent);
 800209e:	43e4      	mvns	r4, r4
          temp |= iocurrent;
 80020a0:	4335      	orrs	r5, r6
        if ((GPIO_Init->Mode & GPIO_MODE_IT) == GPIO_MODE_IT)
 80020a2:	03ff      	lsls	r7, r7, #15
 80020a4:	d401      	bmi.n	80020aa <HAL_GPIO_Init+0x102>
        temp &= ~(iocurrent);
 80020a6:	0035      	movs	r5, r6
 80020a8:	4025      	ands	r5, r4
        EXTI->IMR1 = temp;
 80020aa:	67d5      	str	r5, [r2, #124]	; 0x7c
        temp = EXTI->EMR1;
 80020ac:	4d14      	ldr	r5, [pc, #80]	; (8002100 <HAL_GPIO_Init+0x158>)
          temp |= iocurrent;
 80020ae:	9e01      	ldr	r6, [sp, #4]
        temp = EXTI->EMR1;
 80020b0:	6fea      	ldr	r2, [r5, #124]	; 0x7c
        if ((GPIO_Init->Mode & GPIO_MODE_EVT) == GPIO_MODE_EVT)
 80020b2:	9f00      	ldr	r7, [sp, #0]
          temp |= iocurrent;
 80020b4:	4316      	orrs	r6, r2
        if ((GPIO_Init->Mode & GPIO_MODE_EVT) == GPIO_MODE_EVT)
 80020b6:	03bf      	lsls	r7, r7, #14
 80020b8:	d401      	bmi.n	80020be <HAL_GPIO_Init+0x116>
        temp &= ~(iocurrent);
 80020ba:	4022      	ands	r2, r4
 80020bc:	0016      	movs	r6, r2
        EXTI->EMR1 = temp;
 80020be:	4a0b      	ldr	r2, [pc, #44]	; (80020ec <HAL_GPIO_Init+0x144>)
 80020c0:	67ee      	str	r6, [r5, #124]	; 0x7c
        temp = EXTI->RTSR1;
 80020c2:	6816      	ldr	r6, [r2, #0]
          temp |= iocurrent;
 80020c4:	9d01      	ldr	r5, [sp, #4]
        if ((GPIO_Init->Mode & RISING_EDGE) == RISING_EDGE)
 80020c6:	9f00      	ldr	r7, [sp, #0]
          temp |= iocurrent;
 80020c8:	4335      	orrs	r5, r6
        if ((GPIO_Init->Mode & RISING_EDGE) == RISING_EDGE)
 80020ca:	02ff      	lsls	r7, r7, #11
 80020cc:	d401      	bmi.n	80020d2 <HAL_GPIO_Init+0x12a>
        temp &= ~(iocurrent);
 80020ce:	0035      	movs	r5, r6
 80020d0:	4025      	ands	r5, r4
        EXTI->RTSR1 = temp;
 80020d2:	6015      	str	r5, [r2, #0]
        temp = EXTI->FTSR1;
 80020d4:	6855      	ldr	r5, [r2, #4]
          temp |= iocurrent;
 80020d6:	9e01      	ldr	r6, [sp, #4]
        if ((GPIO_Init->Mode & FALLING_EDGE) == FALLING_EDGE)
 80020d8:	9f00      	ldr	r7, [sp, #0]
          temp |= iocurrent;
 80020da:	432e      	orrs	r6, r5
        if ((GPIO_Init->Mode & FALLING_EDGE) == FALLING_EDGE)
 80020dc:	02bf      	lsls	r7, r7, #10
 80020de:	d401      	bmi.n	80020e4 <HAL_GPIO_Init+0x13c>
        temp &= ~(iocurrent);
 80020e0:	4025      	ands	r5, r4
 80020e2:	002e      	movs	r6, r5
        EXTI->FTSR1 = temp;
 80020e4:	6056      	str	r6, [r2, #4]
    position++;
 80020e6:	3301      	adds	r3, #1
 80020e8:	e763      	b.n	8001fb2 <HAL_GPIO_Init+0xa>
 80020ea:	46c0      	nop			; (mov r8, r8)
 80020ec:	40021800 	.word	0x40021800
 80020f0:	50000400 	.word	0x50000400
 80020f4:	50000800 	.word	0x50000800
 80020f8:	50000c00 	.word	0x50000c00
 80020fc:	40021804 	.word	0x40021804
 8002100:	40021808 	.word	0x40021808

08002104 <HAL_GPIO_ReadPin>:
  GPIO_PinState bitstatus;

  /* Check the parameters */
  assert_param(IS_GPIO_PIN(GPIO_Pin));

  if ((GPIOx->IDR & GPIO_Pin) != 0x00u)
 8002104:	6900      	ldr	r0, [r0, #16]
 8002106:	4008      	ands	r0, r1
 8002108:	1e41      	subs	r1, r0, #1
 800210a:	4188      	sbcs	r0, r1
  }
  else
  {
    bitstatus = GPIO_PIN_RESET;
  }
  return bitstatus;
 800210c:	b2c0      	uxtb	r0, r0
}
 800210e:	4770      	bx	lr

08002110 <HAL_GPIO_WritePin>:
{
  /* Check the parameters */
  assert_param(IS_GPIO_PIN(GPIO_Pin));
  assert_param(IS_GPIO_PIN_ACTION(PinState));

  if (PinState != GPIO_PIN_RESET)
 8002110:	2a00      	cmp	r2, #0
 8002112:	d001      	beq.n	8002118 <HAL_GPIO_WritePin+0x8>
  {
    GPIOx->BSRR = (uint32_t)GPIO_Pin;
 8002114:	6181      	str	r1, [r0, #24]
  }
  else
  {
    GPIOx->BRR = (uint32_t)GPIO_Pin;
  }
}
 8002116:	4770      	bx	lr
    GPIOx->BRR = (uint32_t)GPIO_Pin;
 8002118:	6281      	str	r1, [r0, #40]	; 0x28
}
 800211a:	e7fc      	b.n	8002116 <HAL_GPIO_WritePin+0x6>

0800211c <HAL_GPIO_EXTI_Rising_Callback>:
  UNUSED(GPIO_Pin);

  /* NOTE: This function should not be modified, when the callback is needed,
           the HAL_GPIO_EXTI_Rising_Callback could be implemented in the user file
   */
}
 800211c:	4770      	bx	lr

0800211e <HAL_GPIO_EXTI_Falling_Callback>:
 800211e:	4770      	bx	lr

08002120 <HAL_GPIO_EXTI_IRQHandler>:
{
 8002120:	b570      	push	{r4, r5, r6, lr}
  if (__HAL_GPIO_EXTI_GET_RISING_IT(GPIO_Pin) != 0x00u)
 8002122:	4d08      	ldr	r5, [pc, #32]	; (8002144 <HAL_GPIO_EXTI_IRQHandler+0x24>)
{
 8002124:	0004      	movs	r4, r0
  if (__HAL_GPIO_EXTI_GET_RISING_IT(GPIO_Pin) != 0x00u)
 8002126:	68eb      	ldr	r3, [r5, #12]
 8002128:	4218      	tst	r0, r3
 800212a:	d002      	beq.n	8002132 <HAL_GPIO_EXTI_IRQHandler+0x12>
    __HAL_GPIO_EXTI_CLEAR_RISING_IT(GPIO_Pin);
 800212c:	60e8      	str	r0, [r5, #12]
    HAL_GPIO_EXTI_Rising_Callback(GPIO_Pin);
 800212e:	f7ff fff5 	bl	800211c <HAL_GPIO_EXTI_Rising_Callback>
  if (__HAL_GPIO_EXTI_GET_FALLING_IT(GPIO_Pin) != 0x00u)
 8002132:	692b      	ldr	r3, [r5, #16]
 8002134:	4223      	tst	r3, r4
 8002136:	d003      	beq.n	8002140 <HAL_GPIO_EXTI_IRQHandler+0x20>
    __HAL_GPIO_EXTI_CLEAR_FALLING_IT(GPIO_Pin);
 8002138:	612c      	str	r4, [r5, #16]
    HAL_GPIO_EXTI_Falling_Callback(GPIO_Pin);
 800213a:	0020      	movs	r0, r4
 800213c:	f7ff ffef 	bl	800211e <HAL_GPIO_EXTI_Falling_Callback>
}
 8002140:	bd70      	pop	{r4, r5, r6, pc}
 8002142:	46c0      	nop			; (mov r8, r8)
 8002144:	40021800 	.word	0x40021800

08002148 <HAL_PWREx_ControlVoltageScaling>:
  *        cleared before returning the status. If the flag is not cleared within
  *        6 microseconds, HAL_TIMEOUT status is reported.
  * @retval HAL Status
  */
HAL_StatusTypeDef HAL_PWREx_ControlVoltageScaling(uint32_t VoltageScaling)
{
 8002148:	b510      	push	{r4, lr}
  uint32_t wait_loop_index;

  assert_param(IS_PWR_VOLTAGE_SCALING_RANGE(VoltageScaling));

  /* Modify voltage scaling range */
  MODIFY_REG(PWR->CR1, PWR_CR1_VOS, VoltageScaling);
 800214a:	4c10      	ldr	r4, [pc, #64]	; (800218c <HAL_PWREx_ControlVoltageScaling+0x44>)
 800214c:	4910      	ldr	r1, [pc, #64]	; (8002190 <HAL_PWREx_ControlVoltageScaling+0x48>)
 800214e:	6823      	ldr	r3, [r4, #0]
{
 8002150:	0002      	movs	r2, r0
  MODIFY_REG(PWR->CR1, PWR_CR1_VOS, VoltageScaling);
 8002152:	400b      	ands	r3, r1
 8002154:	4303      	orrs	r3, r0
 8002156:	6023      	str	r3, [r4, #0]

  /* In case of Range 1 selected, we need to ensure that main regulator reaches new value */
  if(VoltageScaling == PWR_REGULATOR_VOLTAGE_SCALE1)
 8002158:	2380      	movs	r3, #128	; 0x80
        return HAL_TIMEOUT;
      }
    }
  }

  return HAL_OK;
 800215a:	2000      	movs	r0, #0
  if(VoltageScaling == PWR_REGULATOR_VOLTAGE_SCALE1)
 800215c:	009b      	lsls	r3, r3, #2
 800215e:	429a      	cmp	r2, r3
 8002160:	d10c      	bne.n	800217c <HAL_PWREx_ControlVoltageScaling+0x34>
    wait_loop_index = ((PWR_VOSF_SETTING_DELAY_6_US * SystemCoreClock ) / 1000000U) + 1U;
 8002162:	4b0c      	ldr	r3, [pc, #48]	; (8002194 <HAL_PWREx_ControlVoltageScaling+0x4c>)
 8002164:	490c      	ldr	r1, [pc, #48]	; (8002198 <HAL_PWREx_ControlVoltageScaling+0x50>)
 8002166:	6818      	ldr	r0, [r3, #0]
 8002168:	2306      	movs	r3, #6
 800216a:	4358      	muls	r0, r3
 800216c:	f7fd ffde 	bl	800012c <__udivsi3>
    while(HAL_IS_BIT_SET(PWR->SR2, PWR_SR2_VOSF))
 8002170:	2280      	movs	r2, #128	; 0x80
    wait_loop_index = ((PWR_VOSF_SETTING_DELAY_6_US * SystemCoreClock ) / 1000000U) + 1U;
 8002172:	1c43      	adds	r3, r0, #1
    while(HAL_IS_BIT_SET(PWR->SR2, PWR_SR2_VOSF))
 8002174:	00d2      	lsls	r2, r2, #3
 8002176:	6960      	ldr	r0, [r4, #20]
 8002178:	4010      	ands	r0, r2
 800217a:	d100      	bne.n	800217e <HAL_PWREx_ControlVoltageScaling+0x36>
}
 800217c:	bd10      	pop	{r4, pc}
      if(wait_loop_index != 0U)
 800217e:	2b00      	cmp	r3, #0
 8002180:	d001      	beq.n	8002186 <HAL_PWREx_ControlVoltageScaling+0x3e>
        wait_loop_index--;
 8002182:	3b01      	subs	r3, #1
 8002184:	e7f7      	b.n	8002176 <HAL_PWREx_ControlVoltageScaling+0x2e>
        return HAL_TIMEOUT;
 8002186:	2003      	movs	r0, #3
 8002188:	e7f8      	b.n	800217c <HAL_PWREx_ControlVoltageScaling+0x34>
 800218a:	46c0      	nop			; (mov r8, r8)
 800218c:	40007000 	.word	0x40007000
 8002190:	fffff9ff 	.word	0xfffff9ff
 8002194:	20000000 	.word	0x20000000
 8002198:	000f4240 	.word	0x000f4240

0800219c <HAL_RCC_OscConfig>:
  *         supported by this function. User should request a transition to LSE Off
  *         first and then to LSE On or LSE Bypass.
  * @retval HAL status
  */
HAL_StatusTypeDef HAL_RCC_OscConfig(RCC_OscInitTypeDef  *RCC_OscInitStruct)
{
 800219c:	b5f0      	push	{r4, r5, r6, r7, lr}
 800219e:	0004      	movs	r4, r0
 80021a0:	b085      	sub	sp, #20
  uint32_t tickstart;
  uint32_t temp_sysclksrc;
  uint32_t temp_pllckcfg;

  /* Check Null pointer */
  if (RCC_OscInitStruct == NULL)
 80021a2:	2800      	cmp	r0, #0
 80021a4:	d102      	bne.n	80021ac <HAL_RCC_OscConfig+0x10>
  {
    return HAL_ERROR;
 80021a6:	2001      	movs	r0, #1
        }
      }
    }
  }
  return HAL_OK;
}
 80021a8:	b005      	add	sp, #20
 80021aa:	bdf0      	pop	{r4, r5, r6, r7, pc}
  if (((RCC_OscInitStruct->OscillatorType) & RCC_OSCILLATORTYPE_HSE) == RCC_OSCILLATORTYPE_HSE)
 80021ac:	6803      	ldr	r3, [r0, #0]
 80021ae:	07db      	lsls	r3, r3, #31
 80021b0:	d410      	bmi.n	80021d4 <HAL_RCC_OscConfig+0x38>
  if (((RCC_OscInitStruct->OscillatorType) & RCC_OSCILLATORTYPE_HSI) == RCC_OSCILLATORTYPE_HSI)
 80021b2:	6823      	ldr	r3, [r4, #0]
 80021b4:	079b      	lsls	r3, r3, #30
 80021b6:	d45c      	bmi.n	8002272 <HAL_RCC_OscConfig+0xd6>
  if (((RCC_OscInitStruct->OscillatorType) & RCC_OSCILLATORTYPE_LSI) == RCC_OSCILLATORTYPE_LSI)
 80021b8:	6823      	ldr	r3, [r4, #0]
 80021ba:	071b      	lsls	r3, r3, #28
 80021bc:	d500      	bpl.n	80021c0 <HAL_RCC_OscConfig+0x24>
 80021be:	e0c2      	b.n	8002346 <HAL_RCC_OscConfig+0x1aa>
  if (((RCC_OscInitStruct->OscillatorType) & RCC_OSCILLATORTYPE_LSE) == RCC_OSCILLATORTYPE_LSE)
 80021c0:	6823      	ldr	r3, [r4, #0]
 80021c2:	075b      	lsls	r3, r3, #29
 80021c4:	d500      	bpl.n	80021c8 <HAL_RCC_OscConfig+0x2c>
 80021c6:	e0f4      	b.n	80023b2 <HAL_RCC_OscConfig+0x216>
  if (RCC_OscInitStruct->PLL.PLLState != RCC_PLL_NONE)
 80021c8:	69e2      	ldr	r2, [r4, #28]
 80021ca:	2a00      	cmp	r2, #0
 80021cc:	d000      	beq.n	80021d0 <HAL_RCC_OscConfig+0x34>
 80021ce:	e17b      	b.n	80024c8 <HAL_RCC_OscConfig+0x32c>
  return HAL_OK;
 80021d0:	2000      	movs	r0, #0
 80021d2:	e7e9      	b.n	80021a8 <HAL_RCC_OscConfig+0xc>
    temp_sysclksrc = __HAL_RCC_GET_SYSCLK_SOURCE();
 80021d4:	2238      	movs	r2, #56	; 0x38
 80021d6:	4db0      	ldr	r5, [pc, #704]	; (8002498 <HAL_RCC_OscConfig+0x2fc>)
 80021d8:	68ab      	ldr	r3, [r5, #8]
 80021da:	4013      	ands	r3, r2
    temp_pllckcfg = __HAL_RCC_GET_PLL_OSCSOURCE();
 80021dc:	68ea      	ldr	r2, [r5, #12]
    if (((temp_sysclksrc == RCC_SYSCLKSOURCE_STATUS_PLLCLK) && (temp_pllckcfg == RCC_PLLSOURCE_HSE)) || (temp_sysclksrc == RCC_SYSCLKSOURCE_STATUS_HSE))
 80021de:	2b10      	cmp	r3, #16
 80021e0:	d109      	bne.n	80021f6 <HAL_RCC_OscConfig+0x5a>
    temp_pllckcfg = __HAL_RCC_GET_PLL_OSCSOURCE();
 80021e2:	43d2      	mvns	r2, r2
